:100000000040002059390000853900008539000082
:1000100085390000853900008539000085390000E8
:10002000853900008539000085390000011700007E
:1000300085390000853900009D170000E117000098
:100040007D0A00008539000069370000853900000D
:1000500085390000853900008539000085390000A8
:100060008539000019370000853900008539000006
:100070008539000085390000853900008539000088
:10008000992F0000652F0000F52E00008539000033
:100090008539000085390000853900008539000068
:1000A00021140000853900008539000085390000E1
:1000B00085390000853900008539000010B5054CF0
:1000C000237833B9044B13B10448AFF30080012304
:1000D000237010BD0001002000000000883C0000DB
:1000E00008B5064B1BB106480649AFF30080064829
:1000F000036813B1054B03B1984708BD0000000029
:10010000883C00000401002078000020000000006E
:10011000154B002B08BF134B9D46A3F5803A0021D9
:100120008B460F461348144A121A03F04AFD0F4B30
:10013000002B00D098470E4B002B00D09847002092
:10014000002104000D000D48002802D00C48AFF338
:10015000008003F007FD2000290003F023FB03F0DB
:10016000EDFC00BF0000080000400020000000007F
:100170000000000000010020E42D0020000000002D
:100180000000000070B50E7905460C4616480EBBFF
:1001900000F006FA154B164E0344A6FB0323DE0DB2
:1001A00003D0013E360206F4FE460A236B606378F4
:1001B000E1782078A2781B01090443EA0063134325
:1001C00001F4F81162790B4333430AB143F0080399
:1001D0002B6070BD00F0E4F93602034800F0E0F94E
:1001E00006F4FE46E1E700BF408104003F5DC60023
:1001F000A5E830A5082343602DE9F001446B8A7817
:1002000024F0FE4424F4FE04062A60D8DFE802F05D
:100210002F3B47535F5F04002E4BDB6803F07F08E2
:100220004FEA08480F7891F801C04D68CB783F0736
:100230004E7A48EA040447EA0C5745EA031344633C
:100240003B430EB143F080738C7A0CB143F004034E
:100250000C7A0CB143F00203C97A09B143F00103EF
:1002600045EA024213430361BDE8F0017047194BB0
:100270005E685D6806F4FE4305F07F0848EA0308FF
:100280004FEA0848CEE7134B5D685B68C5F3066824
:10029000C3F3064343EA08284FEA0848C2E70D4B78
:1002A0009E689D6806F4FE4305F07F0848EA03084F
:1002B0004FEA0848B6E7074B9D689B68C5F3066898
:1002C000C3F3064343EA08284FEA0848AAE74FF079
:1002D0000008A7E7B081E00F38B5124B04469842FA
:1002E0000ED8B0F5FA4F1AD247F6FF454FF4FA444C
:1002F00051B12944B1FBF4F47CB1013CE0B238BD0A
:100300001C46094D0029F4D1084800F049F901467E
:100310002944B1FBF4F4002CEFD1204638BD451E32
:10032000E6E700BF405DC6003F5DC60040810400B7
:1003300008B550B1084B00F5742000F23F20A3FB34
:100340000020800C0138C0B208BD044800F028F934
:100350000028EFD108BD00BF83DE1B4340810400AD
:1003600010B5C0F30313043B82B0032B49D8DFE878
:1003700003F07802614A019103F070FB644B41F68F
:100380007134DA6BDC635B68019903F00703012BBE
:1003900000F2AD805F4B604C0344A3428CBF00244D
:1003A00001245B4B586820F00700204358600AB1D5
:1003B0000022DA63594BB1FA81F15A68C1F11F0189
:1003C00022F00F021143596003F0DEFA504B41F660
:1003D0007131DA6BD9635B6803F00703012B40F2DC
:1003E0008E804C4B4C4903448B4294BF0320022027
:1003F000474B596821F00701014359600AB10022B7
:10040000DA6302B010BD464B984244D003F5043382
:100410009842F6D1414A536DD80735D53F4BB1FAD2
:1004200081F11A6FC1F11F0122F0300242EA01117D
:100430001967E6E73B4B984243D003F504339842F3
:10044000DFD1364A536DDC0717D5344BB1FA81F151
:100450009A6EC1F11F0122F0F00242EA0111996681
:10046000CFE72E4BB1FA81F19A68C1F11F0122F05A
:100470000F021143996002B010BD136D5807E4D507
:10048000136D5807F9D4E0E7136D5B06C6D5136DFD
:100490005B06F9D4C2E7214A536DDB070AD51F4B2F
:1004A000B1FA81F11A6FC1F11F0122F00302114369
:1004B0001967A6E7136D5C06F1D5136D5C06F9D4D8
:1004C000EDE7164A536DD8070AD5144BB1FA81F1FE
:1004D0009A6EC1F11F0122F00F021143996690E755
:1004E000136D5B07F1D5136D5B07F9D4EDE7094B8D
:1004F000094C0344A34294BF0324022451E7054B53
:10050000054903448B428CBF0020012070E700BFE7
:1005100000000C40FFDB0BFFFF23F40000800C40C9
:100520007007140060061000C0F30323013B30B4D1
:10053000092B11D8DFE803F0191D2210101F051038
:100540001024104A1024104DC0F304306B6DDB07EB
:1005500004D502449200116030BC70472B6D1C42E0
:10056000F7D02B6D1C42F9D1F3E7084AC0F30430F1
:10057000EFE7074AFAE7074A0124E4E7064AF5E706
:10058000064AF3E70003E41000800C404000E4104A
:100590002002E410C002E4100002E410C003E410E2
:1005A00000F47810B0F5801F08B500F0A5800BD8D6
:1005B000B0F5802F47D020D9B0F5402F02D0B0F54C
:1005C000602F3AD15A4808BDB0F5B01F78D01CD979
:1005D000B0F5C01F3FD0B0F5D01F2ED1554B9A6A51
:1005E0009B6AC3F38103022B3CD0032B41D0012B28
:1005F00023D1BDE8084003F097BA00B3B0F5003F3F
:100600001BD1BDE8084003F0BFB9B0F5901F3BD047
:10061000B0F5A01F11D1474B9A6A9B6AC3F38103BF
:10062000022B23D0032B2BD0012B26D00020414BB3
:100630001B6F03F00303D84008BD002008BDBDE8D0
:10064000084003F00FBA03F00DFA3A4B9B6803F031
:100650000F03D84008BD374B9A6A9B6A03F0030327
:10066000022BC2D1BDE8084003F062BA03F060FA81
:10067000DDE703F089F9400808BD03F055FAD6E735
:1006800003F082F94008D2E72A4B9A6A9B6A03F08A
:100690000303022B0AD0032B0ED0012B09D000201C
:1006A000244B9B6EC3F30313D84008BD03F040FAFC
:1006B000F6E703F039FAF3E703F066F94008EFE7ED
:1006C0001C4B9A6A9B6AC3F38103022B0AD0032B4B
:1006D0000ED0012B09D00020164B1B6FC3F3011362
:1006E000D84008BD03F024FAF6E703F01DFAF3E75B
:1006F00003F04AF94008EFE70E4B9A6A9B6A03F051
:100700000303022B0AD0032B0ED0012B09D00020AB
:10071000084B9B6E03F00F03D84008BD03F008FAA6
:10072000F6E703F001FAF3E703F02EF94008EFE7EC
:10073000809FD50000800C4010B500F00F04012C04
:100740000BD009D3032C0FD80139052904D8DFE8D1
:1007500001F0616C7F03037910BD02390329FBD8D6
:10076000DFE801F04B03545010BD4B4A03244023F3
:100770004A490B621368002BFCD000F033FB03F0F6
:100780006DF9474B41F67132D96BDA635B6803F060
:100790000703012B77D9434B434A0344934294BF49
:1007A000032002203E4B5A6822F0070202435A609F
:1007B00009B10022DA63394B5C6200F013FB03F0ED
:1007C000E3F8374B41F67131DA6BD9635B6803F0BC
:1007D0000703012B4FD9334B334903448B4294BF5A
:1007E000032002202E4B596821F007010143596074
:1007F000002AB1D00022DA6310BD2C4A04244FF441
:100800008073B5E701242346294AB1E7294A022427
:100810000423ADE700221346022C25D01F4B996A12
:1008200021F00C010A439A6210BD1C4B4FF48071F9
:100830001E4A19621368002BFCD000F0D3FA08227C
:100840000223E9E71C4B01221A600C220323E3E791
:10085000124B4021104A19621368002BFCD000F0A3
:10086000C1FA04220123D7E70C4A916A21F003015F
:100870000B43936210BD0B4B0B4903448B428CBF5F
:1008800000200120AEE7074B074A034493428CBF88
:100890000020012086E700BF9C05904300800C40AB
:1008A00000000C40FFDB0BFFFF23F400A405904386
:1008B000840590438C0590430808904338B504465E
:1008C000052804D8DFE800F05F63686D710438BD67
:1008D000444B1D6BC5F30725434BDB6A03F4705390
:1008E000B3F5805F65D0B3F5005F62D0B3F5006FFC
:1008F0005FD003F0B3F83D4B41F67132D96BDA6348
:100900005B6803F00703012B394B5DD802F57402D5
:10091000034402F68E0293428CBF00200120334B29
:100920005A6822F0070202435A6009B10022DA63D2
:100930002D4AD36823F4FF6323F0070343EA04241A
:100940002543D56003F020F8284B41F67132D96B6E
:10095000DA635B6803F00703012B254B3BD902F5F3
:10096000740202F68E020344934294BF03200220D5
:100970001E4B5A6822F0070202435A600029A6D093
:100980000022DA6338BD174BDD6AEDB2A4E7154BE0
:10099000DD6AC5F307259FE7124BDD6AC5F30745FE
:1009A0009AE7104BDD6A2D0E96E70E4B1D6BEDB2EC
:1009B00092E70D4AD36823F4FF6323F0070343EA69
:1009C00004242543D56038BD0A4A0344934294BFAA
:1009D00003200220A3E7074A034493428CBF002070
:1009E0000120C5E7B081E00F00800C4000000C4002
:1009F000FFDB0BFFFF23F40010B404282ED8DFE840
:100A000000F0271B031F230016480823042469B1A4
:100A1000154B1C621AB95DF8044B00F0E3B903688A
:100A2000002BF8D10368002BF9D0F4E70E4A5DF8EB
:100A3000044B136200F0D6B90C4880234024E6E74B
:100A40000B4802230124E2E70A4820231024DEE7B2
:100A500009484FF400734FF48074D8E75DF8044BF5
:100A6000704700BF8C05904300800C409C0590436C
:100A70008405904394059043A40590431C4B1D4A64
:100A800041F20C0112685858996B2DE9F047024069
:100A9000194F984602EA010422EA010A4FF00209BE
:100AA000FCB100250126E30717D506FA05F2D8F8B0
:100AB00008303A6003EB0513DB6828466BB11A7AFD
:100AC000D3F800C0111C82F0010218BF01211A7274
:100AD000BCF1000F01D05A68E047640805F1010538
:100AE000E1D1B9F1010901D05446D9E7BDE8F08759
:100AF00000200C4000300C4008300C40124B30B449
:100B00009C688A6804EB00140D78E260012484403C
:100B100075B19C634D684B780B4A00F5886142F8CB
:100B200021503BB9094A30BC02449200136070471F
:100B3000DC63EFE7054B41F2080503449B0001210C
:100B40005451196030BC704700200C406080E110A7
:100B5000F0B40D4BA9B9D968157893785778167900
:100B6000AD07D47845EA037545EA8765B20445EADE
:100B7000036342EA843201EB001013438360F0BC4C
:100B800070479968E8E700BF00200C402DE9F04F5E
:100B9000012183B006462548FFF7C6FC7268244B46
:100BA000244DDFF894B0019201240022FF2141F28C
:100BB0000C0003F5885941F2080AC5F8804041F25B
:100BC00004185A6041F2081CD96141F20C175962AD
:100BD000D9625963D963DC6441F210111A5043F8A9
:100BE0000AB0C9F8002041F2141B41F2181A41F270
:100BF0001C1943F8082043F80C20DA515A5043F8E6
:100C00000B2043F80A2043F80920019A4FF00048CE
:100C1000C5F880412C6043F800809A603278520118
:100C200022435A6003B0BDE8F08F00BF00130200FA
:100C300000200C4000E100E0FF000080204B45F662
:100C40000E01204A10B4D3F88440C3F8841012680F
:100C500040F2551102F470501140B0F5805F04F07D
:100C60000104196202F0010221D0B0F5005F16D034
:100C7000B0F5006F0BD012B9114B02221A621CB1F1
:100C80000F4B0022C3F884205DF8044B70471846D0
:100C9000C36A0B491B07FBD502234B62EBE71846DF
:100CA000C36A07499B05FBD504234B62E3E718465B
:100CB000C36A03491B06FBD503234B62DBE700BF76
:100CC00000800C401C010020194B1A49DB6A1A4AAB
:100CD00030B40B601569194B45F0040515611D69A9
:100CE0009A69DB6905F03F05C3F3031343EA052363
:100CF00002F0F0021343B3F5827F2CBF00230123DF
:100D00002BB10F4A0F4C15682C40C2F8804030BF01
:100D10000BB10B4B1C6038B90B685B0501D530BCBF
:100D2000704730BC02F030BE30BCFFF787BF00BF59
:100D300000800C401C01002000ED00E0D0FF0FE01F
:100D400000E100E0DCFC03F2204B2149DA6A70B4D8
:100D50000A60D3F884204FF42075D20748BF0022E0
:100D600045F60E06C3F884601D6248BFC3F88420B0
:100D7000184A194B156945F0040515611D699A69F2
:100D8000DB6905F03F05C3F3031343EA052302F0D3
:100D9000F0021343B3F5827F2CBF002301232BB154
:100DA0000E4A0F4C15682C40C2F8804030BF0BB182
:100DB0000A4B1C6038B90B685B0501D570BC7047E5
:100DC00070BC02F0E1BD70BCFFF738BF00800C4082
:100DD0001C01002000ED00E0D0FF0FE000E100E08A
:100DE000DCFC03F2024A034BD26A1A60704700BF70
:100DF00000800C401C010020F0B407299DF8106011
:100E00009DF814401AD9A1F10802920007259540D7
:100E10009040104A176827EA05052843106001250D
:100E20008D400D4A0D480A4492001360C2F880605C
:100E3000C0F81C51C2F80041F0BC70478A00072579
:100E400095409040064A176827EA05052843106038
:100E5000E5E700BF046100404008831000600040E7
:100E600000610040F0B4B2BBC40007291DD88D005A
:100E70004FF00F0C0CFA05FC02FA05F72518AD002F
:100E800005F1804505F5C0456E6826EA0C063E432F
:100E90006E6042B98BBB012303FA01F120441D4B64
:100EA000800003445960F0BC704701F18045083D63
:100EB000AD004FF00F0C0CFA05FC02FA05F72518EF
:100EC000AD0005F1804505F5C045AE6826EA0C0683
:100ED0003E43AE60DDE701268E40C4003BB12518DD
:100EE000AD0005F1804505F5C0452E61BDE7271829
:100EF000084DBF003D446E60B7E7012303FA01F1DE
:100F00002044800000F1804000F5C0400161F0BC49
:100F1000704700BF10600040F0B500F104764A78D9
:100F2000F6000446731C1B4800259B0082F001025A
:100F3000656320631A608D6883B048680F7BCDB10C
:100F4000236823F440732360236823F4407343EA47
:100F500007232360B8B1104BA0EB8500DB5D22684E
:100F600005FB03F52368B0FBF5F09B0700F1FF30AC
:100F700005D420610B78B600336003B0F0BD0028C3
:100F800008BF0120F5E705480191FFF709FB01992A
:100F9000E1E700BFCFFF0100F03B0000408104000B
:100FA00030B5036C83B0DB07044602D4636C9D0745
:100FB000FCD40A236360636C002BFCD101232364FF
:100FC00023680A7B487B23F01C0313438A7B03437B
:100FD0004868134323608D6858B9134B9C4221D055
:100FE00003F580639C4210D110480191FFF7D8FAB5
:100FF00001994001B0FBF5F02038236CC00047F6A2
:10100000F8720240D80706D5E2600A7800236260D1
:10101000236403B030BD636C5B07F5D5636C5B077D
:10102000F9D4F1E70248E0E70040084070171600E5
:101030007007140010B4436C002BFCD10124EA218A
:1010400040F2F972046441605DF8044B0360C360D0
:101050000361436183634263C36343650364704711
:101060008368DB06FCD5036CDA0702D4436C5B06AD
:10107000FCD48162704700BF30B1012802D1044B1B
:10108000D868704700207047014B9868704700BFD0
:101090000000084010B490B1012806D1094C042288
:1010A0000948036ADB0703D521605DF8044B7047EC
:1010B000436A1A42F8D0436A1A42F9D1F4E702228D
:1010C000024CEDE70C000840000008400800084012
:1010D0000C4A136AD9070ED54FF08643094A1860A7
:1010E000136AD90700D57047536ADB07FBD5536AEB
:1010F000DB07F9D4F7E7536ADB07EDD5536ADB0763
:10110000F9D4E9E700000840437801780BB141F0D9
:10111000020183780BB141F00401074A136AD80732
:1011200002D5054B19607047536ADB07F9D5536A3E
:10113000DB07F9D4F5E700BF000008400B4B596905
:101140001A6901F00F01C2F3811242EA8102827032
:101150001A6902F03F0242709A69DB6902F0F002FC
:10116000C3F3031313430370704700BFD0FF0FE0B6
:101170000B78F0B40BB902224260CA788C788D7972
:1011800012044F7842EA04620C794E792A43CD79F1
:10119000002F42EA84220F7A0CBF0024402442EA46
:1011A0000622002D4D7A42EA04020CBF002680265A
:1011B0008C7A002F0CBF002120213243002D42EAFF
:1011C00001020CBF00211021002C42EA01020CBFD9
:1011D000002108210A430021416202600BB1012372
:1011E0004360F0BC704700BFF0B456781478937930
:1011F000360646EA846694781E43D378157946EA23
:101200000446D479177A46EA03365379002C46EA25
:101210008526557A947A46EA03260CBF00234FF4BC
:101220000013002F46EA03020CBF00234FF4801383
:10123000002D42EA03020CBF00231023002C0CBF38
:101240000024042403311343234309014350F0BC19
:10125000704700BF254AF8B5044600230D4640F606
:10126000AA6741F2050641F6F9709442E760098ADF
:1012700023606660A3606361E364A064636508BF84
:1012800023656B7BEA890B43686813436360AF682F
:101290002E7B18B3202E26D01CD9402E18D0602EBD
:1012A00013D1042307FB03F32268810001EB5301F0
:1012B00022F060022260B1FBF3F1226804390C4B8A
:1012C00089010B401643266063612B78E360F8BD0B
:1012D0000623E7E7002EF8D11023E3E70548FFF7E0
:1012E0005FF9202ED8D10823DCE700BF00C0004002
:1012F000C0FF1F0040810400224AF8B504460023C5
:10130000944241F205060A8A41F6F97040F6AA674E
:10131000E76023606660A3606361E364A064636563
:1013200008BF23658B7B0D4642F001022168002B2C
:1013300092B22B7B42EA010268680CBF00214FF495
:1013400080610A4343F480532260AE68636010B941
:101350000D48FFF725F9731E03EB4000B0FBF6F6CE
:101360006369B601094A403E23F4FF13324023F477
:10137000FE53697B1343636109B11023E3602B784B
:10138000E360F8BD00C000404081040000FF1F0082
:1013900083684A7823F037030AB143F020030A78C0
:1013A0000AB143F010038A7813438360704700BF8B
:1013B00003695B06FCD54163704700BF0368D9072A
:1013C00007D583689A0704D48368DB07FCD401231C
:1013D000436070474A780B780AB143F002038A7879
:1013E0000AB143F00403CA780AB143F008030A794A
:1013F0000AB143F020034A790AB143F040038A79E5
:101400000AB143F01003CA79097A120342EA0122B1
:101410001A438368DB07FCD40260704700F07EB893
:1014200008B50020FFF728FE802809D00020FFF72C
:101430004FFE00208021FFF72DFE0120FFF748FE20
:10144000084B07229A6100F07BF900F0FFFF18B10A
:10145000054B4FF080521A600020BDE8084000F0B4
:101460008FB900BF0000084004ED00E0F0B51D4852
:1014700083B01D4C0121FFF757F81C480221FFF7EC
:101480005BF920460221FEF76BFF20460121184C34
:10149000FFF74AF80025012601A88DF804508DF8C1
:1014A00005508DF80660FFF72FFEE169114B4FF0F4
:1014B000807221F00201E027E161284683F8187369
:1014C0008021C3F880211A60FFF7E4FD0223A361A5
:1014D000E369304643F00203E361FFF7F9FD03B02F
:1014E000F0BD00BF002302006006100002001800DB
:1014F0000000084000E100E030B4054B054D064C0B
:1015000000221A705A702860216030BC704700BFFA
:101510002C010020280100202401002038B572B6DB
:101520001A4C23685A1C1CBF01332360184B1A78CD
:10153000F2B95B78002B0CBF03250225154B1B6805
:101540000BB128469847022D14D0032D16D1012047
:10155000FFF7FAFB104B1B680BB12846984723682E
:101560000A4A1BB1013B136003B962B6284638BD75
:101570000125E3E70120FFF7A7FBEBE7074B1A691B
:1015800022F004021A6130BFE4E700BF200100200E
:101590002C010020280100202401002000ED00E0A3
:1015A000831EDAB2012A00D97047054A0228D15CAD
:1015B00001F10101D154F7D1024B01221A607047A9
:1015C0002C01002004008C4338B5430704461CBF9F
:1015D00020F00704083400F025FF0E4A1368A3B179
:1015E0001D460D4A42F21F3113681C448C4207D835
:1015F000A34205D21D44146000F0B0FF284638BD58
:10160000002500F0ABFF284638BD044D25F0070546
:101610001560E6E7300100205C2400203C0100203A
:10162000704700BF00F108034FF0FF3100228160D6
:1016300080E80C00C3600361704700BF00230361B2
:10164000704700BF436830B49A6805688A609C6838
:101650006A1C4B606160996030BC08610260704731
:1016600030B40D686B1C11D000F1080200E01A467E
:1016700053681C68A542FAD204684B600134996033
:101680008A6051600861046030BC70470269536829
:10169000F2E700BF42688168036910B49160816815
:1016A0005C684A601A68844208BF5960013A0021A8
:1016B00001615DF8044B10461A60704706480068E7
:1016C000006880F3088862B661B6BFF34F8FBFF33E
:1016D0006F8F00DF00BF000008ED00E0074B10B483
:1016E0004FF0807440F8044C40F8081C40F8202C5F
:1016F00040F80C3C5DF8044B40387047511700002F
:10170000064B19680868B0E8F00F80F30988BFF34A
:101710006F8F4FF0000080F3118800BFDC240020A1
:101720004EF00D0E704700BF044B4FF080521A6010
:10173000BFF34F8FBFF36F8F704700BF04ED00E022
:10174000EFF311804FF0BF0181F311887047002043
:1017500008B5FFF7F5FFFEE708B5FFF7F1FF064A0A
:10176000136801331360BFF34F8FBFF36F8F012BEB
:1017700004BF024B1B6808BD0000002004ED00E020
:1017800080F31188704700BF034B18680138186058
:1017900000B17047FFF7F4BF00000020EFF30980AD
:1017A000BFF36F8F0D4B1A6820E9F00F10602DE921
:1017B00008404FF0BF0080F3118800F077FF4FF032
:1017C000000080F31188BDE8084019680868B0E897
:1017D000F00F80F30988BFF36F8F7047DC2400207F
:1017E00008B5FFF7ADFF00F031FE18B1044B4FF024
:1017F00080521A600020BDE80840FFF7C1BF00BF5B
:1018000004ED00E010B5224B82B01978FF22C9B276
:1018100001911A701B781F48DBB28DF803309DF8D8
:1018200003409DF8033004F0BF041B4A07210470F5
:101830001C06116028D5062300E00B469DF8030026
:10184000591E4000C0B28DF803009DF80300000649
:10185000F3D41B0203F4E061019C0D480F4BE4B28A
:10186000116004701A6842F47F021A601A6842F02C
:101870007F421A60FFF7FAFD094B00221A60FFF75A
:101880001DFFFFF75DFFFEE74FF4E061E4E700BFF7
:1018900000E400E0602400206424002020ED00E04B
:1018A00000000020EFF305830F2B84BF024A9B5CEE
:1018B000024B1B68704700BFF0E300E00CED00E056
:1018C000F8B505460E4668B34C20FFF77DFE04468A
:1018D00040B306FB05F00130FFF776FE07462060B7
:1018E00018B3E5632664FFF737FF216CE26B2368CA
:1018F00002FB01F2511A9D1819444FF0FF320020EB
:10190000A063E1606264A36004F11000A2646560FA
:10191000FFF788FE04F12400FFF784FEFFF734FF91
:101920002046F8BD00242046F8BD2046FFF778FE8B
:101930003C46F5E72DE9F047044684B001921D4688
:101940008A4600F0E7FFFFF707FFA26BE36B002773
:101950009A423E466ED3022D00F04881019800283D
:1019600000F02981002F7BD0FFF70EFF00F05AFD19
:10197000FFF7F2FE636C013308BF6664A36C0133AA
:1019800008BFA664FFF700FF02A801A900F08CFFC2
:10199000002840F0CC80FFF7DFFEA26BE36B9A4299
:1019A00062D0FFF7F1FEFFF7D7FEA36C002B14DD2A
:1019B000636A93B104F1240807E0A36C013BA364BC
:1019C000A26C002A09DD636A3BB1404600F024FFA7
:1019D0000028F2D000F098FFEFE74FF0FF33A36448
:1019E000FFF7D2FEFFF7B8FE636C002B14DD23690E
:1019F00093B104F1100807E0626C013A6264626C12
:101A0000002A09DD23693BB1404600F005FF0028AC
:101A1000F2D000F079FFEFE74FF0FF336364FFF798
:101A2000B3FE00F09BFDFFF797FEA26BE36B01276F
:101A30009A4290D2226C002A5FD12568002D00F0D6
:101A4000D080A26B636A0132A2631BB104F124004F
:101A500000F0E2FEFFF798FE012004B0BDE8F08739
:101A600002A800F015FF7FE704F11008FFF78CFED5
:101A70004046019900F046FEFFF76EFEA36C002B76
:101A800014DD636A93B104F1240907E0A36C013B00
:101A9000A364A36C002B09DD636A3BB1484600F0E8
:101AA000BBFE0028F2D000F02FFFEFE74FF0FF332E
:101AB000A364FFF769FEFFF74FFE636C002B06DCA3
:101AC0000FE0636C013B6364636C002B09DD2369E9
:101AD0003BB1404600F0A0FE0028F2D000F014FF19
:101AE000EFE74FF0FF336364FFF74EFE00F036FD83
:101AF000002898D1FFF718FE95E7002D62D05146D7
:101B0000E06802F055F8226CE36852422168134401
:101B10008B42E36002D263681344E360022D90D1EC
:101B2000A36B002B8DD0A36B013BA36389E7FFF769
:101B300013FEA36C002B14DD636A93B104F124053A
:101B400007E0A36C013BA364A36C002B09DD636A6F
:101B50003BB1284600F060FE0028F2D000F0D4FE31
:101B6000EFE74FF0FF33A364FFF70EFEFFF7F4FD3E
:101B7000636C002B14DD236993B104F1100507E0B9
:101B8000636C013B6364636C002B09DD23693BB12B
:101B9000284600F041FE0028F2D000F0B5FEEFE745
:101BA0004FF0FF336364FFF7EFFD00F0D7FC002038
:101BB00004B0BDE8F0870090FFF7E6FD009804B0A0
:101BC000BDE8F0875146A06801F0F2FFA168236CE0
:101BD00062680B449342A360FFF433AF2368A360B1
:101BE0002FE7606800F0F2FE65602AE7226C002AA9
:101BF0003FF423AF83E700BF2DE9F04104461D46C3
:101C000088461746FFF74EFEFFF79AFDE36B064640
:101C1000A06B984208D3022D56D000253046FFF71E
:101C2000AFFD2846BDE8F081226C92B92568002DF1
:101C30004ED0A36B0133A363A36C013330D0A36CEC
:101C400001252B443046A364FFF79AFD2846BDE8E2
:101C5000F081BDB14146E06801F0AAFF226CE36863
:101C60005242216813448B42E36002D263681A44F3
:101C7000E260022DDDD1A36B002BDAD0A36B013B18
:101C8000A363D6E74146A06801F092FFA168236CE8
:101C900062680B449342A360CBD32368A360C8E778
:101CA000636A33B930460125FFF76AFD2846BDE86F
:101CB000F08104F1240000F0AFFD0028F2D0002FE5
:101CC000F0D001253D60A9E7226C002AAED0C1E723
:101CD000606800F07BFEA36B65600133A36300289E
:101CE000AAD0002FA8D001233B60A5E72DE9F0433F
:101CF000044685B01E468946019200F00BFEFFF7B0
:101D00002BFDA36B00273D46002B72D101980028C4
:101D100000F0E280002F00F0C880FFF735FD00F0F2
:101D200081FBFFF719FD636C013308BF6564A36C89
:101D3000013308BFA564FFF727FD02A801A900F041
:101D4000B3FD002840F0CF80FFF706FDA36B002B0A
:101D500070D1FFF719FD2368002B00F0B58004F166
:101D600024084046019900F0CDFCFFF7F5FCA36C78
:101D7000002B06DC0FE0A36C013BA364A26C002ADD
:101D800009DD636A3BB1404600F046FD0028F2D011
:101D900000F0BAFDEFE74FF0FF33A364FFF7F4FC68
:101DA000FFF7DAFC636C002B14DD236993B104F1B7
:101DB000100807E0626C013A6264626C002A09DD77
:101DC00023693BB1404600F027FD0028F2D000F027
:101DD0009BFDEFE74FF0FF336364FFF7D5FC00F0A6
:101DE000BDFB00286DD0FFF7B7FCA36B0127002BCC
:101DF0008CD0226CE56852B16368A9189942E16001
:101E000028BF2168484628BFE16001F0D1FE002EBE
:101E100040F0AD80A26B2368013AA263002B00F072
:101E2000B3802369002B00F0A98004F1100000F0BA
:101E3000F3FCA3E0FFF7A8FCFFF78EFCA36C002BDC
:101E400014DD636A93B104F1240807E0A36C013B3D
:101E5000A364A36C002B09DD636A3BB1404600F02C
:101E6000DBFC0028F2D000F04FFDEFE74FF0FF332E
:101E7000A364FFF789FCFFF76FFC636C002B18DD90
:101E80002369B3B104F1100807E0636C013B63649C
:101E9000636C002B0DDD23695BB1404600F0BCFC98
:101EA0000028F2D000F030FDEFE702A800F0F0FCCF
:101EB00033E74FF0FF336364FFF766FC00F04EFB3F
:101EC00091E7FFF731FC8EE7FFF746FC606800F012
:101ED00031FDFFF759FC42E70090FFF755FC0098F1
:101EE00005B0BDE8F083FFF737FCA36C002B14DDD1
:101EF000636A93B104F1240507E0A36C013BA3647A
:101F0000A36C002B09DD636A3BB1284600F084FC1A
:101F10000028F2D000F0F8FCEFE74FF0FF33A364A5
:101F2000FFF732FCFFF718FC636C002B14DD23690C
:101F300093B104F1100507E0636C013B6364636CCB
:101F4000002B09DD23693BB1284600F065FC002821
:101F5000F2D000F0D9FCEFE74FF0FF336364FFF7F6
:101F600013FC00F0FBFA002005B0BDE8F083636AC3
:101F7000E5601BB104F1240000F04EFCFFF704FC07
:101F8000012005B0BDE8F08300F064FD606048E723
:101F9000184B10B41A68AAB19A68DAB11A69DAB1A2
:101FA0009A69DAB11A6ADAB19A6ADAB11A6BDAB1F5
:101FB0009A6BDAB11A6C22B19A6CCAB15DF8044B13
:101FC0007047082203EBC20443F8321060605DF8EA
:101FD000044B70470122F5E70222F3E70322F1E701
:101FE0000422EFE70522EDE70622EBE70722E9E707
:101FF0000922E7E72427002038B504460D46FFF7FD
:10200000ABFB636C013304BF00236364A36C013337
:1020100004BF0023A364FFF7B7FBA36B23B92946D2
:1020200004F1240000F0B8FBFFF796FBA36C002B33
:1020300014DD636A93B104F1240507E0A36C013B4E
:10204000A364A36C002B09DD636A3BB1284600F052
:10205000E3FB0028F2D000F057FCEFE74FF0FF332E
:10206000A364FFF791FBFFF777FB636C002B14DD94
:10207000236993B104F1100507E0636C013B6364CD
:10208000636C002B09DD23693BB1284600F0C4FBDB
:102090000028F2D000F038FCEFE74FF0FF33636424
:1020A000BDE83840FFF770BB2DE9F84F8046482067
:1020B0000D46934699460B9E0C9FFFF785FA044602
:1020C000002800F0A180002F00F092800763BA463C
:1020D0002B780BF1804284F83430013A2B780AEBEC
:1020E000820A2AF0070A2BB36B7884F835306B78B4
:1020F00003B3AB7884F83630AB78DBB1EB7884F897
:102100003730EB78B3B12B7984F838302B798BB139
:102110006B7984F839306B7963B1AB7984F83A30F4
:10212000AB793BB1EB7984F83B30EB7913B12B7A87
:1021300084F83C300A9D0023022D28BF022504F1BB
:10214000040B84F83D306364E56225645846FFF76C
:1021500075FAC5F1030504F11800FFF76FFAA561E0
:1021600024616462504641464A46FFF7B7FA206050
:1021700006B13460FFF7F0FA364B374D1A6801327A
:102180001A602A686AB3DFF80481D8F80030F3B126
:10219000E36A012707FA03F9304A314C03EB830E57
:1021A000266813682F48594649EA060900EB8E0055
:1021B000DE191660C4F80090FFF744FAFFF7E4FA5E
:1021C000D8F8003053B12B683846BDE8F88F2B683B
:1021D0000A99DB6A994228BF2C60D9E73846BDE8E6
:1021E000F88F2C601B68012B12D0DFF8A080CFE79E
:1021F0004FEA8B00FFF7E8F92063824600287FF45E
:1022000067AF2046FFF70CFA4FF0FF30BDE8F88FBC
:102210001448FFF707FA144F1448FFF703FA144E57
:102220001448FFF7FFF93846FFF7FCF93046FFF78F
:10223000F9F91148FFF7F6F91048FFF7F3F91048DC
:10224000FFF7F0F90F4A104B1760DFF840801E606F
:102250009EE700BF30250020DC2400200025002060
:10226000342500209C24002004250020B0240020D8
:1022700018250020C4240020E0240020742400201D
:102280008824002068240020FC2400206C240020E6
:102290002DE9F0414820FFF797F90446002870D057
:1022A0004FF40C70FFF790F92063002800F0948041
:1022B00000254FF0490E44214C224523261D84F869
:1022C00034E084F8351084F8362084F8373000F58F
:1022D0000B7784F83850304684F83D50E562256429
:1022E0006564FFF7ABF904F11800FFF7A7F927F0D1
:1022F000070703232A46A3613949384624616462EB
:10230000FFF7ECF92060FFF727FA364BDFF8108172
:102310001A6801321A60D8F80020002A35D0324DF0
:102320002B682BB9D8F80030DB6A0BB9C8F800402D
:10233000E36A4FF0010C0CFA03FC2C4A2C4C2D489C
:1023400003EB8303276800EB8300136831464CEAF4
:1023500007065F1C17602660FFF774F9FFF714FA91
:102360002B680BB1D8F8003000F08EFB0128044632
:1023700007D1FFF7E5F9204B00222C601A60FFF728
:1023800041FABDE8F04100F055BDC8F800401B68B7
:10239000012B01D0144DCBE71648FFF743F9174D39
:1023A0001748FFF73FF9174F1748FFF73BF9284643
:1023B000FFF738F93846FFF735F91448FFF732F9D7
:1023C0001348FFF72FF91348FFF72CF9124A134B64
:1023D0001560054D1F60ABE72046FFF721F9D0E7F8
:1023E0002D260000302500206C2400200025002030
:1023F000342500209C240020F824002004250020FF
:10240000B024002018250020C4240020E02400204F
:10241000742400208824002068240020FC2400204C
:10242000DC240020024B1A6801321A60704700BF9A
:10243000D824002010B5FFF78FF9034B1C68FFF775
:10244000A3F9204610BD00BFF82400202DE9F04F6D
:10245000394B83B01B68002B48D1384B1A680132C6
:102460001A601E68002E49D0354A019213689E42B8
:1024700040D3344F3B681B68002B2FD03B68DB6890
:10248000DC6863689E422BD32F4DDFF8CC904FF071
:102490000108BA4606E0DAF80030DB68DC686368F9
:1024A0009E421DD304F1040B5846FFF7F3F8A36ACC
:1024B00004F118000BB1FFF7EDF8E06A2B6808FA99
:1024C00000F200EB80001343594609EB80002B60BB
:1024D000FFF7B8F83B681B68002BDCD14FF0FF33E7
:1024E000019A0020136003B0BDE8F08F174B1A6803
:1024F00001321A60002003B0BDE8F08F114B14497F
:102500001A6818680C68134A1C6008601168013169
:1025100011601A6812683AB9094B094A01934FF0E1
:10252000FF331360019AA1E71B68054ADB6801923B
:10253000DB685B68136099E7D8240020F82400204A
:102540000400002068240020342500202C250020D1
:10255000FC240020F42400209C2400202DE9F84FC6
:102560002A4C2368FFF7F8F82368013B23602368AF
:10257000002B45D1264B1B68002B41D0DFF8A0B0C3
:10258000244FDA46DFF89C90DFF89C8020E0DAF8F0
:102590000C30DC68251D04F11800FFF77BF8284695
:1025A000FFF778F8E36A3A6806FA03FC03EB830066
:1025B00029464CEA020309EB80003B60FFF742F832
:1025C000D8F80030E16ADB6A994224BF124A1660EB
:1025D000DBF800300126002BD9D1104C23686BB1F9
:1025E00023685BB10125FFF731FF08B10A4B1D607D
:1025F0002368013B23602368002BF4D1064A13684B
:10260000FFF7C2F80020BDE8F88F00BFD8240020F3
:102610003025002034250020382500202C250020DE
:10262000E02400209C240020DC24002080B51A4EE9
:102630001A4F1B4CDFF87090BA46B0461948FEF7A7
:10264000BDFE06E023683D6801332360FFF786FF87
:102650003DB93368002BF5D1FFF766F8FEF7DEFED3
:10266000ECE7FFF779F8DAF80C30DD68281DFFF7A2
:1026700011F8D9F80030013BC9F80030D8F8003023
:10268000013BC8F80030FFF77FF8286BFEF7C8FF62
:102690002846FEF7C5FFDCE77024002074240020E4
:1026A000D82400200080084030250020104B1B68F3
:1026B000D3B91049104A0B601368B3FA83F3DBB245
:1026C0000E49C3F11F0303EB830301EB830253683D
:1026D00002F108015B688B42536004BF5B68536082
:1026E000DA68074B1A607047024B01221A60704784
:1026F000D824002038250020342500209C240020E8
:10270000DC24002038B51D4C0D4621681831FEF739
:10271000A7FF20680430FEF7BDFF48B923680121F8
:10272000DA6A174B01FA02F2196821EA02021A600A
:102730006B1C1CD0134B114A186821681B682C189D
:102740009C424C600BD3104B186811680431FEF7A3
:1027500087FF0E4B1A68944238BF1C6038BD0C4B83
:1027600018681168BDE838400431FEF779BF216868
:1027700008480431BDE83840FEF764BFDC2400207F
:1027800034250020F82400206824002004000020C4
:10279000FC2400208824002038B5194C0D462168FF
:1027A0001831FEF74FFF20680430FEF773FF48B979
:1027B00023680121DA6A134B01FA02F2196821EA4F
:1027C00002021A60104B0E4A186821681B682C1808
:1027D0009C424C600BD30D4B186811680431FEF716
:1027E0003FFF0B4B1A68944238BF1C6038BD094B41
:1027F00018681168BDE838400431FEF731BF00BFEA
:10280000DC24002034250020F82400206824002047
:1028100004000020FC240020F8B5C368DC6804F143
:1028200018052846FEF736FF134B1B68EBB9251D2C
:102830002846FEF72FFFE36A01279F400F4A104802
:10284000166803EB8303294600EB830047EA06057D
:102850001560FEF7F7FE0B4BE26A1B68DB6A9A42D3
:1028600008D9094B01201860F8BD29460748FEF732
:10287000E9FEF0E70020F8BDD82400203425002030
:102880009C240020DC24002038250020E0240020A7
:10289000034A044B12681B6880E80C00704700BFB5
:1028A000F4240020F8240020F8B50D460446FEF775
:1028B00053FF2B681249581C0A681BD0114E206820
:1028C0003768B842606801D082420ED2171ABB4204
:1028D0000BD936689B1A09681844286000252660C1
:1028E0006160FEF751FF2846F8BD0125FEF74CFF59
:1028F0002846F8BD0025FEF747FF2846F8BD00BF73
:10290000F8240020F4240020014B01221A607047B3
:1029100038250020054B1B6833B1054B1B68002B85
:1029200014BF002002207047012070476C24002053
:10293000D8240020F8B50446C0B1214DC36A2A68E6
:10294000D26A934212D28269002A04DB2A68D26AD0
:10295000C2F1030282611B4E03EB8303626906EB43
:1029600083039A4203D02B68DB6AE362F8BD271D1C
:102970003846FEF78FFE08BBE36A03EB830256F886
:102980002220DAB9012202FA03F30F4A116821EA80
:10299000030313602B684FF0010CDB6A15680CFA17
:1029A00003FC03EB8300E3624CEA0503394606EBC4
:1029B00080001360BDE8F840FEF744BE024AE9E734
:1029C000DC2400209C240020342500202DE9F04147
:1029D000044638B1436CC16A026C013B91424364C6
:1029E00000D013B10020BDE8F081061D3046FEF78F
:1029F00051FE40B9E36A154803EB830250F82220E8
:102A0000DAB1134A01E01148114A236C012505FA95
:102A100003F8D2F800C0C3F1030E03EB8307E362AF
:102A200000EB870048EA0C033146C4F818E0136055
:102A3000FEF708FE2846BDE8F081012202FA03F302
:102A4000034A116821EA03031360DEE79C24002097
:102A500034250020044B1A681AB11A68516C0131F0
:102A600051641868704700BFDC2400200148FEF75D
:102A7000A5BC00BF00800840024B1A6801321A60F2
:102A8000704700BF6C250020F0B5184C85B0FEF7EC
:102A900063FE256885B1FEF777FE206850B10023FC
:102AA00002228DE80C0002930393114811498C22F5
:102AB000FFF7FAFA05B0F0BD0F4F104E3846FEF79B
:102AC000B1FD3046FEF7AEFDDFF83CE00C4B2A4688
:102AD0000A200C21CEF800701E60FEF7F1FE206087
:102AE0000028D8D00749FFF753FAD4E77025002013
:102AF000652B0000FC3B00004025002054250020F1
:102B000074250020F43B00003C25002070B5144DD6
:102B100084B02C6804B305290191029203900BDC68
:102B2000FFF7F8FE02280FD000222868134601A9FB
:102B3000FEF700FF04B070BD1A46204601A900232D
:102B4000FFF75AF804B070BD286801A9089A00235D
:102B5000FEF7F0FE04B070BD204604B070BD00BFAB
:102B6000702500202DE9F04FAA4DAB4FAB4C89B03A
:102B70002B681E68D6F1010638BF0026002E64D1EE
:102B8000DB68D3F80090FFF74DFCFFF753FC3B6880
:102B9000804698425CD3A048C0F8008016B9C14571
:102BA00040F29180C8EB09012068FFF725FAFFF792
:102BB000D5FC002800F0848000221346206802A97A
:102BC000FFF794F80028D3D0029B002BF4DBDDF84C
:102BD0001080D8F814301BB108F10400FEF75AFD3C
:102BE000FFF728FC3B688146984224D3029BC7F834
:102BF0000090092BE0D8012202FA03F313F4047FBA
:102C000040F0CB8013F0C70F40F0A5809B06D3D5D2
:102C10004046FEF705FDCFE7DB68DE68D3F800B07D
:102C200006F1040A5046FEF735FD736A30469847B0
:102C3000F369012B38D02B681A68002AECD1784848
:102C40007449026803600A60D0E74FF000099AE710
:102C50004FF000090EE0DB68DE68D3F800B006F143
:102C6000040A5046FEF716FD736A30469847F3692A
:102C7000012B0DD02B681A68002AECD168486549F1
:102C80000268C7F800800A600360FFF767FC93E7FB
:102C9000B36951465B445B4529D95E4A736036612E
:102CA0001068FEF7DDFCE5E7B36951465B445B4520
:102CB0002FD9584A736036611068FEF7D1FCBAE725
:102CC000FEF732FD78E7FFF749FC2B68DB68D3F8A5
:102CD0000CA00AF1040B5846FEF7DCFCDAF81C30B5
:102CE000012B28D0DAF824305046984764E723684F
:102CF000002BBFD0CDF81490CDF818B00796FFF791
:102D000009FE464900221346086805A9FEF712FE8F
:102D1000B0E72368002B8ED000230593CDF818B0C0
:102D20000796FFF7F7FD3D4900221346086805A9FD
:102D3000FEF700FE7FE7DAF81830CAF810A009EBBA
:102D400003029045CAF804203CD2324B5946186819
:102D5000FEF786FCC6E7039BD8F81810C8F8108069
:102D6000CA184A45C8F8042042D8C3EB090399425F
:102D700048D8D8F8243040469847D8F81C30012B62
:102D80007FF41AAFD8F81820039B00211A44009151
:102D900040460B46FFF7BAFE0EE7039BC8F81080CB
:102DA00009EB03024A45C8F81830C8F8042023D8B4
:102DB000002B3FF401AF1A4B08F104011868FEF72D
:102DC0004FFCF9E6C9EB080843452BD82368002BD4
:102DD00088D00596CDF81890CDF81CA0FFF79AFD85
:102DE0000E4932463346086805A9FEF7A3FD79E788
:102DF0004B4501D99342BCD908F104012868FEF77C
:102E00002FFCD9E6064A08F104011068FEF728FCF9
:102E1000D2E600BF3C250020682500207025002058
:102E200074250020024A59461068FEF719FC59E73C
:102E3000742500202DE9F041282084B0FEF7C4FB62
:102E4000234D044690B1FEF787FC2E6826B3FEF7AB
:102E50009BFC204E20488E210122002360622660C8
:102E6000A161E2612362201DFEF7E8FB1B4B184EB7
:102E70001C60FFF7DFFA2B685BB10123019302901E
:102E80000394FFF747FD00223068134601A9FEF7BF
:102E900051FD04B0BDE8F081DFF85080104F40468E
:102EA000FEF7C0FB3846FEF7BDFBDFF844E00D4BF4
:102EB00032460A200C21CEF800801F60FEF700FD8C
:102EC00028600028C3D00849FFF762F8BFE700BFB9
:102ED00070250020043C0000792A0000742700209F
:102EE0005425002074250020F43B000040250020DC
:102EF0003C250020194810B5C36AD90706D540F211
:102F0000F972174B42631A8992B2DAB91349CB6A44
:102F10005A0716D540F2F9734B638B680F4A9B062C
:102F2000FBD50F4BD0691A8892B2511C89B2198017
:102F300019881A4489B2B1F5966F107524BF002222
:102F40001A8010BD1C89DA68A4B2013C511CA4B2DD
:102F50001C81D9601178FEF783F8D7E7004008405C
:102F600078270020084841F6F972084B0849826426
:102F70001A780988914200D8704701320549D2B2C7
:102F8000895C1A70FEF714BA00E000407825002032
:102F9000042D0020082D00200B4941F6F97310B4D0
:102FA0008B640B69084A1B06FBD5084BD4691A7859
:102FB0000748511CC9B2C82914540ABF002219700D
:102FC0001A705DF8044B704700E00040792500203E
:102FD0003C2C0020012170B50A460020FDF70CFDB5
:102FE000324C012200210220FDF706FD0320FDF7EF
:102FF00065FC2F4E20460221FDF79EFB2D4D012042
:103000000521FDF799FB30460121FDF7A9F9284676
:103010000121FDF7A5F930460121FDF785FA284683
:103020000121FDF781FA24480121FDF77DFA2046B0
:103030000221FDF781FB21480221FDF77DFB20489D
:103040000121FDF771FA1F480121FDF76DFA1E48B5
:103050000121FDF769FA1D480121FDF765FA1C48B9
:103060000121FDF761FA1B480121FDF75DFA1A48BD
:103070000121FDF759FA19480121FDF755FA1848C1
:103080000121FDF751FA17480121FDF74DFA1648C5
:103090000121FDF749FA15480121FDF745FABDE880
:1030A000704013480121FDF73FBA00BF020018002D
:1030B00040810400500002000023020003001A00B7
:1030C00000E204000013020000F204006016120087
:1030D0007007140060061000004204000052040053
:1030E0000062040000320400000204000022040018
:1030F00000C2040070B51D4C86B001AD0FCC0FC5E9
:103100001B4E23681B4A0124304601A92B60039201
:103110008DF81240FEF7F0F840F20B13736520466D
:10312000234603210422FDF79DFE2046224604216A
:103130000023FDF797FE2046234605210422FDF7D4
:1031400091FE2046234606210422FDF78BFE002136
:103150000B4602200422FDF785FE2146224602206E
:103160000023FDF77FFE06B070BD00BF243C0000C9
:1031700000C8004040420F00F0B5234C89B0002346
:1031800001252046194604AA022703268DF803309C
:103190008DF804308DF805308DF806308DF8073045
:1031A0008DF808308DF809308DF80A308DF8003030
:1031B0008DF810308DF812308DF813308DF81430F2
:1031C0008DF817308DF818308DF819308DF81A30C9
:1031D0008DF801508DF802508DF815508DF8117052
:1031E0008DF81660FEF700F8A16A40F2D662294316
:1031F00040F26B33A1622046E2616946E363FDF76A
:10320000B7FF656009B0F0BD000401402DE9F04151
:103210006F4C0422A36ADFF8CCC123F4704343F45B
:103220008043A362A36A6B4E23F4702343F480337C
:10323000A362A36ADFF8B0E123F4700343F48003D0
:10324000A362A36A644F23F0706343F08063A362B8
:10325000E36C624D23F00F0343F00403E364E36C7B
:1032600082B023F0F00343F01003E364E36C022028
:1032700023F4706343F48063E364D4F84C800D213D
:1032800028F4704848F48058C4F84C80D4F84C8036
:10329000002328F4702848F48028C4F84C80D4F81F
:1032A0004C8028F4700848F48008C4F84C80D4F8A6
:1032B000508028F4706848F48068C4F85080D4F8CE
:1032C000508028F0706848F08068C4F85080D4F8C6
:1032D000988028F4706848F48068C4F89880D4F81E
:1032E000988028F4704848F48058C4F89880D4F83E
:1032F000988028F0706848F08068C4F89880D4F806
:10330000988028F0704848F08058C4F89880D4F825
:10331000B88028F0706848F08068C4F8B880D4F8A5
:10332000B88028F0704848F08058C4F8B880D4F8C5
:10333000208128F4407848F48078C4F82081D4F8BB
:10334000208148EA0208C4F82081DCF8384044F0C3
:103350000304CCF83840746D24F4407444F40074D1
:103360007465746D44F003047465DEF8544044F0F1
:103370000304CEF854407C6D44F003047C656C6D0E
:1033800024F4407444F480746C656C6D44F00F0454
:103390006C65FDF767FD0220082104220023FDF77C
:1033A00061FD0122134600200F21FDF75BFD0C4B50
:1033B000012200200F214FF400741C600092019242
:1033C00003460A46FDF718FD02B0BDE8F08100BFD4
:1033D000006000400040084000C0004000C80040BD
:1033E00000E100E000A0004000E00040B44B2DE907
:1033F000F04F1A688DB022F4C0521A601A68002487
:1034000042F400521A60FFF7E5FD1F2320468DF8B5
:1034100017308DF814408DF815408DF816408DF852
:1034200018408DF819408DF81C408DF81D408DF81E
:103430001E408DF81F4008948DF824408DF82540DB
:103440008DF826408DF82740FCF772FF21468DF855
:1034500017009C48FCF740FF9B4E07AD8DF8180005
:1034600005A93046FCF78EFE4FF00209294630468A
:103470004FF4E0438DF81F408DF81E900893FCF741
:10348000B9FE924B05A8924F8DF814400693FDF7B4
:103490007DFB904B20462946B8468DF81C408DF8A0
:1034A0001D4009940893FDF729FB03AA204601213A
:1034B0004FF003038DF80C908DF80E908DF80F40AF
:1034C0008DF810408DF80D30FDF742FB38F8043BC5
:1034D00001262846ADF81C308DF81E608DF81D4081
:1034E000FDF712FEB8E80F00AE46AEE80F00DFF8B9
:1034F000FCB1D8F800304FF4E132CEF800304FF094
:10350000050A4FF48053294658460992ADF82C30ED
:10351000ADF82A408DF828408DF829A0FDF79AFED5
:10352000584605A98DF814408DF815408DF81640C1
:10353000FDF72EFFFFF7DEFD07F1040CAE46BCE8F9
:103540000F00AEE80F000BF5005BDCF800302946F9
:103550004FF4165C5846CEF80030CDF824C0CDF8B4
:1035600004C0FDF777FE5046334606210422FDF7DE
:1035700079FC50464A4633460721FDF773FCDBF8D9
:103580005420DFF86C81DDF804C007F12C0342F011
:103590000302CBF854200FCB85E80F004046CDF84E
:1035A00024C08DF81CA08DF828408DF829408DF896
:1035B0002A40FDF73FFD40462946FDF7F1FC042077
:1035C000334602460E21FDF74DFCDFF828A14A469E
:1035D000334604200F21FDF745FC4FF004094FF45A
:1035E000802340F2032240F2F971C8F834103A48BF
:1035F000CAF880313146CAF80030C8F83890C8F8A7
:103600005420FCF791FF324630463146FDF7F4F97D
:103610003B4653F83C0FA84659680823A8E8030026
:1036200029462E488DF81D408DF823408DF8214005
:103630008DF820408DF822408DF81F408DF81E40F7
:103640008DF82430FDF7C6FE2046314633460B2266
:10365000FDF708FC2046214633460B22FDF702FC0D
:103660001F4E07F148030FCB85E80F000323B36318
:1036700030462946FDF750FC1A4B57F8580FDE68C4
:10368000194AB7F808C097F80AE07968148046F03C
:1036900001062A4641F6583403C2A8F800C088F84B
:1036A00002E02946DE601846DC61FDF761FDCAF8DC
:1036B0000090FFF761FDFFF7A9FD0DB0BDE8F08FA9
:1036C00000800C40C0CF6A0000200040002600208F
:1036D0000C3C0000010008000023020000800840AC
:1036E00000A00040000001400027002000C0004072
:1036F0000040084000E100E0054B4FF480721B6879
:10370000012B044B0CBFC3F88020DA67704700BF61
:10371000200F0C4200600040104910B4D1F8140191
:103720000F4BB0F5004F0FD05A880E494FF461701F
:10373000A1FB0241490A00FB112292B20AB90122FF
:103740001A745DF8044B70475A880024013292B213
:103750001C805A80C1F81C01E7E700BF00600040F0
:1037600000270020C5B3A291034A044B01219161B7
:103770001A880A441A807047000001400027002080
:1037800038B5064D4FF48074FFF770F9044B013BD8
:10379000FDD1C5F88040FFF7AFFFF5E700600040BE
:1037A000A1860100F0B5594B87B01B681B0E40F095
:1037B0009180574A574B116821F0700111601A68C7
:1037C00022F060421A601A6862F060621A60514A20
:1037D000514817685149524E524D534C002327F41B
:1037E000FC57176033602B60236003600B6004A8F4
:1037F000FDF7A4FC9DF81130012B75D04B4A4C4BC2
:1038000012689A4220D8474B4A4A18684A4940F4FD
:1038100090401860106814681668156806F4FE4237
:1038200005F07F0504F07F042A4342EA0442C0F316
:10383000062042EA0060414A08601168404A11606F
:103840001A6822F490421A60FFF7D0FD0320082185
:1038500004220123FDF706FB042002460621002373
:10386000FDF700FB0420024607210023FDF7FAFACA
:10387000012304220E210220FDF7F4FA00F084F85F
:1038800000200146FDF738FE0320FDF789FE0021E8
:1038900003220120FEF714F82A4B002118600322AE
:1038A0000120FEF70DF8284B0021186003220120AB
:1038B000FEF706F825490023012208608DE80C0078
:1038C00002930393224996222248FEF7EDFBFEF76E
:1038D000DFFCFEE7032B7FF67AAF04A8FDF72EFC92
:1038E0009DF81130012B89D19DF8103053B90C4B44
:1038F0001A6842F002021A600A4B1A6842F001028A
:103900001A607BE7012B3FF679AFF5E7FC81E00F0A
:103910000CA00C4020600C4060800C4078800C4073
:1039200040800C4044800C4058800C40F081E00FF7
:10393000FFB98A4CB481E00F34200040C881E00F09
:103940002C400040D02D0020DC2D0020D82D002060
:10395000703C000081370000064880470649074A4E
:10396000074B9A42BEBF51F8040B42F8040BF8E72C
:10397000FCF7CEFB253B0000943C0000000000203B
:103980007C000020FEE700BF274AD36A03F470538F
:10399000B3F5805F25D0B3F5005F1FD0B3F5006F9E
:1039A00011D0D36803F4E063B3F5007F3AD01BD99C
:1039B000B3F5806F34D0B3F5A06F2FD0B3F5407F4F
:1039C00020D0002101E0194B1968174A184B5068A4
:1039D00000F00F0021FA00F018607047154B1968CD
:1039E000F3E74FF40041F0E773B1B3F5807FE8D11E
:1039F000114B124AD96C124BB1F1985F34BF11468A
:103A00001946E2E70F49E0E70B4B0F4AD96C0F4B21
:103A1000B1F1985F34BF11461946D6E70C49D4E797
:103A20000C49D2E70C49D0E700800C400C00002084
:103A3000E02D002008000020B081E00FC0CF6A0018
:103A400040B56400809FD50040420F00804F1200B7
:103A5000003FAB01406F4001C0D8A700004870474D
:103A60000048E801234AD36A03F47053B3F5805F3A
:103A70001DD0B3F5005F17D0B3F5006F11D0D36838
:103A800003F4E063B3F5007F32D013D9B3F5806F50
:103A90002CD0B3F5A06F27D0B3F5407F18D000200D
:103AA0007047154B18687047144B186870474FF4EF
:103AB0000040704773B1B3F5807FF0D1104B114ACD
:103AC000D86C114BB0F1985F34BF10461846704760
:103AD0000E4870470A4B0E4AD86C0E4BB0F1985FF7
:103AE00034BF1046184670470B4870470B48704764
:103AF0000B48704700800C400C000020080000209C
:103B0000B081E00FC0CF6A0040B56400809FD5004F
:103B100040420F00804F1200003FAB01406F400158
:103B2000C0D8A700704700BF4FF40040704700BFE7
:103B3000014B1868704700BF0800002008B5074B0C
:103B4000044613B10021AFF30080054B1868836A67
:103B500003B19847204600F03DF800BF0000000088
:103B6000843C000070B50E4B0E4D0024ED1AAD10D4
:103B70001E46AC4204D056F8242090470134F8E7A2
:103B800000F02AF8084D094B0024ED1AAD101E462E
:103B9000AC4204D056F8242090470134F8E770BDB9
:103BA00070000020700000207400002070000020D1
:103BB00010B50023934203D0CC5CC4540133F9E721
:103BC00010BD02440346934202D003F8011BFAE7FA
:103BD00070470000FEE700BFF8B500BFF8BC08BCA6
:103BE0009E467047F8B500BFF8BC08BC9E467047BB
:103BF00008091108546D725100000000546D7220C4
:103C00005376630054696D65723100000100010054
:103C1000050000000000000000C2010000050000D7
:103C200000100000050000000000000040420F00EE
:103C30000501000000000000050000000000000079
:103C400080250000000000000100000000000000CE
:103C50000F0000000101000000000000486B01009F
:103C60000000000000010100000000000000000052
:103C70004379636C65536572766963650000000083
:0C3C8000430000001000002000000000C5
:083C8C0084C4FF7F0100000069
:103C9400AAAAAAAAFFFFFFFF008000000048E801CB
:103CA4000000000000000000000000000000000010
:103CB4000000000000000000000000000000000000
:103CC400803C000000000000000000000000000034
:103CD40000000000000000000000000000000000E0
:103CE40000000000000000000000000000000000D0
:103CF40000000000000000000000000000000000C0
:0C3D0400E1000000BD0000000000000015
:040000030000395967
:00000001FF
