:100000000040002055660000816600008166000007
:100010008166000081660000816600008166000044
:10002000816600008166000081660000152D0000D9
:100030008166000081660000A92E0000ED2E000000
:10004000D50F000081660000796100008166000024
:100050008166000081660000816600008166000004
:100060008166000019610000816600008166000061
:1000700081660000816600008166000081660000E4
:1000800075620000356200009D610000816600001D
:1000900081660000816600008166000081660000C4
:1000A00081660000816600008166000081660000B4
:1000B00081660000816600008166000010B5054C75
:1000C000237833B9044B13B10448AFF30080012304
:1000D000237010BD0001002000000000A477000084
:1000E00008B5064B1BB106480649AFF30080064829
:1000F000036813B1054B03B1984708BD0000000029
:10010000A477000004010020780000200000000017
:10011000154B002B08BF134B9D46A3F5803A0021D9
:100120008B460F461348144A121A07F0C2FA0F4BB7
:10013000002B00D098470E4B002B00D09847002092
:10014000002104000D000D48002802D00C48AFF338
:10015000008007F07FFA2000290006F0D1F907F0AF
:1001600065FA00BF00000800004000200000000009
:100170000000000000010020D02700200000000047
:100180000000000080B487B000AF786013460A46D4
:10019000FA70BB70BB78002B04D01023FB603E4B81
:1001A0003B6103E00023FB603C4B3B617B685A6B87
:1001B0003B691340BB6000237B61FB78062B5BD857
:1001C00001A252F823F000BFE50100000302000085
:1001D00027020000450200007902000079020000B9
:1001E000690200002E4B5B6803F4FE437A691343F7
:1001F0007B612B4B5B6803F07F037A6913437B6160
:100200003DE0274B5B6803F0FE431B0E1B027A693F
:1002100013437B61224B5B6803F4FE031B0C7A697A
:1002200013437B612BE01E4B9B6803F4FE437A690A
:1002300013437B611A4B9B6803F07F037A69134376
:100240007B611CE0164B9B6803F0FE431B0E1B02F8
:100250007A6913437B61124B9B6803F4FE031B0C0A
:100260007A6913437B610AE00D4BDB6803F07F037F
:100270007A6913437B6102E000237B6100BFFB6866
:100280007A699A40BB681A437B685A631C37BD463B
:100290005DF8047B704700BFFFFF80808080FFFF18
:1002A000B081E00F80B584B000AF786039603B6802
:1002B0001B79FB72FB7A002B06D11B48002100F052
:1002C00085F80346FB7208E01748002100F07EF82D
:1002D0004FF4FA40002100F079F87B680A225A6056
:1002E0003B681B781A063B68DB781B0403F4F813A1
:1002F0001A43FB7A1B0203F4FE431A433B685B7804
:100300001B011A433B689B781343FB603B685B7996
:10031000002B03D0FB6843F00803FB607B68FA689E
:100320001A601037BD4680BD405DC60080B584B000
:1003300000AF786039607B6808225A603B689B7820
:10034000786819460122FFF71DFF3B681B781A07E2
:100350003B685B781B0513431A463B685B681A438E
:100360003B68DB781B011343FB603B685B7A002B27
:1003700003D0FB6843F08073FB603B689B7A002BE3
:1003800003D0FB6843F00403FB603B681B7A002B3F
:1003900003D0FB6843F00203FB603B68DB7A002B71
:1003A00003D0FB6843F00103FB603B689B781B04B0
:1003B000FA681343FB603B685B68FA681343FB60B1
:1003C0007B68FA681A611037BD4680BD80B584B07D
:1003D00000AF786039607A68134B9A4202D9124BA9
:1003E0007B6006E07B68B3F5FA4F02D24FF4FA4324
:1003F0007B603B68002B03D10C4800F08BFA38601F
:100400003A687B6813445A1E7B68B2FBF3F3FB60C7
:10041000FB68002B02D0FB68013BFB60FB68DBB292
:1004200018461037BD4680BD405DC60040810400BF
:1004300080B582B000AF78607B68002B08D10E4891
:1004400000F068FA78607B68002B01D101237B60A3
:100450007B6803F5742303F23F237B607A68074BC4
:10046000A3FB02139B0C7B607B68DBB2013BDBB21E
:1004700018460837BD4680BD4081040083DE1B431B
:1004800080B487B000AFF860B9607A60FB6803F1B0
:100490000473DA00BB6813449B007B617B697A6854
:1004A0001A601C37BD465DF8047B704780B485B088
:1004B00000AF786039607B6803F10473DA003B6851
:1004C00013449B00FB60FB681B6818461437BD464D
:1004D0005DF8047B704700BF80B485B000AF7860E2
:1004E0007B68002B04D07B68B3F5004F00D800BFB9
:1004F0007B68B3FA83F3C3F11F03FB60FB68184604
:100500001437BD465DF8047B704700BF80B483B0EC
:1005100000AF044B7B607B6818460C37BD465DF826
:10052000047B7047809FD50080B582B000AF0D4836
:1005300000F08EFA0346FB70FB78072B05D0082BE2
:1005400007D106F0D1F8786006E0FFF7DFFF7860AA
:1005500002E000237B6000BF7B6818460837BD4679
:1005600080BD00BF06000C0080B485B000AF78608D
:10057000214BDB6B002B0CBF00230123BB721E4BF6
:1005800041F67132DA631C4B5B6803F00703FB60D2
:10059000FB68012B02D80023FB7202E00123FB72EF
:1005A00000BF7A68154B9A420BD87A68144B9A426E
:1005B00007D9FB7A002B01D0032300E00123FB6065
:1005C00006E0FB7A002B01D0022300E00023FB6051
:1005D000094B094A526822F00701FA680A435A6037
:1005E000BB7A002B02D0044B0022DA631437BD46DD
:1005F0005DF8047B704700BF00000C400048E80134
:100600000024F40080B500AF06F064F803461846F5
:10061000FFF7AAFF80BD00BF80B584B000AF78604F
:100620000023BB607B68254A934203D0244A93424F
:1006300000D000E000BF786800F00AFA0346FB60D3
:100640007B681E4A934203D01D4A934206D00CE0B9
:100650001C4B9B6A03F00303FB6006E0194B9B6A8B
:1006600003F00C039B08FB6000BFFB68032B1CD846
:1006700001A252F823F000BFA50600008906000081
:10068000910600009906000006F0ACF8B8600FE093
:1006900006F0B2F8B8600BE006F002F803465B081B
:1006A000BB6005E00023BB6002E00023BB6000BF2D
:1006B000BB6818461037BD4680BD00BF0200180059
:1006C00003001A0000800C4080B483B000AF786053
:1006D000094B5B6D03F00103002B00D006E000BF67
:1006E000054B1A6D7B681340002BF9D10C37BD46C2
:1006F0005DF8047B704700BF00800C4080B584B07B
:1007000000AF786039607B681B0903F00F03FB6062
:10071000FB68043B032B00F2918001A252F823F006
:10072000310700005B07000095070000E9070000A3
:100730003B68002B04D03B68B3F5007F00D800BFB6
:100740003868FFF7C9FE38603E4B3E4A926822F097
:100750000F013A680A439A6071E03B68002B04D0AD
:100760003B68B3F5007F00D800BFFFF74BFF386848
:10077000FFF7B2FE3860334B324A526822F00F0165
:100780003A680A435A6005F08BFFB860B868FFF713
:10079000EBFE54E07B682C4A934203D02B4A9342F1
:1007A00010D020E00420FFF78FFF3868FFF794FE99
:1007B0003860244B234A926E22F00F013A680A43B4
:1007C0009A6610E00420FFF77FFF3868FFF784FE89
:1007D00038601C4B1B4A926E22F0F0013A681201FD
:1007E0000A439A6600BF2AE07B68194A934203D005
:1007F000184A934210D020E04020FFF765FF386888
:10080000FFF76AFE38600F4B0E4A126F22F00301A9
:100810003A680A431A6710E04020FFF755FF38682E
:10082000FFF75AFE3860074B064A126F22F030017C
:100830003A6812010A431A6700BF00E000BF103790
:10084000BD4680BD00800C4060061000601612009E
:10085000700714007017160080B586B000AF78607E
:100860000B46FB7000233B617B681B0A03F00F0300
:10087000013B092B3ED801A252F823F0AB0800003F
:10088000B1080000A5080000F5080000F508000008
:10089000B7080000C1080000F5080000F5080000D6
:1008A000CB080000154B7B6112E0154B7B610FE01C
:1008B000144B7B610CE0144B7B6101233B6107E02F
:1008C000124B7B6110233B6102E0114B7B6100BF47
:1008D0007B681B0B03F01F03FB603B69002B02D0FE
:1008E0003869FFF7F1FEFB787869F9681A46FFF777
:1008F000C7FD00E000BF1837BD4680BD40800C40FA
:1009000008800C4044800C4058800C4060800C40B3
:1009100078800C4080B584B000AF78607B6803F4C9
:100920007813B3F5801F42D0B3F5801F12D8B3F50A
:10093000802F27D0B3F5802F05D8002B1ED0B3F51C
:10094000003F2BD076E0B3F5402F6BD0B3F5602F8E
:100950006CD06FE0B3F5B01F56D0B3F5B01F06D81A
:10096000B3F5901F30D0B3F5A01F40D062E0B3F5CF
:10097000C01F17D0B3F5D01F34D05BE005F0B4FE34
:10098000F8605AE005F0B0FEF8602E4B9B6803F06B
:100990000F03FA6822FA03F3FB604EE005F080FED5
:1009A000F8604AE02848FFF737FEF86045E026483F
:1009B000FFF732FEF860234B9B6E03F00F03FA68DB
:1009C00022FA03F3FB6038E01F48FFF725FEF860CA
:1009D0001C4B9B6E03F0F0031B09FA6822FA03F329
:1009E000FB602AE01948FFF717FEF86025E017487A
:1009F000FFF712FEF860134B1B6F03F00303FA6856
:100A000022FA03F3FB6018E01048FFF705FEF860D8
:100A10000C4B1B6F03F030031B09FA6822FA03F337
:100A2000FB600AE0FFF780FDF86006E0FFF76EFD6F
:100A3000F86002E00023FB6000BFFB681846103737
:100A4000BD4680BD00800C400200180003001A0063
:100A500080B485B000AF78600123FB737B6803F03E
:100A60000F03BB60BB68013B052B5BD801A252F8AA
:100A700023F000BF8D0A0000C30A0000F10A000045
:100A8000250B0000250B00001F0B00002A4BDB6A22
:100A900003F47053B3F5805F09D0B3F5005F03D062
:100AA000B3F5006F06D008E00223FB7308E00323D0
:100AB000FB7305E00423FB7302E00523FB7300BF17
:100AC00033E01D4B9B6A03F00303022B06D0032B7C
:100AD00007D0012B08D10323FB7308E00223FB732B
:100AE00005E00623FB7302E00123FB7300BF1CE05B
:100AF000114B9B6A03F00C03082B06D00C2B07D07C
:100B0000042B08D10323FB7308E00223FB7305E0E9
:100B10000623FB7302E00123FB7300BF05E00723FC
:100B2000FB7302E00023FB7300BFFB7B1846143706
:100B3000BD465DF8047B704700800C4080B588B0EE
:100B400000AF78600B46FB700323FB610323FB7649
:100B50007B6803F00F033B613B69012B04D0012B41
:100B60007FD3032B7DD837E0FB78023B032B7AD869
:100B700001A252F823F000BF890B0000930B000084
:100B80009D0B0000A70B00000423FB610023FB76F4
:100B90000EE00323FB610123FB7609E00223FB61E6
:100BA0000223FB7604E00123FB610323FB7600BFF5
:100BB000FB7E18460121012200F0C6F8FFF722FD56
:100BC0002C4BFA695A6200F007FD05F069FDF860E8
:100BD000F868FFF7C9FC49E0FB78013B052B44D8D6
:100BE00001A252F823F000BF010C0000070C000026
:100BF000170C00006B0C00006B0C0000270C0000B1
:100C000000237B6117E000200121012200F09CF805
:100C100002237B610FE001200121012200F094F802
:100C200001237B6107E0144802210122FFF728FC21
:100C300003237B6100BF3B69022B08D10D4B0D4A9A
:100C4000926A22F003017A690A439A620EE0094B24
:100C5000084A926A22F00C017A6992000A439A6269
:100C600004E000BF02E000BF00E000BF2037BD4647
:100C700080BD00BF00800C4040800C4080B586B035
:100C800000AF0346FB71FB79052B54D801A252F843
:100C900023F000BFAD0C0000B70C0000C50C000035
:100CA000D30C0000DD0C0000E70C0000244BDB6AD5
:100CB000DBB27B611EE0224BDB6A03F47F431B0A3D
:100CC0007B6117E01E4BDB6A03F47F031B0C7B6127
:100CD00010E01B4BDB6A1B0E7B610BE0184B1B6BA0
:100CE000DBB27B6106E0164B1B6B03F47F431B0AF0
:100CF0007B6100BF0120FFF7ABFE0346FB74FB7C6A
:100D0000052B01D1FFF77EFC0E4A0E4BDB6823F466
:100D1000FF6323F00703F979090219437B690B4349
:100D2000D360FB7C052B07D105F0BAFCF860F868AE
:100D3000FFF71AFC00E000BF1837BD4680BD00BFBA
:100D4000B081E00F00800C4080B586B000AF134644
:100D50000246FA710A46BA717B71FB79042B4AD8B4
:100D600001A252F823F000BFB50D0000A70D00004E
:100D70008B0D00007D0D0000990D000001233B61EB
:100D80000223FB6001237B611DE004233B610823F8
:100D9000FB6003237B6116E010233B612023FB6093
:100DA00005237B610FE040233B618023FB60072329
:100DB0007B6108E04FF480733B614FF40073FB608C
:100DC00009237B6100BFBB79002B0ED00C4B3A6925
:100DD0001A627B79002B0BD000BF0A487969FFF7B4
:100DE00065FB0346002BF8D002E0054BFA681A6257
:100DF00000F0F2FB00E000BF1837BD4680BD00BF29
:100E000000800C402C800C4080B483B000AF0346BF
:100E1000FB71084B97F907205209F97901F01F017E
:100E2000012000FA01F143F822100C37BD465DF8AD
:100E3000047B704700E100E080B483B000AF03465C
:100E4000FB71094B97F907205209F97901F01F014D
:100E5000012000FA01F1203243F822100C37BD4680
:100E60005DF8047B704700BF00E100E080B483B010
:100E700000AF0346FB71094B97F907205209F97936
:100E800001F01F01012000FA01F1603243F8221045
:100E90000C37BD465DF8047B704700BF00E100E001
:100EA00080B487B000AFF860B9607A60FB6803F186
:100EB0000473DA00BB6813449B007B617B697A682A
:100EC0001A601C37BD465DF8047B704780B489B05A
:100ED00000AF7860F970BA707B707B681A013C4B88
:100EE0009B681344BB61BB78002B02D0BB69FB61DC
:100EF00005E07B681A01364BDB681344FB61BB6974
:100F0000DB687B617B69002B02D0BA787B691A723F
:100F1000FB6A002B14D0FB699B6803F040639B0EB7
:100F20003B613B69032B03D1FB69FA6A1A6007E056
:100F30003B693A6B9A40FB6A13441A46FB691A6094
:100F4000BB6A002B12D0FB699B689B0F3B613B691E
:100F5000032B03D1FB69BA6A5A6007E03B693A6B1D
:100F60009A40BB6A13441A46FB695A607B680122A7
:100F700002FA03F3FB607B78002B03D0144BFA6872
:100F80009A6102E0124BFA68DA61BB78002B03D059
:100F90000F4BFA685A6302E00D4BFA681A63FB695B
:100FA0009B6823F47F5323F03703BB603B6B1B012B
:100FB000BA681343BB60FB78BA681343BB60FB6934
:100FC000BA689A602437BD465DF8047B704700BF5D
:100FD00000200C4080B58AB000AF334B03F580533E
:100FE0001B68BB61304B03F580530C331B68BA6937
:100FF0001340BB612C4B9B6B7B61BA697B691340CF
:101000003B620023FB6149E000237B623BE03B6ADB
:1010100003F00103002B30D0234B9B683B6101227E
:101020007B6A02FA03F3FB601F4B03F5805308331E
:10103000FA681A607B6A1B013A691344DB68BB607B
:10104000BB68002B19D0BB681B7A7B60BB681B7A1E
:1010500083F00103DAB2BB681A72BB681B68002B0D
:101060000BD0BB681B68786A7A68002A0CBF002224
:101070000122D1B2BA68526898473B6A5B083B626A
:101080007B6A01337B623B6A002BC0D17B69DA4308
:10109000BB6913403B62FB690133FB61FB69012BB8
:1010A000B2DD2837BD4680BD00200C4080B588B039
:1010B00004AFF8607B600B46FB721346BB72FA7A92
:1010C000BB7A79680091B9690191F9690291F86870
:1010D0000121FFF7FBFE044BFA68012101FA02F23D
:1010E0009A621037BD4680BD00200C4080B584B0A8
:1010F00000AF786039601F4B9B68FB607B681B0109
:10110000FA6813443A689268DA603B681B78002BEF
:1011100006D0184B7A68012101FA02F29A6305E0C1
:10112000144B7A68012101FA02F2DA63114B3A6832
:1011300051687A6802F5886243F822103B685B7850
:10114000002B0ED00B4B7A68012101FA02F203F555
:10115000805308331A60084879680122FFF7A0FE1F
:1011600004E0054879680022FFF79AFE1037BD4673
:1011700080BD00BF00200C400C300C4080B487B014
:1011800000AFF8600B467A60FB72FB7A002B03D04D
:10119000154B9B687B6102E0134BDB687B61FB684E
:1011A0001B017A6913447B617B681B789A077B6813
:1011B0009B781B071A437B685B789B061A437B6806
:1011C0009B781B0613431A467B681B799B041A43C2
:1011D0007B68DB789B031A437B699A601C37BD46AA
:1011E0005DF8047B704700BF00200C4080B582B0E2
:1011F00000AF786010480121FFF72EFB00F020F8C7
:101200000020FFF733FE0020FFF7FEFD0B4B03F538
:1012100080530C334FF000421A60084B7A685268D2
:101220009A60064B7A681278520142F001025A60C5
:101230000837BD4680BD00BF0013020000200C40EF
:1012400080B582B000AF0020FFF7F6FD194B0022F9
:101250005A60184BFF22DA61164BFF225A62154B77
:10126000FF22DA62134BFF225A63124BFF22DA632A
:10127000104B0122DA640F4B03F580530C3300222C
:101280001A600C4B03F5805308330B4A1A60002395
:101290007B6009E0074B7A6802F58862002143F819
:1012A00022107B6801337B607B68072BF2DD0837F7
:1012B000BD4680BD00200C40FF00008080B500AF1F
:1012C00005F0EEF980BD00BF80B400AF034B4AF6D5
:1012D000E8529A60BD465DF8047B704700600C40A0
:1012E00080B400AF034B0022C3F88420BD465DF8F4
:1012F000047B704700800C4080B400AF044B45F67F
:101300000E02C3F88420BD465DF8047B704700BF21
:1013100000800C4080B582B000AF384BD3F88430E9
:1013200003F001037B60FFF7E7FF00233B60344BD2
:101330001B6803F001033A6813433B60304B1B68A2
:1013400003F010033A6813433B602D4B1B6803F016
:1013500040033A6813433B60294B1B6803F00403C6
:101360003A6813433B60264B1B6803F480733A686A
:1013700013433B60214B3A681A62214B1B6803F40C
:101380007053B3F5805F06D0B3F5005F0ED0B3F5B0
:10139000006F16D020E000BF184BDB6A03F080031B
:1013A000002BF9D0154B03225A6215E000BF134BF6
:1013B000DB6A03F40073002BF9D0104B04225A624D
:1013C0000AE000BF0D4BDB6A03F00803002BF9D0E5
:1013D0000A4B02225A6200BF094B1B6803F001034B
:1013E000002B02D1054B02221A627B68002B01D030
:1013F000FFF776FF0837BD4680BD00BF00800C4078
:101400001C01002080B483B000AF144B1B699BB259
:1014100003F03F039BB21B02FB80104B9B699BB206
:1014200003F0F0039AB2FB881343FB800B4BDB699C
:1014300003F0F0031B099AB2FB881343FB80FA8880
:1014400040F203139A428CBF00230123DBB21846FB
:101450000C37BD465DF8047B704700BFD0FF0FE03E
:1014600080B586B000AF0346FB71194BDA6A194BA1
:101470001A60194B184A126942F004021A61FFF708
:10148000C1FF0346FB75FB7D002B08D0134B1A6888
:10149000134B1340FB60114BFA68C3F8802030BF38
:1014A000FB7D002B02D00D4BFA681A60FB79002BF4
:1014B00002D0FFF72FFF07E0064B1B6803F48063A1
:1014C000002B01D1FFF7FAFE1837BD4680BD00BFE3
:1014D00000800C401C01002000ED00E000E100E075
:1014E000DCFC03F280B586B000AF0346FB71214BF4
:1014F000DA6A214B1A601F4BD3F8843003F00103E2
:101500007B61FFF7F9FE1B4B4FF420721A627B6977
:10151000002B01D0FFF7E4FE184B184A126942F085
:1015200004021A61FFF76EFF0346FB74FB7C002B7D
:1015300008D0134B1A68134B1340BB60104BBA68AA
:10154000C3F8802030BFFB7C002B02D00C4BBA6864
:101550001A60FB79002B02D0FFF7DCFE07E0064B98
:101560001B6803F48063002B01D1FFF7A7FE183737
:10157000BD4680BD00800C401C01002000ED00E055
:1015800000E100E0DCFC03F280B584B000AF114B59
:101590001B6823F00C0343F00803BB600D4B1B6872
:1015A00043F00C037B60FFF78FFE0023FB6008E035
:1015B000084BBA681A60074B7A681A60FB680133F7
:1015C000FB60FB68032BF3DD024BBA681A6010372F
:1015D000BD4680BD00600C4080B400AF034BDA6AAA
:1015E000034B1A60BD465DF8047B704700800C40D9
:1015F0001C01002080B487B000AFF860B9607A6049
:10160000FB6803F10473DA00BB6813449B007B6141
:101610007B697A681A601C37BD465DF8047B7047A9
:1016200080B485B000AFF860B9607A60FB681A6872
:10163000BB68DB431A407B681A43FB681A601437A7
:10164000BD465DF8047B704780B483B000AF0346AD
:101650003960FB71FB79002B0DD0FB79012B0AD08F
:10166000FB79022B07D0FB79032B04D0FB79042BE9
:1016700001D0FB79052B0948FA793B68012101FA71
:1016800003F319461346DB0013449B000344103355
:1016900059600C37BD465DF8047B70470060004020
:1016A00080B483B000AF03463960FB71FB79002B37
:1016B0000DD0FB79012B0AD0FB79022B07D0FB79E7
:1016C000032B04D0FB79042B01D0FB79052B0948AF
:1016D000FA793B68012101FA03F319461346DB004E
:1016E00013449B000344103319600C37BD465DF86A
:1016F000047B70470060004080B586B000AFB960E1
:101700007A600246FA73BB73FB7B002B0DD0FB7B28
:10171000012B0AD0FB7B022B07D0FB7B032B04D0D1
:10172000FB7B042B01D0FB7B052BBB68072B0ED862
:10173000BB689B0007229A40F97BBB689B0001FABB
:1017400003F31A4811461A46FFF76AFF10E0BB6818
:10175000083B7B617B699B0007229A40F97B7B6990
:101760009B0001FA03F3124811461A46FFF758FF8F
:10177000BB7B1048B9681A46FFF73CFF97F820304A
:101780000D48B9681A46FFF735FF0C4BBA680121BE
:1017900001FA02F2C3F81C2197F824300848B9680E
:1017A0001A46FFF727FF1837BD4680BD006100408D
:1017B00004610040086100400C610040006000408E
:1017C0001061004090B585B000AFB9607B60034602
:1017D000FB731346BB73FB7B002B0DD0FB7B012BF4
:1017E0000AD0FB7B022B07D0FB7B032B04D0FB7BB7
:1017F000042B01D0FB7B052BBB7B002B0DD07B6822
:10180000002B05D0FB7B1846B968FFF749FF04E0C1
:10181000FB7B1846B968FFF717FFBB68072B1DD87D
:101820002B48FA7B2A4CF97B0B46DB000B449B00D0
:1018300023445968BB689B000F2404FA03F3DB437D
:101840001940BC7BBB689B0004FA03F319431346A1
:10185000DB0013449B000344596024E01C48FA7BDE
:101860001B4CF97B0B46DB000B449B0023440833E5
:101870001968BB6803F18043083B9B000F2404FAFE
:1018800003F3DB431940BC7BBB6803F18043083B97
:101890009B0004FA03F319431346DB0013449B0037
:1018A000034408331960BB7B002B0DD17B68002BF0
:1018B00005D0FB7B1846B968FFF7F2FE04E0FB7B1E
:1018C0001846B968FFF7C0FE1437BD4690BD00BF8B
:1018D0000060004080B487B000AFF860B9607A6003
:1018E000FB6803F10473DA00BB6813449B007B615F
:1018F0007B697A681A601C37BD465DF8047B7047C7
:1019000080B485B000AFF860B9607A60FB681A688F
:10191000BB68DB431A407B681A43FB681A601437C4
:10192000BD465DF8047B704780B588B000AFF860B5
:10193000B9607A60FB707B68002B00D15EE0FB68C9
:101940001B6823F44072FB681A60FA68FB781B027C
:1019500010464FF440711A46FFF7D2FFBB68002BC8
:1019600003D12848FEF7D6FFB8604FF0FF33BB61C4
:10197000FB681B6803F00203002B11D0FB78012BDE
:1019800007D0022B08D0002B00D019E01E4BBB6102
:1019900005E01E4BBB6102E01D4BBB6100BF0FE0C9
:1019A000FB78012B06D0022B07D0002B08D1194B56
:1019B000BB6105E0184BBB6102E0184BBB6100BF87
:1019C000FB78174AD35C7B617B689B00BA68D21AAC
:1019D0007B69796801FB03F3B2FBF3F3013BFB6125
:1019E000FB681B6803F00203002B04D0FB69002B8B
:1019F00001D10123FB61FA69FB681A612037BD46FA
:101A000080BD00BF4081040040164000C0D8A70040
:101A10008050740180841E0040548900002D3101E3
:101A2000E076000080B582B000AF786039607B68F6
:101A300000225A637B68114A1A637A683B685B78B4
:101A4000002B01D0002300E00123104601211A469B
:101A5000FFF740FF3B6859683B689A683B681B7B0F
:101A60007868FFF761FF7A683B681B7810460021B1
:101A70001A46FFF72FFF0837BD4680BDCFFF010094
:101A800080B489B000AF78607A68A34B9A4205D1E0
:101A9000A24BBB61BB699B687B6101E0FC23F8E161
:101AA0007B689B6A3B613B6903F4C063002B14D0E5
:101AB0003B6903F40073002B03D0BB69FD225A700D
:101AC00007E03B6903F48063002B02D0BB69FE2270
:101AD0005A70BB6909221A70C7E1BB691B78082BD1
:101AE00000F2BB8101A252F823F000BF111B0000DD
:101AF000631B0000E91B00003B1C00008D1C000064
:101B0000DF1C00006F1D0000AD1D00003F1E000027
:101B10007B695B8803F01003002B09D07B691B886D
:101B20001B0A9BB203F0060343F0F003FB610EE0D7
:101B30007B691B8803F0FE03FB617B695B8803F014
:101B40000203002B03D0FB6943F00103FB61BB6977
:101B500001221A707B68FA695A627B6801225A6016
:101B600083E13B6903F08003002B0CD07B6880226B
:101B70001A63BB69FF225A70BB6908221A707B681E
:101B800002225A602FE03B6903F04003002B2AD069
:101B90007B6840221A637B695B8803F01003002B8B
:101BA00008D0BB6902221A707B691B88DAB27B6895
:101BB0005A6218E07B695B8803F00203002B0ED0A9
:101BC000BB6907221A70BB691B797A69DB00134471
:101BD0001B89012B07D17B6808225A6045E1BB694C
:101BE00005221A7040E140E13B6903F08003002BBD
:101BF0000CD07B6880221A63BB69FF225A70BB69D4
:101C000008221A707B6802225A6015E03B6903F0D3
:101C10004003002B10D07B6840221A637B695B88ED
:101C200003F00203002B03D0BB6903221A701BE1EF
:101C3000BB6905221A7017E117E17B695B8803F025
:101C40001003002B09D07B691B881B0A9BB203F091
:101C5000060343F0F003FB6104E07B691B8803F09B
:101C6000FE03FB617B695B8803F00403002B03D058
:101C7000FB6943F00103FB61BB6904221A707B68B6
:101C800001225A607B68FA695A62EEE03B6903F010
:101C90008003002B0CD07B6880221A63BB69FF2273
:101CA0005A70BB6908221A707B6802225A6015E0DC
:101CB0003B6903F04003002B10D07B6840221A637D
:101CC0007B695B8803F00403002B03D0BB69072208
:101CD0001A7003E0BB6905221A70C5E0C5E0BB6954
:101CE0005A88BB691B797969DB000B441B899A42CE
:101CF00028D3BB6900225A80BB691B790133DAB251
:101D0000BB691A717B695B8803F00403002B07D061
:101D1000BB6903221A70A7E000A000402001002048
:101D20007B695B8803F00103002B03D1BB691B793E
:101D3000012B06D9BB6908221A707B6802225A60FF
:101D400093E091E0BB691B797A69DB0013445A6820
:101D5000BB695B88591C88B2B969488013441B78F9
:101D60001A467B685A62BB6906221A707DE03B699D
:101D700003F08003002B0CD07B6880221A63BB69C0
:101D8000FF225A70BB6908221A707B6802225A60CF
:101D90000BE03B6903F04003002B06D07B68402238
:101DA0001A63BB6905221A705EE05EE03B6903F0CE
:101DB0002003002B42D0BB691B797A69DB001344F6
:101DC0001B89FB607B68DB69FB72BB695B881A4619
:101DD000FB689A420ED2BB691B797A69DB00134417
:101DE0005A68BB695B88591C88B2B969488013443A
:101DF000FA7A1A70BB695B881A46FB689A420CD360
:101E0000FB68012B02D17B6808225A60BB6908225B
:101E10001A707B6802225A6010E07B6804225A60C4
:101E2000FB68012B0AD9BB695B881A46FB68013B3A
:101E30009A4203D17B6808225A6016E015E03B699C
:101E400003F48073002B07D07B684FF480721A6311
:101E5000BB6909221A7008E007E0BB69FB225A70CF
:101E6000BB6909221A7000E01AE6BB691B78092BCE
:101E70000BD17B6800225A63BB695B785BB2012B94
:101E800005D1BB6900225A7001E0012301E0BB6962
:101E90005B785BB218462437BD465DF8047B70471B
:101EA00080B584B000AF786039607A68284B9A4278
:101EB00008D1284BFB607B689B6803F00103002B73
:101EC00005D001E0FC233DE07B6820225A603B689E
:101ED0005B8803F00203002B03D03B681B89002BB7
:101EE00009D03B685B8803F00403002B05D03B68F6
:101EF0001B8A002B01D1FC2324E0FB6800221A700E
:101F0000FB6801225A70FB6800225A80FB6800229D
:101F10001A71FB683A689A607B68C0225A607B68D5
:101F20009B6A03F02003002B01D07B68DB697B6890
:101F3000094A1A637B684FF4FC625A637868FFF7BA
:101F40009FFD03465BB218461037BD4680BD00BFFB
:101F500000A0004020010020CFFF010080B483B02A
:101F600000AF786039607B681B6C03F00103002BC5
:101F700000D006E000BF7B685A6C3B681340002B22
:101F8000F9D10C37BD465DF8047B704780B586B04B
:101F900000AFF860B9607A60BB68002B12D1FA68B4
:101FA000164B9A4202D1164B7B6107E0FA68154B3B
:101FB0009A4202D1144B7B6100E01BE07869FEF786
:101FC000A9FCB860BB685A017B68B2FBF3F33B61C4
:101FD0003B69203B3B613B69DB003B613A6947F66B
:101FE000F87313403B61F8680421FFF7B7FFFB6803
:101FF0003A69DA601837BD4680BD00BF004008402E
:1020000070071400004408407017160080B483B0B5
:1020100000AF78600B46FB70FB78002B08D000BF48
:102020007B685B6C002BFBD17B6801221A6402E0A9
:102030007B6800221A640C37BD465DF8047B70474C
:1020400080B582B000AF786039607A681B4B9A42E5
:1020500003D07A681A4B9A4200D100BF78680221F7
:10206000FFF77CFF7B680A225A6078680121FFF73E
:10207000CDFF7B681B6823F01C023B681B7B1A4367
:102080003B685B7B1A433B689B7B1A437B681A6007
:102090003B685A683B689B68786811461A46FFF7A8
:1020A00075FF3B681B781A467B685A607868002188
:1020B000FFF7ACFF0837BD4680BD00BF00400840B9
:1020C0000044084080B582B000AF78607A68174B52
:1020D0009A4203D07A68164B9A4200D100BF7868C2
:1020E0000121FFF793FF7B68EA225A607B68002298
:1020F0001A607B680022DA607B6800221A617B68C4
:1021000000225A617B6800229A637B6840F2F97270
:102110005A637B680022DA637B6800225A6578681C
:102120000021FFF773FF0837BD4680BD004008401F
:102130000044084080B582B000AF78600B46FB7069
:1021400000BF7B689B6803F01003002BF9D0786810
:102150004021FFF703FFFA787B689A620837BD4693
:1021600080BD00BF80B483B000AF7860094B1B6AAC
:1021700003F00103002B00D006E000BF054B5A6AB4
:102180007B681340002BF9D10C37BD465DF8047B0A
:10219000704700BF0000084080B584B000AF786091
:1021A0007B681B78002B02D00123FB6001E0002339
:1021B000FB607B685B78002B03D0FB6843F0020375
:1021C000FB607B689B78002B03D0FB6843F0040323
:1021D000FB600120FFF7C6FF024BFA681A60103758
:1021E000BD4680BD0000084080B485B000AF786077
:1021F000194B5B69DBB203F00F03DBB29B00FB738F
:10220000154B1B6903F0C0039B09DAB2FB7B134338
:10221000FB737B68FA7B9A700F4B1B69DBB203F090
:102220003F03DAB27B685A700B4B9B69DBB223F039
:102230000F03FB73084BDB6903F0F0031B09DAB2F1
:10224000FB7B1343FB737B68FA7B1A701437BD4624
:102250005DF8047B704700BFD0FF0FE080B483B00F
:1022600000AF786039607A68304B9A4207D07A685C
:102270002F4B9A4203D07A682E4B9A4200D100BF6E
:102280003B681B7883F00103DBB2002B02D07B6834
:1022900002225A607B6800225A623B689B781A06C9
:1022A0003B68DB781B041A433B681B799B021A438B
:1022B0003B685B791B021A433B689B791A433B6876
:1022C0005B78002B01D0402300E000231A433B68D9
:1022D000DB79002B01D0802300E000231A433B6808
:1022E0001B7A002B01D0202300E000231A433B6817
:1022F0005B7A002B01D0102300E000231A433B68D7
:102300009B7A002B01D0082300E000231A437B684E
:102310001A603B681B78002B02D07B6801225A6050
:102320000C37BD465DF8047B704700BF00000140DC
:10233000000401400008014080B485B000AFF8609F
:10234000B9607A60FA68294B9A4207D0FA68284B3C
:102350009A4203D0FA68274B9A4200D100BF7B68AB
:102360001B789A067B685B781B061A437B689B7810
:102370001B041A437B68DB781B031A437B681B79B9
:102380009B021A437B685B791B021A437B689B792B
:102390001A437B68DB79002B02D04FF4001300E076
:1023A00000231A437B681B7A002B02D04FF4801362
:1023B00000E000231A437B685B7A002B01D01023D6
:1023C00000E000231A437B689B7A002B01D0042392
:1023D00000E000231A43F968BB6803331B010B4478
:1023E0001A601437BD465DF8047B70470000014059
:1023F000000401400008014080B485B000AFF860DF
:10240000B9607A60FB681A68BB68DB431A407B6876
:102410001A43FB681A601437BD465DF8047B7047A9
:1024200080B586B000AFF860B9607A60FB70BB68B9
:10243000002B03D12448FEF76DFAB860FB78202BFF
:102440000CD0202B02DC002B05D03AE0402B08D02A
:10245000602B09D035E010237B6108E008237B6105
:1024600005E006237B6102E004237B6100BFBB68BB
:102470009A007B69796801FB03F35B0813443B61B5
:102480007B697A6802FB03F33A69B2FBF3F33B61C1
:102490003B69043B3B613B699B013B613A690B4BE8
:1024A00013403B61FB681B6823F06002FB681A6005
:1024B000FB681A68FB781A43FB681A60FB683A6984
:1024C0005A611837BD4680BD40810400C0FF1F001F
:1024D00080B586B000AFF860B9607A60BB68002B49
:1024E00003D11648FEF716FAB860BB685B007B6143
:1024F0007A687B691344013B7B617A697B68B2FB34
:10250000F3F37B617B69043B7B617B699B017B61AE
:102510007B69C0337B617B6923F0FF037B617A6950
:10252000074B13407B61FB681433184604497A69F2
:10253000FFF762FF1837BD4680BD00BF4081040031
:10254000C0FF1F0080B582B000AF786039607A6844
:10255000174B9A420BD07A68164B9A4207D07A688A
:10256000154B9A4203D07A68144B9A4200D100BFAF
:10257000786800F09BF83B685B7B1A463B681B8AD7
:102580001A433B68DB891A437B685A603B68596889
:102590003B689A683B681B7B7868FFF741FF3B68A4
:1025A0001B781A467B68DA600837BD4680BD00BFDD
:1025B00000C0004000C4004000C8004000E00040EF
:1025C00080B582B000AF786039607A68204B9A425B
:1025D00007D07A681F4B9A4203D07A681E4B9A4202
:1025E00000D100BF786800F061F87B681A683B682A
:1025F0001B8A43F001039BB219463B689B7B002B6F
:1026000002D04FF4806300E000230B431A437B6841
:102610001A603B681B7B43F480527B685A603B68BE
:102620005A683B689B68786811461A46FFF750FF66
:102630003B685B7B002B02D07B681022DA603B6832
:102640001B781A467B68DA600837BD4680BD00BF3C
:1026500000C0004000C4004000C8004080B485B005
:1026600000AF786039607B689B6823F03703FB60BC
:102670003B685B78002B03D0FB6843F02003FB60D2
:102680003B681B78002B03D0FB6843F01003FB6012
:102690003B689B78FA681343FB607B68FA689A6032
:1026A0001437BD465DF8047B704700BF80B483B02B
:1026B00000AF78607A681B4B9A420BD07A681A4B4D
:1026C0009A4207D07A68194B9A4203D07A68184B1D
:1026D0009A4200D100BF7B6840F6AA62DA607B684C
:1026E00000221A607B6841F205025A607B68002272
:1026F0009A607B6800225A617B680022DA647B68FA
:1027000041F6F9729A647B6800225A657A68054B33
:102710009A4202D17B6800221A650C37BD465DF8EB
:10272000047B704700C0004000C4004000C8004067
:1027300000E0004080B483B000AF78600B46FB70CF
:1027400000BF7B681B6903F04003002BF9D0FA78C7
:102750007B685A630C37BD465DF8047B704700BF49
:1027600080B483B000AF78607B681B6803F001031E
:10277000002B00D110E07B689B6803F00203002B64
:1027800000D009E000BF7B689B6803F00103002BC9
:10279000F9D17B6801225A600C37BD465DF8047B95
:1027A000704700BF80B485B000AF786039603B6887
:1027B0001B78002B02D00123FB6001E00023FB60AB
:1027C0003B685B78002B03D0FB6843F00203FB609F
:1027D0003B689B78002B03D0FB6843F00403FB604D
:1027E0003B68DB78002B03D0FB6843F00803FB60F9
:1027F0003B681B79002B03D0FB6843F02003FB6090
:102800003B685B79002B03D0FB6843F04003FB601F
:102810003B689B79002B03D0FB6843F01003FB60FF
:102820003B68DB791A033B681B7A1B021343FA6887
:102830001343FB6000BF7B689B6803F00103002B20
:10284000F9D17B68FA681A601437BD465DF8047BDD
:10285000704700BF80B500AF00F082F880BD00BFB8
:1028600080B400AF72B6084B1B68B3F1FF3F04D0D1
:10287000054B1B685A1C044B1A60034B1B68184617
:10288000BD465DF8047B70472C01002080B483B006
:1028900000AF0C4B1B68002B0DD00A4B1B685A1E57
:1028A000084B1A60074B1B687B607B68002B00D1CC
:1028B00062B67B6800E0002318460C37BD465DF821
:1028C000047B70472C01002080B487B000AFF86013
:1028D000B9607A60FB6803F10473DA00BB681344E3
:1028E0009B007B617B697A681A601C37BD465DF886
:1028F000047B704780B400AF054B054A126922F093
:1029000004021A6130BFBD465DF8047B704700BF0A
:1029100000ED00E080B500AF024801210122FFF781
:10292000D3FF80BD00600C4080B483B000AF7860FE
:102930003960084B7A681A60074B3A681A60074B8F
:1029400000221A70054B00225A700C37BD465DF804
:10295000047B704730010020340100203801002042
:1029600080B582B000AFFFF77BFF00F03BF8034675
:10297000FB71FB79002B07D0FB79032B04D8FB7983
:10298000184600F04FF801E00023FB71FFF77EFFCF
:10299000FB7918460837BD4680BD00BF80B582B0C0
:1029A00000AF0346FB71FB79012B03D9FB79032BA5
:1029B00000D800BFFB79022B02D0FB79032B0CD18E
:1029C000FB79023B064AD25C0132D1B2044AD154AF
:1029D000FB79022B01D1FFF79DFF0837BD4680BD73
:1029E0003801002080B483B000AF0123FB710C4B91
:1029F0001B78002B07D10223FB71094B5B78002B5E
:102A000001D10323FB71FB79032B01D90323FB7154
:102A1000FB7918460C37BD465DF8047B704700BF54
:102A20003801002080B582B000AF0346FB71FB790E
:102A3000002B03D0FB79042B00D800BF194B1B6877
:102A4000002B04D0174B1B68FA7910469847FB7986
:102A5000013B032B18D801A252F823F06D2A000085
:102A6000732A00007B2A0000832A0000FFF742FF40
:102A70000BE00120FEF7F4FC07E00120FEF732FD39
:102A800003E0FEF781FD00E000BF074B1B68002B51
:102A900004D0054B1B68FA79104698470837BD46A5
:102AA00080BD00BF300100203401002080B584B01B
:102AB00000AF78600023FB607B6803F00703002B06
:102AC00004D07B6823F0070308337B6000F0CCFE62
:102AD000164B1B68002B05D1154B23F007031A4634
:102AE000124B1A60134B1A687B681A4442F21F3368
:102AF0009A4213D80F4B1A687B681A440D4B1B6817
:102B00009A420BD9094B1A680A4B1B681344FB60A5
:102B1000084B1A687B681A44064B1A6000F0B2FE34
:102B2000FB6818461037BD4680BD00BF68240020F2
:102B3000440100206424002080B483B000AF78609A
:102B40000C37BD465DF8047B704700BF80B483B08E
:102B500000AF78607B6803F108027B685A607B688D
:102B60004FF0FF329A607B6803F108027B68DA60FD
:102B70007B6803F108027B681A617B6800221A6097
:102B80000C37BD465DF8047B704700BF80B483B04E
:102B900000AF78607B6800221A610C37BD465DF893
:102BA000047B704780B485B000AF786039607B6883
:102BB0005B68FB603B68FA685A60FB689A683B6830
:102BC0009A60FB689B683A685A60FB683A689A604A
:102BD0003B687A681A617B681B685A1C7B681A60BC
:102BE0001437BD465DF8047B704700BF80B485B0E4
:102BF00000AF786039603B681B68BB60BB68B3F1AD
:102C0000FF3F03D17B681B69FB600CE07B680833E6
:102C1000FB6002E0FB685B68FB60FB685B681A684E
:102C2000BB689A42F6D9FB685A683B685A603B68B1
:102C30005B683A689A603B68FA689A60FB683A6831
:102C40005A603B687A681A617B681B685A1C7B680B
:102C50001A601437BD465DF8047B704780B485B0B8
:102C600000AF78607B681B69FB607B685B687A6893
:102C700092689A607B689B687A6852685A60FB68C1
:102C80005A687B689A4203D17B689A68FB685A60ED
:102C90007B6800221A61FB681B685A1EFB681A6079
:102CA000FB681B6818461437BD465DF8047B704707
:102CB00080B485B000AFF860B9607A60FB68043B0F
:102CC000FB60FB684FF080721A60FB68043BFB609E
:102CD000BA68FB681A60FB68043BFB60094AFB6842
:102CE0001A60FB68143BFB607A68FB681A60FB683B
:102CF000203BFB60FB6818461437BD465DF8047B3B
:102D0000704700BF092D000080B500AF00F0BEF88D
:102D1000FEE700BF064B19680868B0E8F00F80F3C3
:102D20000988BFF36F8F4FF0000080F3118800BF58
:102D3000742400204EF00D0E704700BF0648006856
:102D4000006880F3088862B661B6BFF34F8FBFF3A7
:102D50006F8F00DF00BF000008ED00E080B584B099
:102D600000AF284BFB60FB681B78DBB2BB60FB68E5
:102D7000FF221A70FB681B78DBB2FB71FB79DBB2B8
:102D800023F04003DAB2204B1A70204B07221A605E
:102D900009E01E4B1B685A1E1C4B1A60FB79DBB204
:102DA0005B00DBB2FB71FB79DBB2DBB25BB2002B09
:102DB000EFDB164B1B681A02144B1A60134B1B688F
:102DC00003F4E062114B1A60BB68DAB2FB681A7058
:102DD0000F4B0F4A126842F47F021A600C4B0C4AE8
:102DE000126842F07F421A6000F09CF8094B002202
:102DF0001A60FFF7A3FFFFF787FF0023184610377D
:102E0000BD4680BD00E400E06C240020702400205A
:102E100020ED00E00000002080B400AF054B4FF033
:102E200080521A60BFF34F8FBFF36F8FBD465DF8BE
:102E3000047B704704ED00E080B500AF00F026F899
:102E4000074B1B685A1C064B1A60BFF34F8FBFF32A
:102E50006F8F034B1B68012B01D1024B1B6880BD98
:102E60000000002004ED00E080B500AF064B1B68B9
:102E70005A1E054B1A60044B1B68002B02D1002020
:102E800000F00EF880BD00BF00000020EFF31180BD
:102E90004FF0BF0181F3118870470023184600BF2F
:102EA00080F31188704700BFEFF30980BFF36F8F85
:102EB0000D4B1A6820E9F00F10602DE908404FF023
:102EC000BF0080F3118800F0F7FD4FF0000080F3A1
:102ED0001188BDE8084019680868B0E8F00F80F371
:102EE0000988BFF36F8F70477424002080B500AF4E
:102EF0000A4B5B695A1C094B5A61FFF78DFFFFF7BC
:102F0000C5FF00F04BFD0346002B03D0044B4FF0F0
:102F100080521A600020FFF7C3FF80BD0027002009
:102F200004ED00E080B400AF054B46F65F521A6036
:102F3000044B07221A60BD465DF8047B704700BF52
:102F400014E000E010E000E080B483B000AFEFF3E5
:102F500005837B607B680F2B04D9064A7B6813448A
:102F60001B78FB70044B1B680C37BD465DF8047B77
:102F7000704700BFF0E300E00CED00E080B584B0E6
:102F800000AF786039607B68FB60FFF755FFFB6836
:102F90001A68FB68DB6BF968096C01FB03F31A44E0
:102FA000FB685A60FB6800229A63FB681A68FB683A
:102FB0009A60FB681A68FB68DB6B013BF968096C77
:102FC00001FB03F31A44FB68DA60FB684FF0FF3241
:102FD0005A64FB684FF0FF329A643B68002B09D1BA
:102FE000FB681B69002B0FD0FB681033184600F0FC
:102FF0001FFE09E0FB6810331846FFF7A7FDFB68CA
:1030000024331846FFF7A2FDFFF72EFF01231846D1
:103010001037BD4680BD00BF80B588B000AFF860F6
:10302000B9601346FB710023FB61FB68002B26D0BF
:103030004C20FFF73BFDB861BB69002B1FD0FB683C
:10304000BA6802FB03F301337B617869FFF72EFD59
:103050000246BB691A60BB691B68002B0CD0BB69B8
:10306000FA68DA63BB69BA681A64B8690121FFF7C4
:1030700085FFBB69FB6102E0B869FFF75DFDFB6995
:1030800018462037BD4680BD80B58AB000AFF860D5
:10309000B9607A603B6000237B62FB683B62BB687F
:1030A000002B03D13B6A1B6C002B00D100BF3B6897
:1030B000022B03D13B6ADB6B012B00D100BF00F078
:1030C000D3FF0346002B02D17B68002B00D100BF49
:1030D000FFF7B2FE3B6A9A6B3B6ADB6B9A4202D304
:1030E0003B68022B12D1386AB9683A6800F08CF953
:1030F000F8613B6A5B6A002B04D03B6A24331846B4
:1031000000F096FDFFF7B0FE012359E07B68002B2D
:1031100003D1FFF7A9FE002352E07B6A002B06D102
:1031200007F11403184600F0D7FD01237B62FFF777
:103130009BFE00F099FBFFF77FFE3B6A5B6CB3F1EF
:10314000FF3F02D13B6A00225A643B6A9B6CB3F199
:10315000FF3F02D13B6A00229A64FFF785FE07F128
:1031600014023B1D1046194600F0CCFD0346002B0F
:103170001ED1386A00F03EFA0346002B12D03B6A9B
:1031800003F110027B681046194600F0DFFC386A34
:1031900000F0CEF900F076FB0346002B0FD1FFF7CD
:1031A0003BFE0CE0386A00F0C3F900F06BFB8FE7E0
:1031B000386A00F0BDF900F065FB002300E087E706
:1031C00018462837BD4680BD80B588B000AFF8608E
:1031D000B9607A603B60FB68BB61BB68002B03D1C0
:1031E000BB691B6C002B00D100BF3B68022B03D1D5
:1031F000BB69DB6B012B00D100BFFFF7A5FEFFF71A
:1032000045FE7861BB699A6BBB69DB6B9A4202D35E
:103210003B68022B2DD1B869B9683A6800F0F4F820
:103220000346002B05D07B68002B02D07B6801226F
:103230001A60BB699B6CB3F1FF3F12D1BB695B6A3B
:10324000002B13D0BB692433184600F0F1FC034671
:10325000002B0BD07B68002B08D07B6801221A6002
:1032600004E0BB699B6C5A1CBB699A640123FB6137
:1032700001E00023FB617869FFF712FEFB69184645
:103280002037BD4680BD00BF80B58AB000AFF86072
:10329000B9607A603B6000237B62FB683B62BB687D
:1032A000002B03D13B6A1B6C002B00D100BF00F048
:1032B000DBFE0346002B02D17B68002B00D100BF50
:1032C000FFF7BAFD3B6A9B6B002B31D03B6ADB6892
:1032D000FB61386AB96800F005F93B68002B17D12B
:1032E0003B6A9B6B5A1E3B6A9A633B6A1B68002BC6
:1032F00004D100F0B1FF02463B6A5A603B6A1B6989
:10330000002B11D03B6A1033184600F091FC0BE003
:103310003B6AFA69DA603B6A5B6A002B04D03B6A5D
:103320002433184600F084FCFFF79EFD012366E07D
:103330007B68002B03D1FFF797FD00235FE07B6ADA
:10334000002B06D107F11403184600F0C5FC012339
:103350007B62FFF789FD00F087FAFFF76DFD3B6A9E
:103360005B6CB3F1FF3F02D13B6A00225A643B6AB7
:103370009B6CB3F1FF3F02D13B6A00229A64FFF7D6
:1033800073FD07F114023B1D1046194600F0BAFC0C
:103390000346002B2BD1386A00F016F90346002BA8
:1033A0001FD03B6A1B68002B08D1FFF745FD3B6A25
:1033B0005B68184600F076FEFFF756FD3B6A03F1A6
:1033C00024027B681046194600F0C0FB386A00F002
:1033D000AFF800F057FA0346002B0FD1FFF71CFDA2
:1033E0000CE0386A00F0A4F800F04CFA68E7386A9C
:1033F00000F09EF800F046FA002300E060E718466F
:103400002837BD4680BD00BF80B586B000AFF860EC
:10341000B9607A6000237B61FB681B6C002B0DD1C7
:10342000FB681B68002B52D1FB685B68184600F0F4
:10343000AFFE7861FB6800225A6048E07B68002B91
:103440001AD1FB689A68FB681B6C1046B9681A466B
:1034500004F026F9FB689A68FB681B6C1A44FB6849
:103460009A60FB689A68FB685B689A422FD3FB6896
:103470001A68FB689A602AE0FB68DA68FB681B6CD4
:103480001046B9681A4604F00BF9FB68DA68FB6865
:103490001B6C5B421A44FB68DA60FB68DA68FB6805
:1034A0001B689A4207D2FB685A68FB681B6C5B4238
:1034B0001A44FB68DA607B68022B08D1FB689B6BBF
:1034C000002B04D0FB689B6B5A1EFB689A63FB6859
:1034D0009B6B5A1CFB689A637B6918461837BD467C
:1034E00080BD00BF80B582B000AF786039607B6876
:1034F0001B6C002B19D07B68DA687B681B6C1A4444
:103500007B68DA607B68DA687B685B689A4203D321
:103510007B681A687B68DA607B68DA687B681B6C9A
:10352000386811461A4604F0BBF80837BD4680BD1E
:1035300080B582B000AF7860FFF77EFC14E07B6856
:103540005B6A002B0AD07B682433184600F070FBBE
:103550000346002B03D000F019FC00E008E07B6874
:103560009B6C5A1E7B689A647B689B6C002BE6DC24
:103570007B684FF0FF329A64FFF776FCFFF75CFC44
:1035800014E07B681B69002B0FD07B681033184652
:1035900000F04EFB0346002B01D000F0F7FB7B68E8
:1035A0005B6C5A1E7B685A6400E003E07B685B6CCE
:1035B000002BE6DC7B684FF0FF325A64FFF754FCC7
:1035C0000837BD4680BD00BF80B584B000AF7860CD
:1035D000FFF732FC7B689B6B002B02D10123FB6061
:1035E00001E00023FB60FFF73FFCFB681846103743
:1035F000BD4680BD80B584B000AF7860FFF71CFC8D
:103600007B689A6B7B68DB6B9A4202D10123FB607B
:1036100001E00023FB60FFF727FCFB68184610372A
:10362000BD4680BD80B485B000AF786039600023AE
:10363000FB6014E00E4BFA6853F83230002B0BD1CC
:103640000B4BFA68396843F83210094AFB68DB0013
:1036500013447A685A6005E0FB680133FB60FB683D
:10366000092BE7D91437BD465DF8047B704700BFCE
:103670002827002080B584B000AF786039607B686F
:10368000FB60FFF7D9FBFB685B6CB3F1FF3F02D136
:10369000FB6800225A64FB689B6CB3F1FF3F02D1C8
:1036A000FB6800229A64FFF7DFFBFB689B6B002B33
:1036B00005D1FB6824331846396800F087FAF868AA
:1036C000FFF736FF1037BD4680BD00BF80B500AFA5
:1036D0000148FFF745F880BD0080084080B58AB0FA
:1036E00002AFF860B9603B601346FB80FB88184668
:1036F000396B00F05DFCB861BB69002B65D0BB691C
:103700001A6BFB8803F18043013B9B0013447B61F0
:103710007B6923F007037B61FB880093B869B96874
:10372000BA6A7B6B00F04CFB7869F9683A68FFF77E
:10373000BFFA0246BB691A60FB6A002B02D0FB6A23
:10374000BA691A60FFF778FB284B1B685A1C274B95
:103750001A60274B1B68002B09D1254BBA691A60E8
:10376000224B1B68012B0FD100F074FB0CE0214BA6
:103770001B68002B08D11E4B1B68DA6ABB6A9A4291
:1037800002D81B4BBA691A601B4B1B685A1C1A4B98
:103790001A60BB69DB6A01229A40184B1B681A4306
:1037A000164B1A60BB69DA6A13469B0013449B00F0
:1037B000134A1A44BB69043310461946FFF7F2F95D
:1037C0000123FB61FFF750FB02E04FF0FF33FB6189
:1037D000FB69012B05D1074B1B68002B01D0044B63
:1037E0001B68FB6918462037BD4680BD2425002094
:1037F0007424002030250020402500202C250020A6
:103800007824002080B586B004AF00230093002305
:10381000019300230293002303930F480F498C2246
:103820000023FFF75BFF78607B68012B02D100F07B
:103830002DFD78607B68012B09D1FFF727FB084B32
:1038400001221A60074B00221A60FFF787FA00F086
:10385000CBFF0837BD4680BDA53D0000E4760000E3
:10386000302500202825002080B400AF044B1B68C1
:103870005A1C034B1A60BD465DF8047B704700BFBD
:103880004425002080B582B000AF00237B60324B1E
:103890001B68FFF7D1FA304B1B685A1E2E4B1A607B
:1038A0002D4B1B68002B4FD12C4B1B68002B4BD092
:1038B0002EE02B4BDB68DB683B603B681833184617
:1038C000FFF7CCF93B6804331846FFF7C7F93B68AC
:1038D000DB6A01229A40234B1B681A43214B1A6072
:1038E0003B68DA6A13469B0013449B001E4A1A4445
:1038F0003B68043310461946FFF754F93B68DA6A0F
:103900001A4B1B68DB6A9A4202D3194B01221A60D8
:10391000134B1B68002BCCD1164B1B68002B11D00E
:103920000CE000F03BF80346002B02D0104B0122C4
:103930001A60104B1B685A1E0E4B1A600D4B1B6809
:10394000002BEED10A4B1B68FFF78EFA7B681846F6
:103950000837BD4680BD00BF442500202425002037
:10396000E42400202C25002078240020742400204A
:10397000382500203425002080B582B000AFFFF745
:103980005BFA054B1B687B60FFF76EFA7B68184695
:103990000837BD4680BD00BF2825002080B586B011
:1039A00000AF00237B613B4B1B68002B68D13A4B77
:1039B0001B685A1C384B1A60374B1B683B613B69CC
:1039C000002B12D1354B1B68344B1B68FB60344B0A
:1039D0001A68324B1A60324BFA681A60314B1B6816
:1039E0005A1C304B1A6000F01BFB2F4B1B683A69C6
:1039F0009A4244D3294B1B681B68002B01D1012339
:103A000000E00023002B04D0274B4FF0FF321A6058
:103A100035E0224B1B68DB68DB68BB60BB685B681A
:103A20007B603A697B689A4203D21F4B7A681A60BE
:103A300025E0BB6804331846FFF710F9BB689B6AA2
:103A4000002B04D0BB6818331846FFF707F9BB6892
:103A5000DB6A01229A40154B1B681A43134B1A600C
:103A6000BB68DA6A13469B0013449B00104A1A4451
:103A7000BB68043310461946FFF794F8BAE704E030
:103A80000C4B1B685A1C0B4B1A607B691846183785
:103A9000BD4680BD4425002028250020DC240020D0
:103AA000E02400203C250020040000202C250020DC
:103AB000782400203425002080B485B000AF1E4B50
:103AC0001B68002B03D01D4B01221A602FE01B4BFB
:103AD00000221A601A4B1B687B607B68B3FA83F381
:103AE000FB70FB78C3F11F03FB60FA6813469B0071
:103AF00013449B00FA6813469B0013449B00114A31
:103B00001344BB60BB685B685A68BB685A60BB689B
:103B10005A68BB6808339A4204D1BB685B685A682C
:103B2000BB685A60BB685B68DA68074B1A60143779
:103B3000BD465DF8047B70474425002038250020F1
:103B40002C250020782400207424002080B584B027
:103B500000AF78603960194B1B68183378681946D4
:103B6000FFF744F8154B1B6804331846FFF776F847
:103B70000346002B0BD1114B1B68DB6A012202FAB2
:103B800003F3DA430E4B1B681A400D4B1A603B6877
:103B9000B3F1FF3F07D1094B1B68043309481946AD
:103BA000FFF700F807E0084B1A683B681344FB6016
:103BB000F86800F0C7F91037BD4680BD74240020B6
:103BC0002C250020102500202825002080B584B059
:103BD00000AF78603960134B1B681833786819465A
:103BE000FEF7E0FF0F4B1B6804331846FFF736F86B
:103BF0000346002B0BD10B4B1B68DB6A012202FA38
:103C000003F3DA43084B1B681A40074B1A60074B53
:103C10001A683B681344FB60F86800F093F91037AA
:103C2000BD4680BD742400202C25002028250020BE
:103C300080B584B000AF78607B68DB68DB68BB6010
:103C4000BB6818331846FFF709F81D4B1B68002B9B
:103C50001CD1BB6804331846FFF700F8BB68DB6A69
:103C600001229A40174B1B681A43164B1A60BB6817
:103C7000DA6A13469B0013449B00134A1A44BB683C
:103C8000043310461946FEF78DFF05E0BB68183374
:103C90000E481946FEF786FFBB68DA6A0C4B1B68B4
:103CA000DB6A9A4205D90123FB600A4B01221A60A4
:103CB00001E00023FB60FB6818461037BD4680BD5D
:103CC000442500202C25002078240020E424002016
:103CD000742400203825002080B483B000AF7860C1
:103CE000064B1A687B681A60054B1A687B685A6035
:103CF0000C37BD465DF8047B704700BF3C250020B3
:103D00002825002080B584B000AF78603960FFF7C7
:103D100093F81C4B1B68BB603B681B68B3F1FF3F0B
:103D200002D10023FB6026E07B681A68164B1B68F3
:103D30009A4207D07B685A68BB689A4202D801232E
:103D4000FB6018E07B685B68BA68D21A3B681B6846
:103D50009A420ED23B681A687B685968BB68CB1AD6
:103D60001A443B681A607868FFF7B6FF0023FB60CF
:103D700001E00123FB60FFF777F8FB681846103776
:103D8000BD4680BD282500203C25002080B400AF22
:103D9000034B01221A60BD465DF8047B704700BFEB
:103DA0003825002080B582B000AF786000F068FA56
:103DB00000F08EF8FFF730F8FEF74CFDF6E700BF95
:103DC00080B586B000AFF860B9607A603B600023D0
:103DD0007B6112E0BA687B6913441A78F9687B69E1
:103DE0000B4430331A71BA687B6913441B78002B7B
:103DF00000D105E07B6901337B617B69092BE9D93F
:103E0000FB68002283F83D207B68022B01D9022346
:103E10007B60FB687A68DA62FB687A681A64FB6820
:103E200000225A64FB6804331846FEF7AFFEFB68B5
:103E300018331846FEF7AAFEFB68FA681A617B6819
:103E4000C3F10302FB689A61FB68FA685A6218378B
:103E5000BD4680BD80B582B000AF00237B600CE022
:103E60007A6813469B0013449B00114A134418467A
:103E7000FEF76CFE7B6801337B607B68022BEFD919
:103E80000C48FEF763FE0C48FEF760FE0B48FEF799
:103E90005DFE0B48FEF75AFE0A48FEF757FE0A4B36
:103EA000044A1A60094B044A1A600837BD4680BDAF
:103EB00078240020B4240020C8240020E42400201A
:103EC000F824002010250020DC240020E02400201D
:103ED00080B582B000AF28E0FFF7C6FC164B1B6828
:103EE000002B14BF00230123DBB27B60FFF7CAFC69
:103EF0007B68002B19D1FEF79FFF0F4BDB68DB6857
:103F00003B603B6804331846FEF7A8FE0B4B1B686A
:103F10005A1E0A4B1A600A4B1B685A1E084B1A603D
:103F2000FEF7A2FF386800F06BF8054B1B68002B0A
:103F3000D2D10837BD4680BDF824002024250020BA
:103F40000C25002080B582B000AF7860134B1B6851
:103F50007A685A60124B1B687A689A4209D2114BF0
:103F60001A680E4B1B68043310461946FEF73EFED6
:103F700010E00D4B1A68094B1B68043310461946B4
:103F8000FEF734FE094B1B687A689A4202D2074B4F
:103F90007A681A600837BD4680BD00BF74240020CF
:103FA00028250020E0240020DC240020040000203C
:103FB00080B584B000AF03463960FB804820FEF72F
:103FC00075FDF860FB68002B15D03B68002B06D10F
:103FD000FB889B001846FEF769FD034600E03B683E
:103FE000FA681363FB681B6B002B04D1F868FEF7BB
:103FF000A3FD0023FB60FB6818461037BD4680BD5B
:1040000080B582B000AF78607B681B6B1846FEF706
:1040100093FD7868FEF790FD0837BD4680BD00BF70
:1040200080B483B000AF0E4B1B681B68002B01D11E
:10403000012300E00023002B04D00A4B4FF0FF3295
:104040001A6008E0064B1B68DB68DB687B607B68F6
:104050005A68044B1A600C37BD465DF8047B704704
:10406000DC2400200400002080B483B000AF0B4BA0
:104070001B68002B02D101237B6008E0084B1B6802
:10408000002B02D102237B6001E000237B607B6870
:1040900018460C37BD465DF8047B7047302500207C
:1040A0004425002080B584B000AF78607B68FB6059
:1040B0007B68002B62D0FB68DA6A324B1B68DB6AD4
:1040C0009A425BD2FB689B69002B06DB2D4B1B6879
:1040D000DB6AC3F10302FB689A61FB685969FB68FC
:1040E000DA6A13469B0013449B00274A1344994203
:1040F00001D1012300E00023002B3AD0FB680433F8
:104100001846FEF7ABFD0346002B15D1FB68DA6AB3
:104110001D4913469B0013449B000B441B68002B56
:104120000AD1FB68DB6A012202FA03F3DA43174B78
:104130001B681A40154B1A60124B1B68DA6AFB6841
:10414000DA62FB68DB6A01229A40104B1B681A4353
:104150000E4B1A60FB68DA6A13469B0013449B00FF
:10416000094A1A44FB68043310461946FEF71AFD43
:1041700004E0044B1B68DA6AFB68DA621037BD465C
:1041800080BD00BF74240020782400202C2500204E
:1041900080B584B000AF78607B68BB600023FB60B3
:1041A0007B68002B4FD0BB685B6C5A1EBB685A649F
:1041B000BB68DA6ABB681B6C9A4244D0BB685B6C14
:1041C000002B40D1BB6804331846FEF747FD034679
:1041D000002B15D1BB68DA6A1D4913469B001344B6
:1041E0009B000B441B68002B0AD1BB68DB6A0122D1
:1041F00002FA03F3DA43174B1B681A40154B1A6097
:10420000BB681A6CBB68DA62BB68DB6AC3F1030285
:10421000BB689A61BB68DB6A01229A400D4B1B6840
:104220001A430C4B1A60BB68DA6A13469B001344AE
:104230009B00074A1A44BB68043310461946FEF730
:10424000B1FC0123FB60FB6818461037BD4680BDFA
:10425000782400202C25002080B400AF074B1B6879
:10426000002B04D0054B1B685A6C01325A64034B77
:104270001B681846BD465DF8047B70477424002017
:1042800080B500AFFFF722FA80BD00BF80B586B0D1
:1042900004AF00237B6000F061FA0C4B1B68002B1D
:1042A0000ED00223009300230193002302930023E6
:1042B0000393074807498C220023FFF70FFA786021
:1042C0007B6818460837BD4680BD00BF7C250020AE
:1042D00029440000EC76000080B586B000AFF8609D
:1042E000B9607A603B60BB68002B02D100237B6120
:1042F0001CE02820FEF7DAFB78617B69002B15D0E3
:1043000000F02CFA7B69FA681A607B69BA689A61D6
:104310007B697A68DA617B693A681A627B693A6A12
:104320005A627B6904331846FEF730FC7B691846F5
:104330001837BD4680BD00BF80B588B000AFF860BB
:10434000B9607A603B600023FB611D4B1B68002B4A
:1043500030D0BB683B617B687B61FB68BB61BB683D
:10436000052B1CDCFFF780FE0346022B0BD1144B00
:104370001A6807F1100310461946BA6A0023FEF7BF
:1043800083FEF86116E00E4B1A6807F11003104621
:10439000194600220023FEF777FEF8610AE0084B79
:1043A0001A6807F11003104619463A680023FEF711
:1043B0000BFFF861FB6918462037BD4680BD00BF82
:1043C0007C25002080B586B002AF78603960154B3F
:1043D0001B68DB68DB68FB60FB6804331846FEF78C
:1043E0003DFCFB68DB69012B15D1FB689A697B6892
:1043F0001344F86819463A687B6800F0A1F8034650
:10440000012B08D100230093F86800217A6800236B
:10441000FFF792FFB860FB685B6AF868984710374F
:10442000BD4680BD7425002080B584B000AF7860A3
:1044300007F10803184600F03FF8F860BB68F86819
:10444000194600F003F800F0BDF8F1E780B584B03C
:1044500000AF78603960FFF707FA07F108031846E4
:1044600000F04EF8F860BB68002B1ED13B68002BB3
:104470000AD17A68FB689A4206D8FFF703FA78688F
:10448000F968FFF79FFF12E00A4B1A687968FB682A
:10449000CB1A10461946FFF7EDF8FFF7F3F903467C
:1044A000002B04D1FEF7B8FC01E0FFF7EBF9103761
:1044B000BD4680BD7C25002080B485B000AF78600B
:1044C0000E4B1B681B68002B14BF00230123DBB2BB
:1044D0001A467B681A607B681B68002B05D1074B66
:1044E0001B68DB681B68FB6001E00023FB60FB6866
:1044F00018461437BD465DF8047B704774250020CC
:1045000080B584B000AF7860FFF736FAF8600B4BE7
:104510001B68FA689A4205D200F0CEF87B68012247
:104520001A6002E07B6800221A60044BFA681A6085
:10453000FB6818461037BD4680BD00BF80250020AF
:1045400080B586B000AFF860B9607A603B60002348
:104550007B61FB68BA685A60FB68FA681A61BA68DE
:104560007B689A4212D87A683B68D21AFB689B69CA
:104570009A4202D301237B611BE0104B1A68FB684F
:10458000043310461946FEF731FB12E07A683B68A7
:104590009A4206D2BA683B689A4202D301237B61F1
:1045A00007E0074B1A68FB68043310461946FEF70C
:1045B0001DFB7B6918461837BD4680BD7825002055
:1045C0007425002080B58AB002AF63E0BB68002B81
:1045D00060DB3B69FB61FB695B69002B04D0FB6915
:1045E00004331846FEF73AFB3B1D1846FFF788FFD9
:1045F000B861BB68092B4CD801A252F823F000BF68
:104600002946000029460000294600009346000084
:104610006F4600008B460000294600002946000036
:10462000934600006F460000FA68FB699B691A44D4
:10463000FB68F8691146BA69FFF782FF0346012B50
:1046400014D1FB695B6AF8699847FB69DB69012B48
:104650000CD1FA68FB699B69134400220092F86947
:1046600000211A460023FFF767FE786112E0FA681E
:10467000FB699A61FB699A69BB691344F869194639
:10468000BA69BB69FFF75CFF04E0F869FEF754FA0A
:1046900000E000BF074B1A6807F1080310461946EF
:1046A00000220023FEF7F0FD0346002B8ED12037B9
:1046B000BD4680BD7C25002080B588B002AF37E0C4
:1046C000244B1B68DB681B687B61224B1B68DB6823
:1046D000DB683B613B6904331846FEF7BFFA3B6970
:1046E0005B6A386998473B69DB69012B20D13B69DC
:1046F0009A697B691344FB60FA687B699A420ED918
:104700003B69FA685A603B693A691A61114B1A6849
:104710003B69043310461946FEF768FA08E00023A7
:104720000093386900217A690023FFF705FEB8601D
:10473000084B1B681B68002BC2D1064B1B687B60B3
:10474000054B1A68034B1A60034B7A681A601837D6
:10475000BD4680BD742500207825002080B500AFBF
:10476000FEF76AFB124B1B68002B1DD11148FEF7A8
:10477000EDF91148FEF7EAF9104B0E4A1A60104B9A
:104780000D4A1A600A200C210022FEF745FC024661
:10479000074B1A60064B1B68002B05D0044B1B68A7
:1047A00018460849FEF73EFFFEF75EFB80BD00BFDE
:1047B0007C2500204C250020602500207425002049
:1047C00078250020F476000080B483B000AF7860D4
:1047D000044B1B685A1C034B1A600C37BD465DF82E
:1047E000047B70474825002090B583B002AF0E4B84
:1047F00000930E484FF4FA7101220023FFF76CFD7D
:1048000002460B4B1A600A4B1C68FFF7B5F80346CB
:1048100000220092204601211A460023FFF78CFD5A
:104820000437BD4690BD00BFC9470000FC760000BC
:104830007827002080B485B000AF0346FB80084B8A
:104840005B69FB6000BF064B5A69FB68D21AFB88A4
:104850009A42F8D91437BD465DF8047B704700BF13
:104860000027002090B587B000AF78603960002342
:10487000FB730023BB7378684FF07E5102F0A2FEF9
:104880000346002B10D0786802F0B0FE0346FB759B
:10489000FB7D184602F090FC03467868194602F04A
:1048A000D5FB03463B610CE00023FB75FB7D1846FE
:1048B00002F082FC03467868194602F0C7FB034603
:1048C0003B61FB7D002B09D13B6830221A703B68AD
:1048D00001332E221A700123FB7348E019E0FB7BA1
:1048E0003A68D018FA7D5E4BA3FB0213D9080B4639
:1048F0009B000B445B00D31ADBB23033DBB2037096
:10490000FA7D574BA3FB0213DB08FB75FB7B0133DE
:10491000FB73FB7D002BE2D1FB7B013BFB73002390
:10492000BB7318E0BB7B3A6813441B787B73BB7B7B
:104930003A681344F97BBA7B8A1A39680A441278B8
:104940001A70FA7BBB7BD31A3A6813447A7B1A70CD
:10495000BB7B0133BB73BA7BFB7B9A42E2D3FB7B0D
:104960000133FB73FB7B3A6813442E221A70FB7BE6
:104970000133FB73FB7B5A1CFA733A68D41838690D
:10498000384902F06DFC0346184602F02FFE01463E
:10499000334BA3FB0123DA0813469B0013445B004F
:1049A000CA1AD3B23033DBB22370FB7B5A1CFA73C2
:1049B0003A68D41838692C4902F052FC034618466C
:1049C00002F014FE0146264BA3FB0123DA0813462E
:1049D0009B0013445B00CA1AD3B23033DBB223709E
:1049E000FB7B5A1CFA733A68D41838691F4902F0E5
:1049F00037FC0346184602F0F9FD0146184BA3FBAD
:104A00000123DA0813469B0013445B00CA1AD3B291
:104A10003033DBB22370FB7B5A1CFA733A68D4182C
:104A20003869134902F01CFC0346184602F0DEFD0B
:104A300001460B4BA3FB0123DA0813469B001344EA
:104A40005B00CA1AD3B23033DBB22370FB7B3A6807
:104A5000134400221A70FB7B18461C37BD4690BDDC
:104A6000CDCCCCCC000020410000C84200007A44EC
:104A700000401C4680B485B000AF786039607B6828
:104A800003F10473DA003B6813449B00FB60FB688E
:104A90001B6818461437BD465DF8047B704700BF9D
:104AA00080B582B000AF03463960FB71FB79002B03
:104AB0000DD0FB79012B0AD0FB79022B07D0FB79B3
:104AC000032B04D0FB79042B01D0FB79052BFA7959
:104AD0001346DB0013449B001C3303F1804303F5B2
:104AE000C04318463968FFF7C5FF03461846083724
:104AF000BD4680BD80B483B000AF03463960FB7112
:104B0000FB79002B0DD0FB79012B0AD0FB79022B0E
:104B100007D0FB79032B04D0FB79042B01D0FB7960
:104B2000052B0948FA793B68012101FA03F319467C
:104B30001346DB0013449B000344103359600C37C9
:104B4000BD465DF8047B70470060004080B483B0D0
:104B500000AF03463960FB71FB79002B0DD0FB7968
:104B6000012B0AD0FB79022B07D0FB79032B04D051
:104B7000FB79042B01D0FB79052B0948FA793B68B6
:104B8000012101FA03F319461346DB0013449B008D
:104B90000344103319600C37BD465DF8047B704741
:104BA0000060004080B500AF0020092101220023F1
:104BB000FCF708FE00200A2101220023FCF702FE78
:104BC0000320012101220023FCF7FCFD032000212A
:104BD00004220023FCF7F6FD032002210422002317
:104BE000FCF7F0FD0320032104220023FCF7EAFD7B
:104BF00003200321FFF7AAFF03200221FFF7A6FFEE
:104C000003200321FFF776FF80BD00BF80B500AF12
:104C10000320032104220023FCF7D4FD03200321F9
:104C2000FFF794FF0320002101220023FCF7CAFDB7
:104C30000320012101220023FCF7C4FD00200921EB
:104C400001220023FCF7BEFD00200A2101220023DF
:104C5000FCF7B8FD80BD00BF80B582B000AF034651
:104C6000FB7103200221FFF745FFFB795BB2002BAC
:104C700004DA03200021FFF769FF07E00320002189
:104C8000FFF738FF03200021FFF734FF00BF0320A8
:104C90000221FFF75BFF00BF03200221FFF72AFF7D
:104CA000FB7903F04003002B04D003200021FFF721
:104CB0004DFF07E003200021FFF71CFF0320002128
:104CC000FFF718FF00BF03200221FFF73FFF00BFDF
:104CD00003200221FFF70EFFFB7903F02003002BD6
:104CE00004D003200021FFF731FF07E0032000215B
:104CF000FFF700FF03200021FFF7FCFE00BF0320A9
:104D00000221FFF723FF00BF03200221FFF7F2FE7D
:104D1000FB7903F01003002B04D003200021FFF7E0
:104D200015FF07E003200021FFF7E4FE0320002128
:104D3000FFF7E0FE00BF03200221FFF707FF00BFDF
:104D400003200221FFF7D6FEFB7903F00803002BB6
:104D500004D003200021FFF7F9FE07E00320002123
:104D6000FFF7C8FE03200021FFF7C4FE00BF0320A9
:104D70000221FFF7EBFE00BF03200221FFF7BAFE7E
:104D8000FB7903F00403002B04D003200021FFF77C
:104D9000DDFE07E003200021FFF7ACFE0320002129
:104DA000FFF7A8FE00BF03200221FFF7CFFE00BFE0
:104DB00003200221FFF79EFEFB7903F00203002B84
:104DC00004D003200021FFF7C1FE07E003200021EB
:104DD000FFF790FE03200021FFF78CFE00BF0320A9
:104DE0000221FFF7B3FE00BF03200221FFF782FE7E
:104DF000FB7903F00103002B04D003200021FFF70F
:104E0000A5FE07E003200021FFF774FE0320002128
:104E1000FFF770FE00BF03200221FFF797FE00BFDF
:104E20000837BD4680BD00BF80B582B000AF00230B
:104E3000FB7103200221FFF75DFE00BF00BF0320CE
:104E40000221FFF783FE03200121FFF729FE03461D
:104E5000002B03D0FB7963F07F03FB710320022159
:104E6000FFF748FE00BF00BF03200221FFF76EFEE0
:104E700003200121FFF714FE0346002B03D0FB792A
:104E800043F04003FB7103200221FFF733FE00BF14
:104E900000BF03200221FFF759FE03200121FFF785
:104EA000FFFD0346002B03D0FB7943F02003FB7189
:104EB00003200221FFF71EFE00BF00BF03200221D6
:104EC000FFF744FE03200121FFF7EAFD0346002B14
:104ED00003D0FB7943F01003FB7103200221FFF79D
:104EE00009FE00BF00BF03200221FFF72FFE0320B1
:104EF0000121FFF7D5FD0346002B03D0FB7943F0DA
:104F00000803FB7103200221FFF7F4FD00BF00BF7F
:104F100003200221FFF71AFE03200121FFF7C0FD45
:104F20000346002B03D0FB7943F00403FB710320FD
:104F30000221FFF7DFFD00BF00BF03200221FFF7C2
:104F400005FE03200121FFF7ABFD0346002B03D034
:104F5000FB7943F00203FB7103200221FFF7CAFD36
:104F600000BF00BF03200221FFF7F0FD0320012155
:104F7000FFF796FD0346002B03D0FB7943F00103B6
:104F8000FB71FB7918460837BD4680BD80B582B0FD
:104F900000AF0023BB800023BB71FFF737FE00F09A
:104FA0005DF8002000F0A6F8012000F0BFF83B1DDE
:104FB000184600F06BF80837BD4680BD80B500AFDD
:104FC00000F082F8034603F00103002B14BF002316
:104FD0000123DBB2184680BD80B582B000AF00234C
:104FE0007B60FFF7DFFD0620FFF736FEFFF70EFEC2
:104FF0007B6801337B607A68084B9A4201D90023B1
:1050000007E000F061F8034603F00203002BE8D04C
:10501000012318460837BD4680BD00BFA0860100A9
:1050200080B582B000AF00237B6008E07B6801336D
:105030007B607A68084B9A4201D9002307E000F0B0
:1050400043F8034603F00103002BEFD10123184678
:105050000837BD4680BD00BFA086010080B500AF07
:10506000FFF7A0FD6620FFF7F7FDFFF7CFFDFFF785
:1050700099FD9920FFF7F0FDFFF7C8FDFFF79EFFB0
:105080000346002B01D0FFF7CBFF80BD90B585B064
:1050900000AF7860FFF786FD9F20FFF7DDFD00235E
:1050A000FB7309E0FB7B7A68D418FFF7BDFE03466B
:1050B0002370FB7B0133FB73FB7B022BF2D9FFF7E1
:1050C000A5FD1437BD4690BD80B582B000AF00236A
:1050D000FB71FFF767FD0520FFF7BEFDFFF7A4FE9C
:1050E0000346FB71FFF792FDFB7918460837BD4672
:1050F00080BD00BF80B582B000AF0346FB71FFF7F3
:105100005DFF0346002B0ED0FFF766FFFFF74AFD59
:105110000120FFF7A1FDFB791846FFF79DFDFFF782
:1051200075FDFFF77DFF0837BD4680BD80B582B0B5
:1051300000AF0346FB71FFF735FDFB79002B01D073
:10514000B72300E0E9231846FFF786FDFFF75EFD71
:105150000837BD4680BD00BF80B588B000AF39605C
:1051600013460246FA71BB710023FB7764233B812F
:1051700004237B81FB1DFB6001233B823B687B6139
:10518000BB799BB23B8307F1080309481946FCF73A
:1051900087FE00BF0648FCF773FC0346012BF9D0DD
:1051A0000423FB77FB7F18462037BD4680BD00BF38
:1051B00000A0004080B588B000AF396013460246B9
:1051C000FA71BB716423BB810823FB81FB1D3B612A
:1051D0000123BB823B68BB61BB799BB2BB8307F1F8
:1051E0000C0308481946FCF75BFE00BF0548FCF7B6
:1051F00047FC0346012BF9D0002318462037BD4653
:1052000080BD00BF00A0004080B58AB000AF3B1D4C
:10521000002019462022FFF79FFFBB7C03F002030A
:10522000002B23D000233B7100237B710023BB7133
:105230001023FB7101233B7201237B721523BB7288
:105240000023FB723B1D002019460822FFF7B2FF26
:1052500000237B740023BB746023FB743B1D0D3360
:105260000D2019460322FFF7A5FF6CE0002387F805
:1052700027303B795F2B02D9012387F827307B79D0
:105280005F2B02D9012387F82730BB79232B02D962
:10529000012387F827303B7A312B02D9012387F885
:1052A00027307B7A122B02D9012387F827303B7AEB
:1052B000002B02D1012387F827307B7A002B02D103
:1052C000012387F8273097F82730012B15D10023C9
:1052D0003B7100237B710023BB711023FB71012301
:1052E0003B7201237B721523BB720023FB723B1DB3
:1052F000002019460822FFF75DFF002387F82730BA
:10530000FB7C602B04D06023FB74012387F82730DB
:10531000BB7C002B04D00023BB74012387F827300B
:105320007B7C002B04D000237B74012387F827307B
:1053300097F82730012B06D13B1D0D330D20194660
:105340000322FFF737FF2837BD4680BD80B483B006
:1053500000AF0346FB71084B97F907205209F97912
:1053600001F01F01012000FA01F143F822100C376F
:10537000BD465DF8047B704700E100E080B483B077
:1053800000AF0346FB71094B97F907205209F979E1
:1053900001F01F01012000FA01F1603243F82210F0
:1053A0000C37BD465DF8047B704700BF00E100E0AC
:1053B00080B584B002AF39600146F971BA717B7172
:1053C000FA79BB7979790091397C01911046396875
:1053D0003A68FCF791F90837BD4680BD80B485B0C6
:1053E00000AFF860B9607A60FA68BB681B011344CB
:1053F00038337A685A601437BD465DF8047B7047CD
:1054000080B483B000AF786039607B68DA683B684D
:105410001A437B68DA600C37BD465DF8047B704741
:1054200080B483B000AF786039607B683A68DA6135
:105430000C37BD465DF8047B704700BF80B582B075
:1054400000AF786003487968FDF7ACF90837BD46CE
:1054500080BD00BF0080084080B500AF00F022F89A
:1054600000F026F800F038F800F0C2F800F008F973
:1054700000F038F900F04CF900F07EF900F0C0F9C6
:1054800000F0F6F900F030FA00F05CFA00F07EFA75
:1054900000F0A6FA00F020FB00F024FB00F028FB4F
:1054A00080BD00BF80B400AFBD465DF8047B70478F
:1054B00080B400AF074B074A126822F4C0521A604A
:1054C000044B044A126842F400521A60BD465DF86B
:1054D000047B704700800C4080B500AF00200121A4
:1054E0000122FBF731FC022000210122FBF72CFCFA
:1054F0000320FBF7C3FB2C480221FBF71FFB012015
:105500000521FBF71BFB29480121FBF7F7F8284889
:105510000121FBF7F3F825480121FBF79DF9244809
:105520000121FBF799F923480121FBF795F91E4862
:105530000221FBF703FB20480221FBF7FFFA1F487B
:105540000121FBF789F91E480121FBF785F91D4868
:105550000121FBF781F91C480121FBF77DF91B486C
:105560000121FBF779F91A480121FBF775F9194870
:105570000121FBF771F918480121FBF76DF9174874
:105580000121FBF769F916480121FBF765F9154878
:105590000121FBF761F914480121FBF75DF913487C
:1055A0000121FBF759F980BD020018004081040079
:1055B000500002000023020003001A0000E2040071
:1055C0000013020000F204006016120070071400BD
:1055D0006006100000420400005204000062040053
:1055E00000320400000204000022040000C2040093
:1055F00080B586B000AF00233B7400237B7400238A
:10560000BB741F23FB7400233B7500237B750023B1
:105610003B7100237B710023BB710023FB710023CE
:10562000BB6000233B7300237B730023BB73002309
:10563000FB7300233B740020FAF7FAFE0346FB7469
:105640000D480021FAF7C2FE03463B7507F110032F
:105650000A481946FAF726FE0223BB714FF4E043CD
:10566000BB600023FB713B1D04481946FAF75EFE40
:105670001837BD4680BD00BFC0CF6A000020004083
:1056800080B588B000AF00233B76144BFB6107F177
:1056900018031846FBF7AAFD00233B7100237B711A
:1056A0000F4BBB600023FB603B1D00201946FBF73E
:1056B0001DFD02233B7403237B740223BB74002370
:1056C000FB7400233B7507F11003002001211A46EB
:1056D000FBF754FD2037BD4680BD00BF00260020EB
:1056E0000100080080B582B000AF084A3B1D118858
:1056F000927819809A7000237B710123BB713B1D46
:105700001846FCF749FD0837BD4680BD0477000008
:10571000B0B586B000AF164B3C1D1D460FCD0FC473
:105720002B6823604FF4E133FB6005237B74002377
:105730007B824FF48053BB8200233B743B1D0D489A
:105740001946FCF7FFFE00233B7000237B7000230B
:10575000BB7000233B7000237B700023BB703B4673
:1057600004481946FCF77AFF1837BD46B0BD00BFA4
:105770000877000000C00040B0B586B000AF1D4BF8
:105780003C1D1D460FCD0FC42B6823601A4BFB60D8
:105790000123BB743B1D19481946FCF711FF174B39
:1057A00040F20B125A650120032104220123FCF769
:1057B00009F80120042101220023FCF703F801204D
:1057C000052104220123FBF7FDFF0120062104220D
:1057D0000123FBF7F7FF0220002104220023FBF73F
:1057E000F1FF0220012101220023FBF7EBFF183714
:1057F000BD46B0BD1C77000040420F0000C800400D
:10580000B0B586B000AF184B3C1D1D460FCD0FC480
:105810002B6823604FF41653FB603B1D1348194659
:10582000FCF790FE1020FFF7A9FD1020FFF78EFD7A
:105830001120FFF78BFD0D4B0522DA6405200621B0
:1058400004220123FBF7BEFF0520072102220123CA
:10585000FBF7B8FF054B054A526D42F003025A654B
:105860001837BD46B0BD00BF0877000000E000401B
:1058700090B585B000AF1A4B3C460FCB84E80F00C3
:1058800005233B704FF41653BB6000233B7300238A
:105890007B730023BB731348FCF714FC3B46114891
:1058A0001946FCF7CDFB04200E2104220123FBF74F
:1058B00089FF04200F2102220123FBF783FF12201E
:1058C000FFF75CFD1220FFF741FD064B05229A63AE
:1058D000044B40F203225A651437BD4690BD00BF09
:1058E000307700000040084080B584B000AF134816
:1058F0000121FAF7B1FF012001210122FBF724FA6F
:105900000F4A3B1D1068516803C3127A1A700023B6
:105910007B710023FB7208233B7300237B720023FF
:105920003B720023BB720023FB710023BB713B1D44
:105930001846FFF783FD1037BD4680BD00230200E7
:105940004077000090B585B000AF002001210B2208
:105950000123FBF737FF002000210B220123FBF777
:1059600031FF084B3C460FCB84E80F00064B032267
:105970009A633B4604481946FCF754F81437BD4671
:1059800090BD00BF4C77000000A0004080B584B0FF
:1059900000AF104B00221A800F4A3B1D106851685F
:1059A00003C31189927A19809A700C480121FFF77C
:1059B00027FD0A4841F65831FFF732FD3B1D0748E5
:1059C0001946FCF74BFC0220FFF7C0FC1037BD4620
:1059D00080BD00BF002700205C7700000000014070
:1059E00080B586B000AF01233B7300237B73002397
:1059F000BB730023FB7300233B7400237B740023E1
:105A0000BB740023FB7400233B7500237B750023CC
:105A1000BB7500233B7301237B730023FB730123BE
:105A2000BB7300233B7400237B740023BB740023EF
:105A30003B750023FB7400237B750023BB7500239B
:105A40003B7000237B700023BB700023FB7000239E
:105A50003B7100237B710023BB710023FB7100238A
:105A60003B7200237B720023BB7202237B700323F3
:105A7000BB7100233B7000233B710023FB700123AB
:105A80007B7100233B720023FB7100237B72002398
:105A9000BB723B460F4800211A46FCF74DFC0D4BEC
:105AA0000C4A926A42F001029A620A48AF21FFF75B
:105AB000B7FC084800215722FFF790FC07F10C03C0
:105AC00004481946FCF7CAFB024B01225A601837FA
:105AD000BD4680BD0004014080B400AFBD465DF806
