:1000000000400020614F00008D4F00008D4F000028
:100010008D4F00008D4F00008D4F00008D4F000070
:100020008D4F00008D4F00008D4F0000ED09000046
:100030008D4F00008D4F0000810B0000C50B0000AC
:100040003D3F00008D4F00008D4F00008D4F0000A0
:100050008D4F00008D4F00008D4F00008D4F000030
:100060008D4F00008D4F00008D4F00008D4F000020
:100070008D4F00008D4F00008D4F00008D4F000010
:100080008D4F00008D4F00008D4F00008D4F000000
:100090008D4F00008D4F00008D4F00008D4F0000F0
:1000A000390300008D4F00008D4F00008D4F000080
:1000B0008D4F00008D4F00008D4F000010B5054C96
:1000C000237833B9044B13B10448AFF30080012304
:1000D000237010BD00010020000000006C5A0000D9
:1000E00008B5064B1BB106480649AFF30080064829
:1000F000036813B1054B03B1984708BD0000000029
:100100006C5A00000401002078000020000000006C
:10011000154B002B08BF134B9D46A3F5803A0021D9
:100120008B460F461348144A121A05F03AFC0F4B3F
:10013000002B00D098470E4B002B00D09847002092
:10014000002104000D000D48002802D00C48AFF338
:10015000008005F0F7FB2000290002F0D1FF05F038
:10016000DDFB00BF00000800004000200000000090
:100170000000000000010020042700200000000013
:100180000000000080B483B000AF0346FB71084B51
:1001900097F907205209F97901F01F01012000FAAF
:1001A00001F143F822100C37BD465DF8047B70471F
:1001B00000E100E080B483B000AF0346FB71094B5F
:1001C00097F907205209F97901F01F01012000FA7F
:1001D00001F1603243F822100C37BD465DF8047B14
:1001E000704700BF00E100E080B483B000AF034679
:1001F0003960FB7197F90730002B0BDA0D49FB7959
:1002000003F00F03043B3A68D2B25201D2B20B445E
:100210001A7609E0084997F907303A68D2B25201D4
:10022000D2B20B4483F800230C37BD465DF8047B43
:10023000704700BF00ED00E000E100E080B400AFD7
:10024000034B5B681846BD465DF8047B704700BFF2
:100250000000084080B483B000AF7860034B7A6838
:100260009A610C37BD465DF8047B7047000008407A
:1002700080B483B000AF7860054B054AD1697A68D5
:10028000D2430A40DA610C37BD465DF8047B704703
:100290000000084080B483B000AF7860054B054A89
:1002A000D1697A680A43DA610C37BD465DF8047B90
:1002B000704700BF0000084080B400AF034B1B69CB
:1002C0001846BD465DF8047B704700BF000008403B
:1002D00080B400AF72B6084B1B68B3F1FF3F04D087
:1002E000054B1B685A1C044B1A60034B1B681846CD
:1002F000BD465DF8047B70476025002080B483B064
:1003000000AF0C4B1B68002B0DD00A4B1B685A1E0C
:10031000084B1A60074B1B687B607B68002B00D181
:1003200062B67B6800E0002318460C37BD465DF8D6
:10033000047B70476025002080B500AF002004F0EA
:1003400003FB024680239A420AD0002004F046FBB9
:1003500080230020194604F015FB012004F03EFB29
:100360000720FFF777FF00F0FDFB01F0E5F90346FA
:10037000002B03D0034B4FF080521A60002000F096
:10038000FBFB80BD04ED00E080B582B000AF8023B0
:100390006FF07F42B2FBF3F21C4B1A601C48012144
:1003A00003F074FA1B48022103F0E2FB1A48022111
:1003B00003F0BEF91848012103F068FA00233B71ED
:1003C00000237B710123BB713B1D184604F01CFB0D
:1003D0000220FFF74DFF1820FF21FFF705FF18202F
:1003E000FFF7E8FE1820FFF7CDFE80230020194616
:1003F00004F0C8FA0220FFF72DFF0220FFF74AFFA2
:10040000012004F0EBFA0837BD4680BD1C01002036
:1004100000230200020018006006100090B589B0A9
:1004200000AF7860434B1B687A689A4202D9414B0F
:100430001B687B6080237A6802FB03F3FB61002367
:10044000FA699A4203D90023FA69D31AFB61FFF7CC
:10045000F5FE7861002004F0C1FA8024002004F049
:1004600073FA0346E31A7A6913447B61FFF730FF9E
:1004700001F08CFB0346002B0CD180227B69D31A40
:100480000020194604F07EFA012004F0A7FAFFF7D5
:1004900035FF4CE0FA697B69D31AFB610020F969EA
:1004A00004F070FA012004F099FA7B683B613B6923
:1004B000002B05D000F0C0F8BFF34F8FBFF36F8F54
:1004C000FFF7BCFEF860002004F088FAFFF7F4FEA6
:1004D000034603F00203002B0CBF00230123FB7231
:1004E000FFF70CFFFB7A002B03D07B68013BBB615D
:1004F00017E0FA687B691344FB608023FA68B2FB5B
:10050000F3F3BB618023BA6902FB03F3FA68D31AE1
:10051000FB608022FB68D31AFB610020F96904F0BC
:1005200031FA012004F05AFAB86901F0EDF82437E5
:10053000BD4690BD1C01002080B400AF72B6084BD0
:100540001B68B3F1FF3F04D0054B1B685A1C044BDA
:100550001A60034B1B681846BD465DF8047B704764
:100560006025002080B483B000AF0C4B1B68002BCB
:100570000DD00A4B1B685A1E084B1A60074B1B68AC
:100580007B607B68002B00D162B67B6800E00023B3
:1005900018460C37BD465DF8047B70476025002087
:1005A00080B487B000AFF860B9607A60FB6803F18F
:1005B0000473DA00BB6813449B007B617B697A6833
:1005C0001A601C37BD465DF8047B704780B400AFED
:1005D000054B054A126922F004021A6130BFBD467C
:1005E0005DF8047B704700BF00ED00E080B500AF10
:1005F000024801210122FFF7D3FF80BD00600C40BB
:1006000080B483B000AF78603960084B7A681A60B4
:10061000074B3A681A60074B00221A70054B0022FC
:100620005A700C37BD465DF8047B704720010020EE
:10063000240100202801002080B582B000AFFFF720
:100640007BFF00F03BF80346FB71FB79002B07D0E2
:10065000FB79032B04D8FB79184600F04FF801E032
:100660000023FB71FFF77EFFFB7918460837BD4674
:1006700080BD00BF80B582B000AF0346FB71FB793F
:10068000012B03D9FB79032B00D800BFFB79022B88
:1006900002D0FB79032B0CD1FB79023B064AD25CDA
:1006A0000132D1B2044AD154FB79022B01D1FFF7B8
:1006B0009DFF0837BD4680BD2801002080B483B06F
:1006C00000AF0123FB710C4B1B78002B07D10223D9
:1006D000FB71094B5B78002B01D10323FB71FB7984
:1006E000032B01D90323FB71FB7918460C37BD4658
:1006F0005DF8047B704700BF2801002080B582B000
:1007000000AF0346FB71FB79002B03D0FB79042B70
:1007100000D800BF194B1B68002B04D0174B1B6877
:10072000FA7910469847FB79013B032B18D801A2B0
:1007300052F823F0450700004B0700005307000064
:100740005B070000FFF742FF0BE0012003F03CFED7
:1007500007E0012003F07AFE03E003F0C9FE00E0A9
:1007600000BF074B1B68002B04D0054B1B68FA79B0
:10077000104698470837BD4680BD00BF20010020C5
:100780002401002080B584B000AF78600023FB60B6
:100790007B6803F00703002B04D07B6823F007037A
:1007A00008337B6000F0EEFE164B1B68002B05D172
:1007B000154B23F007031A46124B1A60134B1A68A5
:1007C0007B681A4442F21F339A4213D80F4B1A68BF
:1007D0007B681A440D4B1B689A420BD9094B1A6867
:1007E0000A4B1B681344FB60084B1A687B681A4469
:1007F000064B1A6000F0FCFEFB6818461037BD4639
:1008000080BD00BF58240020340100205424002063
:1008100080B483B000AF78600C37BD465DF8047BD0
:10082000704700BF80B483B000AF78607B6803F18D
:1008300008027B685A607B684FF0FF329A607B68E1
:1008400003F108027B68DA607B6803F108027B68C9
:100850001A617B6800221A600C37BD465DF8047B84
:10086000704700BF80B483B000AF78607B6800221F
:100870001A610C37BD465DF8047B704780B485B0C3
:1008800000AF786039607B685B68FB603B68FA6842
:100890005A60FB689A683B689A60FB689B683A6894
:1008A0005A60FB683A689A603B687A681A617B68AC
:1008B0001B685A1C7B681A601437BD465DF8047BC0
:1008C000704700BF80B485B000AF786039603B6886
:1008D0001B68BB60BB68B3F1FF3F03D17B681B693A
:1008E000FB600CE07B680833FB6002E0FB685B6840
:1008F000FB60FB685B681A68BB689A42F6D9FB68C4
:100900005A683B685A603B685B683A689A603B6823
:10091000FA689A60FB683A685A603B687A681A61BC
:100920007B681B685A1C7B681A601437BD465DF8EB
:10093000047B704780B485B000AF78607B681B692A
:10094000FB607B685B687A6892689A607B689B68EA
:100950007A6852685A60FB685A687B689A4203D189
:100960007B689A68FB685A607B6800221A61FB68A2
:100970001B685A1EFB681A60FB681B681846143710
:10098000BD465DF8047B704780B485B000AFF86069
:10099000B9607A60FB68043BFB60FB684FF08072D3
:1009A0001A60FB68043BFB60BA68FB681A60FB686E
:1009B000043BFB60094AFB681A60FB68143BFB6060
:1009C0007A68FB681A60FB68203BFB60FB6818468E
:1009D0001437BD465DF8047B704700BFE109000095
:1009E00080B500AF00F0BEF8FEE700BF064B196807
:1009F0000868B0E8F00F80F30988BFF36F8F4FF0FD
:100A0000000080F3118800BF642400204EF00D0E1A
:100A1000704700BF06480068006880F3088862B627
:100A200061B6BFF34F8FBFF36F8F00DF00BF0000D1
:100A300008ED00E080B584B000AF284BFB60FB6898
:100A40001B78DBB2BB60FB68FF221A70FB681B7867
:100A5000DBB2FB71FB79DBB223F04003DAB2204B4F
:100A60001A70204B07221A6009E01E4B1B685A1EA1
:100A70001C4B1A60FB79DBB25B00DBB2FB71FB79CC
:100A8000DBB2DBB25BB2002BEFDB164B1B681A024A
:100A9000144B1A60134B1B6803F4E062114B1A608D
:100AA000BB68DAB2FB681A700F4B0F4A126842F447
:100AB0007F021A600C4B0C4A126842F07F421A60A7
:100AC000FFF762FC094B00221A60FFF7A3FFFFF754
:100AD00087FF002318461037BD4680BD00E400E0C4
:100AE0005C2400206024002020ED00E000000020B5
:100AF00080B400AF054B4FF080521A60BFF34F8FA8
:100B0000BFF36F8FBD465DF8047B704704ED00E0D6
:100B100080B500AF00F026F8074B1B685A1C064B47
:100B20001A60BFF34F8FBFF36F8F034B1B68012B0E
:100B300001D1024B1B6880BD0000002004ED00E0E5
:100B400080B500AF064B1B685A1E054B1A60044B5C
:100B50001B68002B02D1002000F00EF880BD00BF02
:100B600000000020EFF311804FF0BF0181F31188E6
:100B700070470023184600BF80F31188704700BFFC
:100B8000EFF30980BFF36F8F0D4B1A6820E9F00F68
:100B900010602DE908404FF0BF0080F3118800F08D
:100BA00059FE4FF0000080F31188BDE80840196835
:100BB0000868B0E8F00F80F30988BFF36F8F7047C3
:100BC0006424002080B500AFFFF7CCFF00F0B4FD37
:100BD0000346002B03D0044B4FF080521A600020D4
:100BE000FFF7CAFF80BD00BF04ED00E080B483B012
:100BF00000AFEFF305837B607B680F2B04D9064AB7
:100C00007B6813441B78FB70044B1B680C37BD4694
:100C10005DF8047B704700BFF0E300E00CED00E0FE
:100C200080B584B000AF786039607B68FB60FFF707
:100C30006FFFFB681A68FB68DB6BF968096C01FBE6
:100C400003F31A44FB685A60FB6800229A63FB684E
:100C50001A68FB689A60FB681A68FB68DB6B013BEB
:100C6000F968096C01FB03F31A44FB68DA60FB685E
:100C70004FF0FF325A64FB684FF0FF329A643B68D2
:100C8000002B09D1FB681B69002B0FD0FB681033C8
:100C9000184600F09BFE09E0FB6810331846FFF78A
:100CA000C1FDFB6824331846FFF7BCFDFFF748FF82
:100CB000012318461037BD4680BD00BF80B588B0FF
:100CC00000AFF860B9601346FB710023FB61FB685D
:100CD000002B26D04C20FFF755FDB861BB69002BD7
:100CE0001FD0FB68BA6802FB03F301337B617869AC
:100CF000FFF748FD0246BB691A60BB691B68002B01
:100D00000CD0BB69FA68DA63BB69BA681A64B8695F
:100D10000121FFF785FFBB69FB6102E0B869FFF7BE
:100D200077FDFB6918462037BD4680BD80B58AB087
:100D300000AFF860B9607A603B6000237B62FB68BB
:100D40003B62BB68002B03D13B6A1B6C002B00D1BC
:100D500000BF3B68022B03D13B6ADB6B012B00D148
:100D600000BF01F085F80346002B02D17B68002B01
:100D700000D100BFFFF7CCFE3B6A9A6B3B6ADB6B8E
:100D80009A4202D33B68022B12D1386AB9683A689A
:100D900000F08CF9F8613B6A5B6A002B04D03B6A77
:100DA0002433184600F012FEFFF7CAFE012359E073
:100DB0007B68002B03D1FFF7C3FE002352E07B6A60
:100DC000002B06D107F11403184600F053FE01234F
:100DD0007B62FFF7B5FE00F0D5FBFFF799FE3B6A9B
:100DE0005B6CB3F1FF3F02D13B6A00225A643B6A5D
:100DF0009B6CB3F1FF3F02D13B6A00229A64FFF77C
:100E00009FFE07F114023B1D1046194600F048FEF4
:100E10000346002B1ED1386A00F03EFA0346002B31
:100E200012D03B6A03F110027B681046194600F0AD
:100E30005BFD386A00F0CEF900F0DAFB0346002BC8
:100E40000FD1FFF755FE0CE0386A00F0C3F900F04F
:100E5000CFFB8FE7386A00F0BDF900F0C9FB002333
:100E600000E087E718462837BD4680BD80B588B0CA
:100E700000AFF860B9607A603B60FB68BB61BB683B
:100E8000002B03D1BB691B6C002B00D100BF3B685A
:100E9000022B03D1BB69DB6B012B00D100BFFFF735
:100EA000A5FEFFF75FFE7861BB699A6BBB69DB6BE0
:100EB0009A4202D33B68022B2DD1B869B9683A68CF
:100EC00000F0F4F80346002B05D07B68002B02D01D
:100ED0007B6801221A60BB699B6CB3F1FF3F12D1A2
:100EE000BB695B6A002B13D0BB692433184600F042
:100EF0006DFD0346002B0BD07B68002B08D07B6870
:100F000001221A6004E0BB699B6C5A1CBB699A649D
:100F10000123FB6101E00023FB617869FFF72CFEF0
:100F2000FB6918462037BD4680BD00BF80B58AB03A
:100F300000AFF860B9607A603B6000237B62FB68B9
:100F40003B62BB68002B03D13B6A1B6C002B00D1BA
:100F500000BF00F08DFF0346002B02D17B68002B01
:100F600000D100BFFFF7D4FD3B6A9B6B002B31D053
:100F70003B6ADB68FB61386AB96800F005F93B68D9
:100F8000002B17D13B6A9B6B5A1E3B6A9A633B6AE4
:100F90001B68002B04D101F063F802463B6A5A60DB
:100FA0003B6A1B69002B11D03B6A1033184600F0D6
:100FB0000DFD0BE03B6AFA69DA603B6A5B6A002B65
:100FC00004D03B6A2433184600F000FDFFF7B8FD5B
:100FD000012366E07B68002B03D1FFF7B1FD0023FE
:100FE0005FE07B6A002B06D107F11403184600F07E
:100FF00041FD01237B62FFF7A3FD00F0C3FAFFF779
:1010000087FD3B6A5B6CB3F1FF3F02D13B6A002274
:101010005A643B6A9B6CB3F1FF3F02D13B6A0022EA
:101020009A64FFF78DFD07F114023B1D1046194627
:1010300000F036FD0346002B2BD1386A00F016F97C
:101040000346002B1FD03B6A1B68002B08D1FFF71B
:101050005FFD3B6A5B68184600F028FFFFF770FDF4
:101060003B6A03F124027B681046194600F03CFC01
:10107000386A00F0AFF800F0BBFA0346002B0FD13E
:10108000FFF736FD0CE0386A00F0A4F800F0B0FA83
:1010900068E7386A00F09EF800F0AAFA002300E042
:1010A00060E718462837BD4680BD00BF80B586B0D2
:1010B00000AFF860B9607A6000237B61FB681B6C4D
:1010C000002B0DD1FB681B68002B52D1FB685B68BD
:1010D000184600F061FF7861FB6800225A6048E022
:1010E0007B68002B1AD1FB689A68FB681B6C104662
:1010F000B9681A4604F04CFCFB689A68FB681B6CE4
:101100001A44FB689A60FB689A68FB685B689A42BD
:101110002FD3FB681A68FB689A602AE0FB68DA68DC
:10112000FB681B6C1046B9681A4604F031FCFB687A
:10113000DA68FB681B6C5B421A44FB68DA60FB6888
:10114000DA68FB681B689A4207D2FB685A68FB683A
:101150001B6C5B421A44FB68DA607B68022B08D187
:10116000FB689B6B002B04D0FB689B6B5A1EFB68D3
:101170009A63FB689B6B5A1CFB689A637B691846F1
:101180001837BD4680BD00BF80B582B000AF786023
:1011900039607B681B6C002B19D07B68DA687B6830
:1011A0001B6C1A447B68DA607B68DA687B685B6872
:1011B0009A4203D37B681A687B68DA607B68DA68D6
:1011C0007B681B6C386811461A4604F0E1FB08374F
:1011D000BD4680BD80B582B000AF7860FFF798FC57
:1011E00014E07B685B6A002B0AD07B6824331846C6
:1011F00000F0ECFB0346002B03D000F095FC00E070
:1012000008E07B689B6C5A1E7B689A647B689B6CC9
:10121000002BE6DC7B684FF0FF329A64FFF790FC0E
:10122000FFF776FC14E07B681B69002B0FD07B680E
:101230001033184600F0CAFB0346002B01D000F023
:1012400073FC7B685B6C5A1E7B685A6400E003E0A9
:101250007B685B6C002BE6DC7B684FF0FF325A64E6
:10126000FFF76EFC0837BD4680BD00BF80B584B077
:1012700000AF7860FFF74CFC7B689B6B002B02D1C2
:101280000123FB6001E00023FB60FFF759FCFB68D2
:1012900018461037BD4680BD80B584B000AF786079
:1012A000FFF736FC7B689A6B7B68DB6B9A4202D156
:1012B0000123FB6001E00023FB60FFF741FCFB68BA
:1012C00018461037BD4680BD80B485B000AF786049
:1012D00039600023FB6014E00E4BFA6853F832309B
:1012E000002B0BD10B4BFA68396843F83210094ACE
:1012F000FB68DB0013447A685A6005E0FB68013341
:10130000FB60FB68092BE7D91437BD465DF8047B09
:10131000704700BF6425002080B584B000AF7860BE
:1013200039607B68FB60FFF7F3FBFB685B6CB3F134
:10133000FF3F02D1FB6800225A64FB689B6CB3F14B
:10134000FF3F02D1FB6800229A64FFF7F9FBFB68BC
:101350009B6B002B05D1FB6824331846396800F0DD
:1013600003FBF868FFF736FF1037BD4680BD00BFAE
:1013700080B500AF014803F079FD80BD00800840D2
:1013800080B58AB002AFF860B9603B601346FB805D
:10139000FB881846396B00F00FFDB861BB69002B64
:1013A00065D0BB691A6BFB8803F18043013B9B004E
:1013B00013447B617B6923F007037B61FB88009307
:1013C000B869B968BA6A7B6B00F0FEFB7869F968A6
:1013D0003A68FFF7D9FA0246BB691A60FB6A002B2C
:1013E00002D0FB6ABA691A60FFF792FB284B1B68B0
:1013F0005A1C274B1A60274B1B68002B09D1254B21
:10140000BA691A60224B1B68012B0FD100F026FC31
:101410000CE0214B1B68002B08D11E4B1B68DA6ABD
:10142000BB6A9A4202D81B4BBA691A601B4B1B68F5
:101430005A1C1A4B1A60BB69DB6A01229A40184B8E
:101440001B681A43164B1A60BB69DA6A13469B0085
:1014500013449B00134A1A44BB69043310461946CF
:10146000FFF70CFA0123FB61FFF76AFB02E04FF084
:10147000FF33FB61FB69012B05D1074B1B68002B78
:1014800001D0044B1B68FB6918462037BD4680BD60
:1014900000250020642400200C2500201C250020AD
:1014A000082500206824002080B584B000AF786053
:1014B0000023FB607B68002B23D0164B1B6800F0D9
:1014C00061F8154B1A687B681344BB60134B1B68AB
:1014D00004331846FFF72EFA0346002B0BD10F4BAF
:1014E0001B68DB6A012202FA03F3DA430C4B1B6828
:1014F0001A400B4B1A60B86800F028FC00F078F82E
:10150000F860FB68002B01D1FFF7F2FA1037BD46F7
:1015100080BD00BF20250020042500206424002079
:101520000825002080B586B004AF00230093002377
:10153000019300230293002303930E480E498C224B
:101540000023FFF71DFF78607B68012B02D100F0BC
:10155000A1FD78607B68012B09D1FFF703FB074BE6
:1015600001221A60064B00221A60FFF763FA08375F
:10157000BD4680BD411B0000D05900000C25002055
:101580000425002080B400AF044B1B685A1C034B99
:101590001A60BD465DF8047B704700BF202500201F
:1015A00080B483B000AF0E4B1B68DB6A002B02D007
:1015B00000237B600CE00B4B1B68012B02D900233E
:1015C0007B6005E0084B1A68084B1B68D31A7B60E8
:1015D0007B6818460C37BD465DF8047B704700BF3A
:1015E000642400206824002004000020042500203A
:1015F00080B582B000AF00237B60324B1B68FFF7E1
:1016000087FA304B1B685A1E2E4B1A602D4B1B68F5
:10161000002B4FD12C4B1B68002B4BD02EE02B4BBB
:10162000DB68DB683B603B6818331846FFF782F9DC
:101630003B6804331846FFF77DF93B68DB6A0122FB
:101640009A40234B1B681A43214B1A603B68DA6AA5
:1016500013469B0013449B001E4A1A443B68043304
:1016600010461946FFF70AF93B68DA6A1A4B1B68FD
:10167000DB6A9A4202D3194B01221A60134B1B6892
:10168000002BCCD1164B1B68002B11D00CE000F0C6
:1016900053F80346002B02D0104B01221A60104B66
:1016A0001B685A1E0E4B1A600D4B1B68002BEED1A7
:1016B0000A4B1B68FFF744FA7B6818460837BD469B
:1016C00080BD00BF2025002000250020C024002070
:1016D0000825002068240020642400201425002010
:1016E0001025002080B582B000AFFFF711FA054B3E
:1016F0001B687B60FFF724FA7B6818460837BD46F5
:1017000080BD00BF0425002080B483B000AF7860A6
:10171000074B1B68074B1B68054B1A687B681A440C
:10172000034B1A600C37BD465DF8047B704700BF61
:10173000042500200400002080B586B000AF0023FF
:101740007B613B4B1B68002B68D13A4B1B685A1CD2
:10175000384B1A60374B1B683B613B69002B12D139
:10176000354B1B68344B1B68FB60344B1A68324B9B
:101770001A60324BFA681A60314B1B685A1C304BA6
:101780001A6000F051FB2F4B1B683A699A4244D310
:10179000294B1B681B68002B01D1012300E00023AB
:1017A000002B04D0274B4FF0FF321A6035E0224B5C
:1017B0001B68DB68DB68BB60BB685B687B603A69A1
:1017C0007B689A4203D21F4B7A681A6025E0BB6897
:1017D00004331846FFF7AEF8BB689B6A002B04D0B1
:1017E000BB6818331846FFF7A5F8BB68DB6A01220F
:1017F0009A40154B1B681A43134B1A60BB68DA6A90
:1018000013469B0013449B00104A1A44BB680433E0
:1018100010461946FFF732F8BAE704E00C4B1B6894
:101820005A1C0B4B1A607B6918461837BD4680BDA1
:101830002025002004250020B8240020BC240020FE
:10184000182500200400002008250020682400201E
:101850001025002080B485B000AF1E4B1B68002B04
:1018600003D01D4B01221A602FE01B4B00221A608F
:101870001A4B1B687B607B68B3FA83F3FB70FB78C1
:10188000C3F11F03FB60FA6813469B0013449B00DF
:10189000FA6813469B0013449B00114A1344BB6033
:1018A000BB685B685A68BB685A60BB685A68BB68AB
:1018B00008339A4204D1BB685B685A68BB685A60B7
:1018C000BB685B68DA68074B1A601437BD465DF881
:1018D000047B7047202500201425002008250020C7
:1018E000682400206424002080B584B000AF7860B4
:1018F0003960194B1B68183378681946FEF7E2FF08
:10190000154B1B6804331846FFF714F80346002BE9
:101910000BD1114B1B68DB6A012202FA03F3DA4395
:101920000E4B1B681A400D4B1A603B68B3F1FF3F2A
:1019300007D1094B1B68043309481946FEF79EFF7F
:1019400007E0084B1A683B681344FB60F86800F036
:10195000FDF91037BD4680BD642400200825002015
:10196000EC2400200425002080B584B000AF78600E
:101970003960134B1B68183378681946FEF77EFFF1
:101980000F4B1B6804331846FEF7D4FF0346002BA9
:101990000BD10B4B1B68DB6A012202FA03F3DA431B
:1019A000084B1B681A40074B1A60074B1A683B68C4
:1019B0001344FB60F86800F0C9F91037BD4680BDDC
:1019C00064240020082500200425002080B584B070
:1019D00000AF78607B68DB68DB68BB60BB6818338E
:1019E0001846FEF7A7FF1D4B1B68002B1CD1BB68D8
:1019F00004331846FEF79EFFBB68DB6A01229A405B
:101A0000174B1B681A43164B1A60BB68DA6A1346F9
:101A10009B0013449B00134A1A44BB6804331046CE
:101A20001946FEF72BFF05E0BB6818330E48194630
:101A3000FEF724FFBB68DA6A0C4B1B68DB6A9A422C
:101A400005D90123FB600A4B01221A6001E0002343
:101A5000FB60FB6818461037BD4680BD202500207E
:101A60000825002068240020C024002064240020D1
:101A70001425002080B483B000AF7860064B1A684C
:101A80007B681A60054B1A687B685A600C37BD4644
:101A90005DF8047B704700BF182500200425002056
:101AA00080B584B000AF78603960FFF731F81C4B27
:101AB0001B68BB603B681B68B3F1FF3F02D100238A
:101AC000FB6026E07B681A68164B1B689A4207D0B9
:101AD0007B685A68BB689A4202D80123FB6018E011
:101AE0007B685B68BA68D21A3B681B689A420ED260
:101AF0003B681A687B685968BB68CB1A1A443B6814
:101B00001A607868FFF7B6FF0023FB6001E001234D
:101B1000FB60FFF715F8FB6818461037BD4680BD1F
:101B2000042500201825002080B400AF034B0122BB
:101B30001A60BD465DF8047B704700BF1425002085
:101B400080B584B000AF786000F09EFA00F0C4F871
:101B5000FEF7CEFFFFF724FDF860FB68012B10D9DC
:101B6000FFF710FD074B1B68074B1B68FFF718FDBD
:101B7000F860FB68012B02D9F868FEF74FFCFFF70D
:101B800037FDE1E7040000200425002080B483B085
:101B900000AF0123FB710A4B1B68002B02D000230E
:101BA000FB7105E0074B1B68002B01D00023FB7184
:101BB000FB7918460C37BD465DF8047B704700BFC3
:101BC000C02400201425002080B586B000AFF86046
:101BD000B9607A603B6000237B6112E0BA687B6980
:101BE00013441A78F9687B690B4430331A71BA6868
:101BF0007B6913441B78002B00D105E07B6901331E
:101C00007B617B69092BE9D9FB68002283F83D20C1
:101C10007B68012B01D901237B60FB687A68DA625B
:101C2000FB687A681A64FB6800225A64FB68043314
:101C30001846FEF717FEFB6818331846FEF712FE2B
:101C4000FB68FA681A617B68C3F10202FB689A615B
:101C5000FB68FA685A621837BD4680BD80B582B00D
:101C600000AF00237B600CE07A6813469B001344AE
:101C70009B00114A13441846FEF7D4FD7B680133DC
:101C80007B607B68012BEFD90C48FEF7CBFD0C483D
:101C9000FEF7C8FD0B48FEF7C5FD0B48FEF7C2FD79
:101CA0000A48FEF7BFFD0A4B044A1A60094B044A72
:101CB0001A600837BD4680BD6824002090240020AB
:101CC000A4240020C0240020D4240020EC240020E0
:101CD000B8240020BC24002080B582B000AF28E0EA
:101CE000FFF750FC164B1B68002B14BF0023012389
:101CF000DBB27B60FFF77CFC7B68002B19D1FEF721
:101D000007FF0F4BDB68DB683B603B68043318461A
:101D1000FEF710FE0B4B1B685A1E0A4B1A600A4B4B
:101D20001B685A1E084B1A60FEF70AFF386800F05D
:101D30006BF8054B1B68002BD2D10837BD4680BD20
:101D4000D424002000250020E824002080B582B0A3
:101D500000AF7860134B1B687A685A60124B1B689F
:101D60007A689A4209D2114B1A680E4B1B680433E9
:101D700010461946FEF7A6FD10E00D4B1A68094BF8
:101D80001B68043310461946FEF79CFD094B1B687F
:101D90007A689A4202D2074B7A681A600837BD46C1
:101DA00080BD00BF6424002004250020BC24002046
:101DB000B82400200400002080B584B000AF0346A2
:101DC0003960FB804820FEF7DDFCF860FB68002BE3
:101DD00015D03B68002B06D1FB889B001846FEF708
:101DE000D1FC034600E03B68FA681363FB681B6B99
:101DF000002B04D1F868FEF70BFD0023FB60FB68A5
:101E000018461037BD4680BD80B582B000AF7860FF
:101E10007B681B6B1846FEF7FBFC7868FEF7F8FC46
:101E20000837BD4680BD00BF80B483B000AF0E4B05
:101E30001B681B68002B01D1012300E00023002B4D
:101E400004D00A4B4FF0FF321A6008E0064B1B68C3
:101E5000DB68DB687B607B685A68044B1A600C3770
:101E6000BD465DF8047B7047B824002004000020C4
:101E700080B483B000AF0B4B1B68002B02D1012351
:101E80007B6008E0084B1B68002B02D102237B60BB
:101E900001E000237B607B6818460C37BD465DF887
:101EA000047B70470C2500202025002080B584B0DD
:101EB00000AF78607B68FB607B68002B62D0FB68BA
:101EC000DA6A324B1B68DB6A9A425BD2FB689B6919
:101ED000002B06DB2D4B1B68DB6AC3F10202FB689B
:101EE0009A61FB685969FB68DA6A13469B001344E0
:101EF0009B00274A1344994201D1012300E00023AB
:101F0000002B3AD0FB6804331846FEF713FD034656
:101F1000002B15D1FB68DA6A1D4913469B00134458
:101F20009B000B441B68002B0AD1FB68DB6A012273
:101F300002FA03F3DA43174B1B681A40154B1A6079
:101F4000124B1B68DA6AFB68DA62FB68DB6A012203
:101F50009A40104B1B681A430E4B1A60FB68DA6AF2
:101F600013469B0013449B00094A1A44FB68043340
:101F700010461946FEF782FC04E0044B1B68DA6A3F
:101F8000FB68DA621037BD4680BD00BF64240020C4
:101F9000682400200825002080B584B000AF786058
:101FA0007B68BB600023FB607B68002B4FD0BB6865
:101FB0005B6C5A1EBB685A64BB68DA6ABB681B6CF0
:101FC0009A4244D0BB685B6C002B40D1BB680433A1
:101FD0001846FEF7AFFC0346002B15D1BB68DA6A42
:101FE0001D4913469B0013449B000B441B68002BA8
:101FF0000AD1BB68DB6A012202FA03F3DA43174B0A
:102000001B681A40154B1A60BB681A6CBB68DA6211
:10201000BB68DB6AC3F10202BB689A61BB68DB6A1A
:1020200001229A400D4B1B681A430C4B1A60BB6887
:10203000DA6A13469B0013449B00074A1A44BB68A4
:10204000043310461946FEF719FC0123FB60FB68B8
:1020500018461037BD4680BD6824002008250020A2
:1020600080B400AF074B1B68002B04D0054B1B68E6
:102070005A6C01325A64034B1B681846BD465DF822
:10208000047B70476424002080B500AFFFF770F92F
:1020900080BD00BF80B586B004AF00237B6000F038
:1020A00031FA0C4B1B68002B0ED001230093002348
:1020B00001930023029300230393074807498C22CE
:1020C0000023FFF75DF978607B6818460837BD4646
:1020D00080BD00BF54250020D1210000D859000048
:1020E00080B588B000AFF860B9607A603B600023CB
:1020F000FB611D4B1B68002B30D0BB683B617B68CC
:102100007B61FB68BB61BB68052B1CDCFFF7B0FE85
:102110000346022B0BD1144B1A6807F1100310462B
:102120001946BA6A0023FEF701FEF86116E00E4B6D
:102130001A6807F110031046194600220023FEF723
:10214000F5FDF8610AE0084B1A6807F11003104624
:1021500019463A680023FEF789FEF861FB691846C4
:102160002037BD4680BD00BF5425002080B586B015
:1021700002AF78603960154B1B68DB68DB68FB6079
:10218000FB6804331846FEF7D5FBFB68DB69012BBF
:1021900015D1FB689A697B681344F86819463A6858
:1021A0007B6800F0A1F80346012B08D100230093BF
:1021B000F86800217A680023FFF792FFB860FB6897
:1021C0005B6AF86898471037BD4680BD4C250020F3
:1021D00080B584B000AF786007F10803184600F0BE
:1021E0003FF8F860BB68F868194600F003F800F0A3
:1021F000BDF8F1E780B584B000AF78603960FFF7D3
:10220000C1F907F10803184600F04EF8F860BB6802
:10221000002B1ED13B68002B0AD17A68FB689A42DA
:1022200006D8FFF7E5F97868F968FFF79FFF12E035
:102230000A4B1A687968FB68CB1A10461946FFF7F3
:102240006BF8FFF7D5F90346002B04D1FEF750FCDD
:1022500001E0FFF7CDF91037BD4680BD54250020C1
:1022600080B485B000AF78600E4B1B681B68002BF4
:1022700014BF00230123DBB21A467B681A607B6817
:102280001B68002B05D1074B1B68DB681B68FB60D4
:1022900001E00023FB60FB6818461437BD465DF87B
:1022A000047B70474C25002080B584B000AF786077
:1022B000FFF718FAF8600B4B1B68FA689A4205D2D0
:1022C00000F0CEF87B6801221A6002E07B680022F1
:1022D0001A60044BFA681A60FB6818461037BD464E
:1022E00080BD00BF5825002080B586B000AFF860E3
:1022F000B9607A603B6000237B61FB68BA685A6012
:10230000FB68FA681A61BA687B689A4212D87A68E0
:102310003B68D21AFB689B699A4202D301237B6116
:102320001BE0104B1A68FB68043310461946FEF791
:10233000C9FA12E07A683B689A4206D2BA683B68EA
:102340009A4202D301237B6107E0074B1A68FB68BE
:10235000043310461946FEF7B5FA7B69184618375C
:10236000BD4680BD502500204C25002080B58AB098
:1023700002AF63E0BB68002B60DB3B69FB61FB697C
:102380005B69002B04D0FB6904331846FEF7D2FAD0
:102390003B1D1846FFF788FFB861BB68092B4CD876
:1023A00001A252F823F000BFD1230000D123000086
:1023B000D12300003B240000172400003324000038
:1023C000D1230000D12300003B240000172400008B
:1023D000FA68FB699B691A44FB68F8691146BA6997
:1023E000FFF782FF0346012B14D1FB695B6AF86992
:1023F0009847FB69DB69012B0CD1FA68FB699B6983
:10240000134400220092F86900211A460023FFF7C6
:1024100067FE786112E0FA68FB699A61FB699A6964
:10242000BB691344F8691946BA69BB69FFF75CFFD9
:1024300004E0F869FEF7ECF900E000BF074B1A680A
:1024400007F108031046194600220023FEF76EFD2F
:102450000346002B8ED12037BD4680BD5425002079
:1024600080B588B002AF37E0244B1B68DB681B687F
:102470007B61224B1B68DB68DB683B613B69043393
:102480001846FEF757FA3B695B6A386998473B691B
:10249000DB69012B20D13B699A697B691344FB609E
:1024A000FA687B699A420ED93B69FA685A603B69BF
:1024B0003A691A61114B1A683B6904331046194690
:1024C000FEF700FA08E000230093386900217A69DA
:1024D0000023FFF705FEB860084B1B681B68002B44
:1024E000C2D1064B1B687B60054B1A68034B1A6010
:1024F000034B7A681A601837BD4680BD4C25002012
:102500005025002080B500AFFEF702FB124B1B6880
:10251000002B1DD11148FEF785F91148FEF782F90D
:10252000104B0E4A1A60104B0D4A1A600A200C21FB
:102530000022FEF7C3FB0246074B1A60064B1B68DE
:10254000002B05D0044B1B6818460849FEF7BCFE5B
:10255000FEF7F6FA80BD00BF542500202425002098
:10256000382500204C25002050250020E05900008F
:1025700080B483B000AF0346FB71084B97F9072086
:102580005209F97901F01F01012000FA01F143F825
:1025900022100C37BD465DF8047B704700E100E077
:1025A00080B485B000AFF860B9607A60FA68BB6843
:1025B0001B01134438337A685A601437BD465DF8FE
:1025C000047B704780B483B000AF786039607B686B
:1025D000DA683B681A437B68DA600C37BD465DF801
:1025E000047B704780B483B000AF786039607B684B
:1025F0003A68DA610C37BD465DF8047B704700BF6E
:1026000080B582B000AF78600348796802F050FC72
:102610000837BD4680BD00BF0080084080B500AFD0
:1026200000F022F800F036F800F048F800F0C2F8A8
:1026300000F008F900F038F900F04CF900F07EF9EC
:1026400000F0B0F900F0E2F900F008FA00F034FA16
:1026500000F050FA00F054FA00F0D6FA00F0DAFA7E
:1026600000F0DEFA80BD00BF80B500AF074B074A1F
:10267000126822F003021A60044B044A126822F026
:102680000C021A60024802F02DFD80BD00800C4053
:102690000048E80180B400AF074B074A126822F4F3
:1026A000C0521A60044B044A126842F400521A6085
:1026B000BD465DF8047B704700800C4080B500AFDC
:1026C00000200121012201F0F3FA02200121012260
:1026D00001F0EEFA2648022101F04AFA0120042115
:1026E00001F046FA2348012101F0D0F822480121E7
:1026F00001F0CCF81E48022101F03AFA1F480221ED
:1027000001F036FA1E48012101F0C0F81D480121F0
:1027100001F0BCF81C48012101F0B8F81B48012168
:1027200001F0B4F81A48012101F0B0F8194801216C
:1027300001F0ACF81848012101F0A8F81748012170
:1027400001F0A4F81648012101F0A0F81548012174
:1027500001F09CF81448012101F098F81348012178
:1027600001F094F81248012101F090F880BD00BFFB
:1027700002001800408104000023020003001A0038
:1027800000E204000013020000F2040060161200D0
:10279000700714006006100000420400005204009C
:1027A0000062040000320400000204000022040061
:1027B00000C2040080B586B000AF00233B74002344
:1027C0007B740023BB741F23FB7400233B75002321
:1027D0007B7500233B7100237B710023BB710023B9
:1027E000FB710023BB6000233B7300237B7300233A
:1027F000BB730023FB7300233B74002000F032FE08
:102800000346FB740D48002100F0FAFD03463B75BA
:1028100007F110030A48194600F05EFD0223BB7160
:102820004FF4E043BB600123FB713B1D0448194694
:1028300000F096FD1837BD4680BD00BFC0CF6A00CE
:102840000020004080B588B000AF00233B76144BD9
:10285000FB6107F11803184601F07CFC00233B7173
:1028600000237B710F4BBB600023FB603B1D0020EE
:10287000194601F0EFFB02233B7403237B74022310
:10288000BB740023FB7400233B7507F11003002089
:1028900001211A4601F026FC2037BD4680BD00BF4D
:1028A000002600200100080080B582B000AF084A71
:1028B0003B1D1188927819809A7000237B71012347
:1028C000BB713B1D184602F09FF80837BD4680BD1E
:1028D000E8590000B0B586B000AF164B3C1D1D4650
:1028E0000FCD0FC42B6823604FF4E133FB60052349
:1028F0007B7400237B824FF48053BB8200233B74A4
:102900003B1D0D48194602F007FA00233B700023D7
:102910007B700023BB7000233B7000237B7000237F
:10292000BB703B460448194602F034FA1837BD46DE
:10293000B0BD00BFEC59000000C00040B0B586B08B
:1029400000AF164B3C1D1D460FCD0FC42B682360F6
:102950004FF4E133FB6005237B7400237B824FF44B
:102960008053BB8200233B743B1D0D48194602F087
:10297000D3F900233B7000237B700023BB7000233E
:102980003B7000237B700023BB703B460448194614
:1029900002F000FA1837BD46B0BD00BFEC59000088
:1029A00000C80040B0B586B000AF164B3C1D1D46B8
:1029B0000FCD0FC42B6823604FF4E133FB60052378
:1029C0007B7400237B824FF48053BB8200233B74D3
:1029D0003B1D0D48194602F09FF900233B70002370
:1029E0007B700023BB7000233B7000237B700023AF
:1029F000BB703B460448194602F0CCF91837BD4677
:102A0000B0BD00BFEC59000000E0004090B585B0BB
:102A100000AF104B3C460FCB84E80F0005233B7002
:102A20004FF41653BB6000233B7300237B730023DA
:102A3000BB733B460848194601F0D8FE0648002102
:102A400001F016FF0448002101F030FF1437BD46A5
:102A500090BD00BF005A00000040084080B584B01F
:102A600000AF1348012100F011FF012001210122D4
:102A700001F01EF90F4A3B1D1068516803C3127A1A
:102A80001A7000237B710023FB7208233B73002321
:102A90007B7200233B720023BB720023FB71002377
:102AA000BB713B1D1846FFF7ABFD1037BD4680BD1F
:102AB00000230200105A000090B585B000AF0A4B09
:102AC0003C460FCB84E80F0001233B7001237B7051
:102AD000064BBB6000233B733B460548194601F09B
:102AE000E5FD1437BD4690BD1C5A0000486B01003F
:102AF00000A0004080B400AFBD465DF8047B704785
:102B000080B586B000AF01233B7300237B730023A5
:102B1000BB730023FB7300233B7400237B740023EF
:102B2000BB740023FB7400233B7500237B750023DB
:102B3000BB7500233B7300237B730023FB740023CE
:102B4000BB750023FB730123BB7300233B7400237D
:102B50007B740023BB7400233B7500237B7500232B
:102B60003B7000237B700023BB700023FB700023AD
:102B70003B7100237B710023BB710023FB71002399
:102B80003B7200237B720023BB7200233B72022343
:102B90007B700323BB7100233B700023FB71002378
:102BA0003B710023FB7001237B7100237B720023A8
:102BB000BB723B46124800211A4601F0F5FF104B4C
:102BC0000F4A926A42F001029A620E484FF4FA618B
:102BD000FFF708FD0B4800210022FFF7E1FC094840
:102BE0000121FFF7EFFC0220FFF7C2FC07F10C0305
:102BF0000348194601F06AFF1837BD4680BD00BF83
:102C0000000401400000014080B400AFBD465DF803
:102C1000047B704780B400AFBD465DF8047B70470D
:102C200080B400AF7A4B7A4A526822F00F0242F029
:102C30000B025A60764B764A526822F0F00242F05C
:102C4000B0025A60724B724A926A22F4704242F4A5
:102C500080429A626E4B6E4A926A22F4702242F46B
:102C600080329A626A4B6A4A926A22F4700242F493
:102C700080029A62664B664A926A22F0706242F063
:102C800080629A62624B624AD26C22F00F0242F07A
:102C90000402DA645E4B5E4AD26C22F0F00242F02B
:102CA0001002DA645A4B5A4AD26C22F4706242F42F
:102CB0008062DA64564B564AD26C22F4704242F477
:102CC0008052DA64524B524AD26C22F4702242F49F
:102CD0008022DA644E4B4E4AD26C22F4700242F4E7
:102CE0008002DA644A4B4A4A126D22F4706242F45E
:102CF00080621A65464B464A126D22F0706242F0BD
:102D000080621A65424B424AD2F8982022F47062DF
:102D100042F48062C3F898203D4B3D4AD2F8982097
:102D200022F4704242F48052C3F89820384B384A5B
:102D3000D2F8982022F0706242F08062C3F89820A6
:102D4000334B334AD2F8982022F0704242F080523E
:102D5000C3F898202E4B2E4AD2F8B82022F0706289
:102D600042F08062C3F8B820294B294AD2F8B82033
:102D700022F0704242F08052C3F8B820244B244A1B
:102D8000D2F8202122F4407242F48072C3F820214C
:102D90001F4B1F4AD2F8202142F00402C3F8202121
:102DA0001C4B1C4A926B42F003029A631A4B1A4A5C
:102DB000526D22F4407242F400725A65164B164A64
:102DC000526D42F003025A65144B144A926A42F063
:102DD00001029A62124B124A526D42F003025A6586
:102DE000104B104A526D42F003025A650E4B0E4AC8
:102DF000526D22F4407242F480725A650A4B0A4ABC
:102E0000526D42F00F025A65BD465DF8047B704773
:102E10000060004000A00040004008400004014065
:102E200000E0004000C0004000C8004080B483B013
:102E300000AF78600B46FB70FA787B685A600C37FD
:102E4000BD465DF8047B704780B588B002AF0023B3
:102E50007B6107F10C03184601F0FEFD7B7B012B23
:102E600004D13B7B012B01D101237B61FFF70CF9DE
:102E70003B46314A009202220192002001210022A9
:102E800001F0C8F82D480421FFF7D0FF00BF2B4BFD
:102E90009B6803F00203002BF9D17B69002B18D04B
:102EA00000233B6112E03B699B0007F118010B44D2
:102EB00053F8182C7B699A403B699B0007F1180175
:102EC0000B4443F8182C3B6901333B613B69022BEF
:102ED000E9DD00233B6123E03B699B0007F1180219
:102EE000134453F8183C184602F070FA02460B4699
:102EF000104619460EA3D3E9002302F0DDFA02467C
:102F00000B461046194602F0E9FC02463B699B005D
:102F100007F118010B4443F8182C3B6901333B615E
:102F20003B69022BD8DD41F28830FEF7BDFA9DE700
:102F30007B14AE47E17A4A3F282000400020004041
:102F400080B500AFFFF7A0F841F28830FEF7ACFA89
:102F5000F8E700BF80B500AFFFF796F841F2883080
:102F6000FEF7A2FAF8E700BF80B500AFFFF78CF8D4
:102F700041F28830FEF798FAF8E700BF80B584B0D8
:102F800000AF514B1B68FB60FB681B0E002B15D17B
:102F90004E4BBB60BB681B6823F07002BB681A60B5
:102FA0004B4BBB60BB681B6823F06042BB681A6078
:102FB000BB681B6863F06062BB681A60FB681B0E2D
:102FC000032B20D8424BBB60BB681B6823F4FC5228
:102FD000BB681A603F4BBB60BB6800221A603E4B67
:102FE000BB60BB6800221A603C4BBB60BB68002220
:102FF0001A603B4BBB60BB6800221A60394BBB6058
:10300000BB6800221A603B46184601F025FD7B781C
:10301000012B15D13B78002B07D12E4BBB60BB6831
:103020001B6843F00202BB681A603B78012B07D88B
:10303000294BBB60BB681B6843F00102BB681A6088
:10304000294B1B68FB60FA68284B9A4239D8224BFF
:10305000BB60BB681B6843F49042BB681A60244B9A
:103060001B6803F4FE431B0A1B067B60204B1B6896
:1030700003F07F031B047A6813437B601C4B1B68BF
:1030800003F4FE437A6813437B60194B1B6803F01B
:103090007F037A6813437B60164BBB60BB687A681A
:1030A0001A60154BBB60154B1B687B60BB687A6868
:1030B0001A60094BBB60BB681B6823F49042BB6875
:1030C0001A601037BD4680BDFC81E00F0CA00C409B
:1030D00020600C4040800C4044800C4058800C40E4
:1030E00060800C4078800C40F081E00FFFB98A4C82
:1030F000B481E00F342000402C400040C881E00F34
:1031000080B584B004AFFFF739FFFFF787FA0020DE
:103110000021FDF775FA0320FDF7ACFA01230093B7
:103120000023019300230293002303931A481B49B1
:1031300096220023FEF724F9012300930023019334
:103140000023029300230393154816499622002377
:10315000FEF716F901230093002301930023029345
:10316000002303931048114996220023FEF708F923
:103170000123009300230193002302930023039370
:103180000B480C4996220023FEF7FAF8FEF7CAF91D
:1031900000231846BD4680BD492E00002C5A000071
:1031A000412F0000385A0000552F0000485A0000F7
:1031B000692F0000505A000080B487B000AF7860DB
:1031C00013460A46FA70BB70BB78002B04D010235C
:1031D000FB603E4B3B6103E00023FB603C4B3B61EB
:1031E0007B685A6B3B691340BB6000237B61FB78B3
:1031F000062B5BD801A252F823F000BF1932000061
:10320000373200005B32000079320000AD3200003E
:10321000AD3200009D3200002E4B5B6803F4FE438C
:103220007A6913437B612B4B5B6803F07F037A69F8
:1032300013437B613DE0274B5B6803F0FE431B0EAD
:103240001B027A6913437B61224B5B6803F4FE0324
:103250001B0C7A6913437B612BE01E4B9B6803F4C4
:10326000FE437A6913437B611A4B9B6803F07F032B
:103270007A6913437B611CE0164B9B6803F0FE43A5
:103280001B0E1B027A6913437B61124B9B6803F48C
:10329000FE031B0C7A6913437B610AE00D4BDB686C
:1032A00003F07F037A6913437B6102E000237B61B3
:1032B00000BFFB687A699A40BB681A437B685A630F
:1032C0001C37BD465DF8047B704700BFFFFF808060
:1032D0008080FFFFB081E00F80B584B000AF7860E0
:1032E00039603B681B79FB72FB7A002B06D11B48C7
:1032F000002100F085F80346FB7208E01748002122
:1033000000F07EF84FF4FA40002100F079F87B6875
:103310000A225A603B681B781A063B68DB781B045C
:1033200003F4F8131A43FB7A1B0203F4FE431A4317
:103330003B685B781B011A433B689B781343FB6037
:103340003B685B79002B03D0FB6843F00803FB600C
:103350007B68FA681A601037BD4680BD405DC600C4
:1033600080B584B000AF786039607B6808225A600D
:103370003B689B78786819460122FFF71DFF3B6880
:103380001B781A073B685B781B0513431A463B689A
:103390005B681A433B68DB781B011343FB603B68A7
:1033A0005B7A002B03D0FB6843F08073FB603B68C3
:1033B0009B7A002B03D0FB6843F00403FB603B685F
:1033C0001B7A002B03D0FB6843F00203FB603B68D1
:1033D000DB7A002B03D0FB6843F00103FB603B6802
:1033E0009B781B04FA681343FB603B685B68FA68D0
:1033F0001343FB607B68FA681A611037BD4680BDD5
:1034000080B584B000AF786039607A68134B9A4217
:1034100002D9124B7B6006E07B68B3F5FA4F02D20B
:103420004FF4FA437B603B68002B03D10C4800F05B
:103430008BFA38603A687B6813445A1E7B68B2FB8B
:10344000F3F3FB60FB68002B02D0FB68013BFB60E1
:10345000FB68DBB218461037BD4680BD405DC60034
:103460004081040080B582B000AF78607B68002B9B
:1034700008D10E4800F068FA78607B68002B01D113
:1034800001237B607B6803F5742303F23F237B6099
:103490007A68074BA3FB02139B0C7B607B68DBB253
:1034A000013BDBB218460837BD4680BD40810400B1
:1034B00083DE1B4380B487B000AFF860B9607A60E8
:1034C000FB6803F10473DA00BB6813449B007B6163
:1034D0007B697A681A601C37BD465DF8047B7047CB
:1034E00080B485B000AF786039607B6803F1047305
:1034F000DA003B6813449B00FB60FB681B681846BE
:103500001437BD465DF8047B704700BF80B485B0BA
:1035100000AF78607B68002B04D07B68B3F5004F68
:1035200000D800BF7B68B3FA83F3C3F11F03FB60CD
:10353000FB6818461437BD465DF8047B704700BF32
:1035400080B483B000AF044B7B607B6818460C37B7
:10355000BD465DF8047B7047809FD50080B582B082
:1035600000AF0D4800F08EFA0346FB70FB78072B86
:1035700005D0082B07D101F03DFD786006E0FFF78C
:10358000DFFF786002E000237B6000BF7B681846A5
:103590000837BD4680BD00BF06000C0080B485B072
:1035A00000AF7860214BDB6B002B0CBF00230123A5
:1035B000BB721E4B41F67132DA631C4B5B6803F041
:1035C0000703FB60FB68012B02D80023FB7202E0BB
:1035D0000123FB7200BF7A68154B9A420BD87A68B8
:1035E000144B9A4207D9FB7A002B01D0032300E049
:1035F0000123FB6006E0FB7A002B01D0022300E0F0
:103600000023FB60094B094A526822F00701FA685F
:103610000A435A60BB7A002B02D0044B0022DA63C3
:103620001437BD465DF8047B704700BF00000C40B6
:103630000048E8010024F40080B500AF01F0D0FCA0
:1036400003461846FFF7AAFF80BD00BF80B584B0CF
:1036500000AF78600023BB607B68254A934203D0AB
:10366000244A934200D000E000BF786800F00AFAD4
:103670000346FB607B681E4A934203D01D4A934277
:1036800006D00CE01C4B9B6A03F00303FB6006E0D2
:10369000194B9B6A03F00C039B08FB6000BFFB689F
:1036A000032B1CD801A252F823F000BFD93600002A
:1036B000BD360000C5360000CD36000001F02EFDFD
:1036C000B8600FE001F034FDB8600BE001F06EFC73
:1036D00003465B08BB6005E00023BB6002E00023FB
:1036E000BB6000BFBB6818461037BD4680BD00BF39
:1036F0000200180003001A0000800C4080B483B060
:1037000000AF7860094B5B6D03F00103002B00D024
:1037100006E000BF054B1A6D7B681340002BF9D102
:103720000C37BD465DF8047B704700BF00800C403D
:1037300080B584B000AF786039607B681B0903F006
:103740000F03FB60FB68043B032B00F2918001A296
:1037500052F823F0653700008F370000C9370000AA
:103760001D3800003B68002B04D03B68B3F5007F98
:1037700000D800BF3868FFF7C9FE38603E4B3E4AAC
:10378000926822F00F013A680A439A6071E03B6840
:10379000002B04D03B68B3F5007F00D800BFFFF7D3
:1037A0004BFF3868FFF7B2FE3860334B324A52683D
:1037B00022F00F013A680A435A6001F0F7FBB86043
:1037C000B868FFF7EBFE54E07B682C4A934203D0C5
:1037D0002B4A934210D020E00420FFF78FFF386877
:1037E000FFF794FE3860244B234A926E22F00F01BB
:1037F0003A680A439A6610E00420FFF77FFF3868B2
:10380000FFF784FE38601C4B1B4A926E22F0F001D9
:103810003A6812010A439A6600BF2AE07B68194A97
:10382000934203D0184A934210D020E04020FFF783
:1038300065FF3868FFF76AFE38600F4B0E4A126F5B
:1038400022F003013A680A431A6710E04020FFF7AC
:1038500055FF3868FFF75AFE3860074B064A126F6B
:1038600022F030013A6812010A431A6700BF00E0F3
:1038700000BF1037BD4680BD00800C4060061000C0
:1038800060161200700714007017160080B586B01D
:1038900000AF78600B46FB7000233B617B681B0A1E
:1038A00003F00F03013B092B3ED801A252F823F08D
:1038B000DF380000E5380000D93800002939000061
:1038C00029390000EB380000F538000029390000E4
:1038D00029390000FF380000154B7B6112E0154BC1
:1038E0007B610FE0144B7B610CE0144B7B61012387
:1038F0003B6107E0124B7B6110233B6102E0114BFF
:103900007B6100BF7B681B0B03F01F03FB603B69FF
:10391000002B02D03869FFF7F1FEFB787869F9686F
:103920001A46FFF7C7FD00E000BF1837BD4680BD4F
:1039300040800C4008800C4044800C4058800C4073
:1039400060800C4078800C4080B584B000AF786017
:103950007B6803F47813B3F5801F42D0B3F5801F62
:1039600012D8B3F5802F27D0B3F5802F05D8002BC0
:103970001ED0B3F5003F2BD076E0B3F5402F6BD0CF
:10398000B3F5602F6CD06FE0B3F5B01F56D0B3F530
:10399000B01F06D8B3F5901F30D0B3F5A01F40D0AC
:1039A00062E0B3F5C01F17D0B3F5D01F34D05BE091
:1039B00001F020FBF8605AE001F01CFBF8602E4B90
:1039C0009B6803F00F03FA6822FA03F3FB604EE0F2
:1039D00001F0ECFAF8604AE02848FFF737FEF8609B
:1039E00045E02648FFF732FEF860234B9B6E03F05C
:1039F0000F03FA6822FA03F3FB6038E01F48FFF771
:103A000025FEF8601C4B9B6E03F0F0031B09FA685F
:103A100022FA03F3FB602AE01948FFF717FEF8606B
:103A200025E01748FFF712FEF860134B1B6F03F0F9
:103A30000303FA6822FA03F3FB6018E01048FFF76B
:103A400005FEF8600C4B1B6F03F030031B09FA688E
:103A500022FA03F3FB600AE0FFF780FDF86006E05E
:103A6000FFF76EFDF86002E00023FB6000BFFB681B
:103A700018461037BD4680BD00800C40020018007B
:103A800003001A0080B485B000AF78600123FB7397
:103A90007B6803F00F03BB60BB68013B052B5BD861
:103AA00001A252F823F000BFC13A0000F73A00002B
:103AB000253B0000593B0000593B0000533B0000F0
:103AC0002A4BDB6A03F47053B3F5805F09D0B3F57A
:103AD000005F03D0B3F5006F06D008E00223FB734C
:103AE00008E00323FB7305E00423FB7302E00523D6
:103AF000FB7300BF33E01D4B9B6A03F00303022BF3
:103B000006D0032B07D0012B08D10323FB7308E059
:103B10000223FB7305E00623FB7302E00123FB7322
:103B200000BF1CE0114B9B6A03F00C03082B06D06E
:103B30000C2B07D0042B08D10323FB7308E00223CE
:103B4000FB7305E00623FB7302E00123FB7300BF58
:103B500005E00723FB7302E00023FB7300BFFB7B40
:103B600018461437BD465DF8047B704700800C4052
:103B700080B588B000AF78600B46FB700323FB6113
:103B80000323FB767B6803F00F033B613B69012B4A
:103B900004D0012B7FD3032B7DD837E0FB78023B89
:103BA000032B7AD801A252F823F000BFBD3B0000DE
:103BB000C73B0000D13B0000DB3B00000423FB615E
:103BC0000023FB760EE00323FB610123FB7609E073
:103BD0000223FB610223FB7604E00123FB61032344
:103BE000FB7600BFFB7E18460121012200F060F841
:103BF000FFF722FD2C4BFA695A6200F0A1FC01F09C
:103C0000D5F9F860F868FFF7C9FC49E0FB78013B9B
:103C1000052B44D801A252F823F000BF353C000028
:103C20003B3C00004B3C00009F3C00009F3C0000E0
:103C30005B3C000000237B6117E000200121012292
:103C400000F036F802237B610FE001200121012200
:103C500000F02EF801237B6107E0144802210122C5
:103C6000FFF728FC03237B6100BF3B69022B08D1CF
:103C70000D4B0D4A926A22F003017A690A439A6257
:103C80000EE0094B084A926A22F00C017A69920010
:103C90000A439A6204E000BF02E000BF00E000BFF8
:103CA0002037BD4680BD00BF00800C4040800C40E6
:103CB00080B586B000AF13460246FA710A46BA7163
:103CC0007B71FB79042B4AD801A252F823F000BF84
:103CD0001D3D00000F3D0000F33C0000E53C0000EE
:103CE000013D000001233B610223FB6001237B6156
:103CF0001DE004233B610823FB6003237B6116E086
:103D000010233B612023FB6005237B610FE04023F0
:103D10003B618023FB6007237B6108E04FF48073E5
:103D20003B614FF40073FB6009237B6100BFBB79EB
:103D3000002B0ED00C4B3A691A627B79002B0BD00A
:103D400000BF0A487969FFF7CBFB0346002BF8D088
:103D500002E0054BFA681A6200F0F2FB00E000BFD7
:103D60001837BD4680BD00BF00800C402C800C4041
:103D700080B483B000AF0346FB71084B97F907206E
:103D80005209F97901F01F01012000FA01F143F80D
:103D900022100C37BD465DF8047B704700E100E05F
:103DA00080B483B000AF0346FB71094B97F907203D
:103DB0005209F97901F01F01012000FA01F12032C6
:103DC00043F822100C37BD465DF8047B704700BFF6
:103DD00000E100E080B483B000AF0346FB71094B03
:103DE00097F907205209F97901F01F01012000FA23
:103DF00001F1603243F822100C37BD465DF8047BB8
:103E0000704700BF00E100E080B487B000AFF86009
:103E1000B9607A60FB6803F10473DA00BB6813448D
:103E20009B007B617B697A681A601C37BD465DF830
:103E3000047B704780B489B000AF7860F970BA70C5
:103E40007B707B681A013C4B9B681344BB61BB7859
:103E5000002B02D0BB69FB6105E07B681A01364B81
:103E6000DB681344FB61BB69DB687B617B69002B0A
:103E700002D0BA787B691A72FB6A002B14D0FB69F6
:103E80009B6803F040639B0E3B613B69032B03D1AE
:103E9000FB69FA6A1A6007E03B693A6B9A40FB6A71
:103EA00013441A46FB691A60BB6A002B12D0FB69E7
:103EB0009B689B0F3B613B69032B03D1FB69BA6A8B
:103EC0005A6007E03B693A6B9A40BB6A13441A4652
:103ED000FB695A607B68012202FA03F3FB607B787E
:103EE000002B03D0144BFA689A6102E0124BFA6877
:103EF000DA61BB78002B03D00F4BFA685A6302E0FB
:103F00000D4BFA681A63FB699B6823F47F5323F017
:103F10003703BB603B6B1B01BA681343BB60FB7884
:103F2000BA681343BB60FB69BA689A602437BD4620
:103F30005DF8047B704700BF00200C4080B58AB05C
:103F400000AF334B03F580531B68BB61304B03F567
:103F500080530C331B68BA691340BB612C4B9B6BBD
:103F60007B61BA697B6913403B620023FB6149E0D6
:103F700000237B623BE03B6A03F00103002B30D05F
:103F8000234B9B683B6101227B6A02FA03F3FB60CF
:103F90001F4B03F580530833FA681A607B6A1B01D4
:103FA0003A691344DB68BB60BB68002B19D0BB685F
:103FB0001B7A7B60BB681B7A83F00103DAB2BB68B3
:103FC0001A72BB681B68002B0BD0BB681B68786A31
:103FD0007A68002A0CBF00220122D1B2BA68526866
:103FE00098473B6A5B083B627B6A01337B623B6AB2
:103FF000002BC0D17B69DA43BB6913403B62FB698C
:104000000133FB61FB69012BB2DD2837BD4680BD62
:1040100000200C4080B588B004AFF8607B600B4690
:10402000FB721346BB72FA7ABB7A79680091B96960
:104030000191F9690291F8680121FFF7FBFE044B39
:10404000FA68012101FA02F29A621037BD4680BD7A
:1040500000200C4080B584B000AF786039601F4B01
:104060009B68FB607B681B01FA6813443A6892689E
:10407000DA603B681B78002B06D0184B7A68012168
:1040800001FA02F29A6305E0144B7A68012101FA01
:1040900002F2DA63114B3A6851687A6802F5886275
:1040A00043F822103B685B78002B0ED00B4B7A68EC
:1040B000012101FA02F203F5805308331A6008481F
:1040C00079680122FFF7A0FE04E005487968002224
:1040D000FFF79AFE1037BD4680BD00BF00200C40A0
:1040E0000C300C4080B487B000AFF8600B467A60AB
:1040F000FB72FB7A002B03D0154B9B687B6102E0BF
:10410000134BDB687B61FB681B017A6913447B619D
:104110007B681B789A077B689B781B071A437B6830
:104120005B789B061A437B689B781B0613431A46F1
:104130007B681B799B041A437B68DB789B031A43DB
:104140007B699A601C37BD465DF8047B704700BFF1
:1041500000200C4080B582B000AF7860104801218B
:10416000FFF794FB00F020F80020FFF733FE00205B
:10417000FFF7FEFD0B4B03F580530C334FF000426D
:104180001A60084B7A6852689A60064B7A6812780F
:10419000520142F001025A600837BD4680BD00BF9F
:1041A0000013020000200C4080B582B000AF002058
:1041B000FFF7F6FD194B00225A60184BFF22DA6117
:1041C000164BFF225A62154BFF22DA62134BFF2275
:1041D0005A63124BFF22DA63104B0122DA640F4B51
:1041E00003F580530C3300221A600C4B03F5805307
:1041F00008330B4A1A6000237B6009E0074B7A689A
:1042000002F58862002143F822107B6801337B604D
:104210007B68072BF2DD0837BD4680BD00200C40CF
:10422000FF00008080B500AF00F0C0FE80BD00BF81
:1042300080B400AF034B4AF6E8529A60BD465DF881
:10424000047B704700600C4080B400AF034B002239
:10425000C3F88420BD465DF8047B704700800C40A5
:1042600080B400AF044B45F60E02C3F88420BD466F
:104270005DF8047B704700BF00800C4080B582B0C1
:1042800000AF384BD3F8843003F001037B60FFF7B5
:10429000E7FF00233B60344B1B6803F001033A68DF
:1042A00013433B60304B1B6803F010033A68134321
:1042B0003B602D4B1B6803F040033A6813433B609F
:1042C000294B1B6803F004033A6813433B60264BF9
:1042D0001B6803F480733A6813433B60214B3A68D0
:1042E0001A62214B1B6803F47053B3F5805F06D04C
:1042F000B3F5005F0ED0B3F5006F16D020E000BF1D
:10430000184BDB6A03F08003002BF9D0154B032216
:104310005A6215E000BF134BDB6A03F40073002BF5
:10432000F9D0104B04225A620AE000BF0D4BDB6A41
:1043300003F00803002BF9D00A4B02225A6200BF97
:10434000094B1B6803F00103002B02D1054B02222D
:104350001A627B68002B01D0FFF776FF0837BD4655
:1043600080BD00BF00800C405C25002080B483B07D
:1043700000AF144B1B699BB203F03F039BB21B02BF
:10438000FB80104B9B699BB203F0F0039AB2FB8851
:104390001343FB800B4BDB6903F0F0031B099AB25C
:1043A000FB881343FB80FA8840F203139A428CBFC8
:1043B00000230123DBB218460C37BD465DF8047BB1
:1043C000704700BFD0FF0FE080B586B000AF034656
:1043D000FB71194BDA6A194B1A60194B184A1269AA
:1043E00042F004021A61FFF7C1FF0346FB75FB7D33
:1043F000002B08D0134B1A68134B1340FB60114B72
:10440000FA68C3F8802030BFFB7D002B02D00D4B33
:10441000FA681A60FB79002B02D0FFF72FFF07E044
:10442000064B1B6803F48063002B01D1FFF7FAFEF3
:104430001837BD4680BD00BF00800C405C250020C1
:1044400000ED00E000E100E0DCFC03F280B586B0A6
:1044500000AF0346FB71214BDA6A214B1A601F4BF8
:10446000D3F8843003F001037B61FFF7F9FE1B4BA7
:104470004FF420721A627B69002B01D0FFF7E4FE33
:10448000184B184A126942F004021A61FFF76EFFD6
:104490000346FB74FB7C002B08D0134B1A68134BAC
:1044A0001340BB60104BBA68C3F8802030BFFB7C60
:1044B000002B02D00C4BBA681A60FB79002B02D09B
:1044C000FFF7DCFE07E0064B1B6803F48063002B5C
:1044D00001D1FFF7A7FE1837BD4680BD00800C4014
:1044E0005C25002000ED00E000E100E0DCFC03F2D0
:1044F00080B584B000AF114B1B6823F00C0343F070
:104500000803BB600D4B1B6843F00C037B60FFF797
:104510008FFE0023FB6008E0084BBA681A60074B67
:104520007A681A60FB680133FB60FB68032BF3DDDC
:10453000024BBA681A601037BD4680BD00600C405F
:1045400080B400AF034BDA6A034B1A60BD465DF8D6
:10455000047B704700800C405C25002080B487B04D
:1045600000AFF860B9607A60FB6803F10473DA00A9
:10457000BB6813449B007B617B697A681A601C37B7
:10458000BD465DF8047B704780B485B000AFF8602D
:10459000B9607A60FB681A68BB68DB431A407B68C5
:1045A0001A43FB681A601437BD465DF8047B7047F8
:1045B00080B588B000AFF860B9607A60FB707B6846
:1045C000002B00D15EE0FB681B6823F44072FB689F
:1045D0001A60FA68FB781B0210464FF440711A46C5
:1045E000FFF7D2FFBB68002B03D12848FFF7ACF9D7
:1045F000B8604FF0FF33BB61FB681B6803F0020338
:10460000002B11D0FB78012B07D0022B08D0002BF8
:1046100000D019E01E4BBB6105E01E4BBB6102E000
:104620001D4BBB6100BF0FE0FB78012B06D0022BB6
:1046300007D0002B08D1194BBB6105E0184BBB61BB
:1046400002E0184BBB6100BFFB78174AD35C7B616B
:104650007B689B00BA68D21A7B69796801FB03F317
:10466000B2FBF3F3013BFB61FB681B6803F0020341
:10467000002B04D0FB69002B01D10123FB61FA69F7
:10468000FB681A612037BD4680BD00BF4081040031
:1046900040164000C0D8A7008050740180841E00DE
:1046A00040548900002D3101605A000080B582B06D
:1046B00000AF786039607B6800225A637B68114ADA
:1046C0001A637A683B685B78002B01D0002300E016
:1046D0000123104601211A46FFF740FF3B68596845
:1046E0003B689A683B681B7B7868FFF761FF7A68D4
:1046F0003B681B78104600211A46FFF72FFF08374A
:10470000BD4680BDCFFF010080B483B000AF7860AC
:1047100039607B681B6C03F00103002B00D006E0BE
:1047200000BF7B685A6C3B681340002BF9D10C37F3
:10473000BD465DF8047B704780B586B000AFF86079
:10474000B9607A60BB68002B12D1FA68164B9A42A6
:1047500002D1164B7B6107E0FA68154B9A4202D1F1
:10476000144B7B6100E01BE07869FFF7EDF8B8605F
:10477000BB685A017B68B2FBF3F33B613B69203BAA
:104780003B613B69DB003B613A6947F6F8731340D4
:104790003B61F8680421FFF7B7FFFB683A69DA600C
:1047A0001837BD4680BD00BF0040084070071400A8
:1047B000004408407017160080B483B000AF7860E2
:1047C0000B46FB70FB78002B08D000BF7B685B6C4E
:1047D000002BFBD17B6801221A6402E07B68002277
:1047E0001A640C37BD465DF8047B704780B582B013
:1047F00000AF786039607A681B4B9A4203D07A68C0
:104800001A4B9A4200D100BF78680221FFF77CFF63
:104810007B680A225A6078680121FFF7CDFF7B6828
:104820001B6823F01C023B681B7B1A433B685B7BC5
:104830001A433B689B7B1A437B681A603B685A6843
:104840003B689B68786811461A46FFF775FF3B681E
:104850001B781A467B685A6078680021FFF7ACFF26
:104860000837BD4680BD00BF0040084000440840F6
:1048700080B582B000AF78600B46FB70786801218C
:10488000FFF742FFFB78002B06D07B681B6843F4E0
:1048900000527B681A6005E07B681B6823F40052B5
:1048A0007B681A600837BD4680BD00BF80B582B006
:1048B00000AF78600B46FB7078680121FFF724FF9A
:1048C000FB78002B06D07B681B6843F480527B6822
:1048D0001A6005E07B681B6823F480527B681A60CD
:1048E0000837BD4680BD00BF80B487B000AFF86018
:1048F000B9607A60FB6803F10473DA00BB681344A3
:104900009B007B617B697A681A601C37BD465DF845
:10491000047B704780B483B000AF7860094B1B6A9A
:1049200003F00103002B00D006E000BF054B5A6ADC
:104930007B681340002BF9D10C37BD465DF8047B32
:10494000704700BF0000084080B485B000AF7860B9
:104950007B68002B02D0012B04D007E0084B9B683A
:10496000FB6006E0064BDB68FB6002E00023FB60B7
:1049700000BFFB6818461437BD465DF8047B7047DE
:104980000000084080B584B000AF786039607B6873
:10499000012B05D83B6803F07F43002B00D100BFFB
:1049A0007B68002B02D0012B05D00FE0094BFB6088
:1049B0000223BB6004E0084BFB600423BB6000BF24
:1049C000B868FFF7A7FFFB683A681A601037BD4662
:1049D00080BD00BF080008400C00084080B582B0D0
:1049E00000AF0346FB710120FFF794FFFB790548F8
:1049F00000211A46FFF778FF0120FFF78BFF0837E9
:104A0000BD4680BD0000084080B584B000AF78602E
:104A10007B681B78002B02D00123FB6001E00023A0
:104A2000FB607B685B78002B03D0FB6843F00203DC
:104A3000FB607B689B78002B03D0FB6843F004038A
:104A4000FB600120FFF766FF024BFA681A6010371F
:104A5000BD4680BD0000084080B485B000AF7860DE
:104A6000194B5B69DBB203F00F03DBB29B00FB73F6
:104A7000154B1B6903F0C0039B09DAB2FB7B1343A0
:104A8000FB737B68FA7B9A700F4B1B69DBB203F0F8
:104A90003F03DAB27B685A700B4B9B69DBB223F0A1
:104AA0000F03FB73084BDB6903F0F0031B09DAB259
:104AB000FB7B1343FB737B68FA7B1A701437BD468C
:104AC0005DF8047B704700BFD0FF0FE080B483B077
:104AD00000AF786039607A68304B9A4207D07A68C4
:104AE0002F4B9A4203D07A682E4B9A4200D100BFD6
:104AF0003B681B7883F00103DBB2002B02D07B689C
:104B000002225A607B6800225A623B689B781A0630
:104B10003B68DB781B041A433B681B799B021A43F2
:104B20003B685B791B021A433B689B791A433B68DD
:104B30005B78002B01D0402300E000231A433B6840
:104B4000DB79002B01D0802300E000231A433B686F
:104B50001B7A002B01D0202300E000231A433B687E
:104B60005B7A002B01D0102300E000231A433B683E
:104B70009B7A002B01D0082300E000231A437B68B6
:104B80001A603B681B78002B02D07B6801225A60B8
:104B90000C37BD465DF8047B704700BF0000014044
:104BA000000401400008014080B485B000AFF86007
:104BB000B9607A60FA68294B9A4207D0FA68284BA4
:104BC0009A4203D0FA68274B9A4200D100BF7B6813
:104BD0001B789A067B685B781B061A437B689B7878
:104BE0001B041A437B68DB781B031A437B681B7921
:104BF0009B021A437B685B791B021A437B689B7993
:104C00001A437B68DB79002B02D04FF4001300E0DD
:104C100000231A437B681B7A002B02D04FF48013C9
:104C200000E000231A437B685B7A002B01D010233D
:104C300000E000231A437B689B7A002B01D00423F9
:104C400000E000231A43F968BB6803331B010B44DF
:104C50001A601437BD465DF8047B704700000140C0
:104C6000000401400008014080B586B000AFF86044
:104C7000B9607A60FB70BB68002B03D12448FEF753
:104C800063FEB860FB78202B0CD0202B02DC002BBD
:104C900005D03AE0402B08D0602B09D035E0102336
:104CA0007B6108E008237B6105E006237B6102E06D
:104CB00004237B6100BFBB689A007B69796801FBB4
:104CC00003F35B0813443B617B697A6802FB03F3DF
:104CD0003A69B2FBF3F33B613B69043B3B613B69DF
:104CE0009B013B613A690B4B13403B61FB681B68BE
:104CF00023F06002FB681A60FB681A68FB781A43AD
:104D0000FB681A60FB683A695A611837BD4680BD76
:104D100040810400C0FF1F0080B582B000AF786002
:104D200039607A68174B9A420BD07A68164B9A42D0
:104D300007D07A68154B9A4203D07A68144B9A428E
:104D400000D100BF786800F04DF83B685B7B1A46E5
:104D50003B681B8A1A433B68DB891A437B685A60AD
:104D60003B6859683B689A683B681B7B7868FFF72B
:104D70007BFF3B681B781A467B68DA600837BD46C4
:104D800080BD00BF00C0004000C4004000C800401B
:104D900000E0004080B485B000AF786039607B6887
:104DA0009B6823F03703FB603B685B78002B03D0E4
:104DB000FB6843F02003FB603B681B78002B03D0AB
:104DC000FB6843F01003FB603B689B78FA68134371
:104DD000FB607B68FA689A601437BD465DF8047B17
:104DE000704700BF80B483B000AF78607A681B4B17
:104DF0009A420BD07A681A4B9A4207D07A68194BBC
:104E00009A4203D07A68184B9A4200D100BF7B685F
:104E100040F6AA62DA607B6800221A607B6841F281
:104E200005025A607B6800229A607B6800225A6102
:104E30007B680022DA647B6841F6F9729A647B68C9
:104E400000225A657A68054B9A4202D17B6800229B
:104E50001A650C37BD465DF8047B704700C0004002
:104E600000C4004000C8004000E0004080B483B0AF
:104E700000AF78607B681B6803F00103002B00D152
:104E800010E07B689B6803F00203002B00D009E070
:104E900000BF7B689B6803F00103002BF9D17B689E
:104EA00001225A600C37BD465DF8047B704700BF95
:104EB00080B485B000AF786039603B681B78002B08
:104EC00002D00123FB6001E00023FB603B685B78BC
:104ED000002B03D0FB6843F00203FB603B689B7828
:104EE000002B03D0FB6843F00403FB603B68DB78D6
:104EF000002B03D0FB6843F00803FB603B681B7981
:104F0000002B03D0FB6843F02003FB603B685B7918
:104F1000002B03D0FB6843F04003FB603B689B79A8
:104F2000002B03D0FB6843F01003FB603B68DB7988
:104F30001A033B681B7A1B021343FA681343FB6096
:104F400000BF7B689B6803F00103002BF9D17B68ED
:104F5000FA681A601437BD465DF8047B704700BFDD
:104F6000064880470649074A074B9A42BEBF51F898
:104F7000040B42F8040BF8E7FBF7CAF811510000E4
:104F8000785A0000000000207C000020FEE700BFEF
:104F900080B400AF044BDB6C1B0EDBB21846BD4681
:104FA0005DF8047B704700BFB081E00F80B582B030
:104FB00000AF00F01FF87860074B5B6803F00F0349
:104FC0007A6822FA03F37B60044B7A681A607B6884
:104FD00018460837BD4680BD00800C4000270020E1
:104FE00080B400AF024B1846BD465DF8047B7047A5
:104FF0000048E80180B582B000AF2F4BDB6A03F4B4
:105000007053B3F5805F0AD0B3F5005F03D0B3F5FA
:10501000006F08D00BE0294B1B687B6047E04FF422
:1050200000437B6043E0264B1B687B603FE0224BE4
:10503000DB6803F4E063B3F5007F1BD0B3F5007FBA
:1050400005D8002B24D0B3F5807F16D02BE0B3F524
:10505000806F09D0B3F5A06F03D0B3F5407F06D0C1
:1050600021E0184B7B6021E0174B7B601EE0174B63
:105070007B601BE0164B7B6018E0FFF789FF03465F
:10508000122B02D9134B7B6010E0134B7B600DE0B9
:10509000FFF77EFF0346122B02D9104B7B6005E021
:1050A0000F4B7B6002E000237B6000BF00BF7B688A
:1050B00018460837BD4680BD00800C400C0000201B
:1050C00008000020003FAB01406F4001809FD500E9
:1050D000C0D8A70040B56400C0CF6A00804F12005E
:1050E00040420F0080B582B000AF7860064B7A680E
:1050F0001A60064BDB6A03F40063002B01D0FFF754
:1051000055FF0837BD4680BD0800002000800C40D8
:1051100080B400AFBD465DF8047B704780B400AF3B
:105120004FF400431846BD465DF8047B704700BF4E
:1051300080B400AF034B1B681846BD465DF8047B86
:10514000704700BF0C00002081F0004102E000BF6A
:1051500083F0004330B54FEA41044FEA430594EA37
:10516000050F08BF90EA020F1FBF54EA000C55EA72
:10517000020C7FEA645C7FEA655C00F0E2804FEA43
:105180005454D4EB5555B8BF6D420CDD2C4480EA25
:10519000020281EA030382EA000083EA010180EA55
:1051A000020281EA0303362D88BF30BD11F0004FA3
:1051B0004FEA01314FF4801C4CEA113102D04042D9
:1051C00061EB410113F0004F4FEA03334CEA133314
:1051D00002D0524263EB430394EA050F00F0A7802C
:1051E000A4F10104D5F1200E0DDB02FA0EFC22FA27
:1051F00005F2801841F1000103FA0EF2801843FA1B
:1052000005F359410EE0A5F120050EF1200E012A0B
:1052100003FA0EFC28BF4CF0020C43FA05F3C01849
:1052200051EBE37101F0004507D54FF0000EDCF1C2
:10523000000C7EEB00006EEB0101B1F5801F1BD36B
:10524000B1F5001F0CD349085FEA30004FEA3C0C6F
:1052500004F101044FEA445212F5800F80F09A8065
:10526000BCF1004F08BF5FEA500C50F1000041EB69
:10527000045141EA050130BD5FEA4C0C404141EB6D
:10528000010111F4801FA4F10104E9D191F0000F94
:1052900004BF01460020B1FA81F308BF2033A3F117
:1052A0000B03B3F120020CDA0C3208DD02F1140C0E
:1052B000C2F10C0201FA0CF021FA02F10CE002F149
:1052C0001402D8BFC2F1200C01FA02F120FA0CFC42
:1052D000DCBF41EA0C019040E41AA2BF01EB04518B
:1052E000294330BD6FEA04041F3C1CDA0C340EDC89
:1052F00004F11404C4F1200220FA04F001FA02F3CC
:1053000040EA030021FA04F345EA030130BDC4F189
:105310000C04C4F1200220FA02F001FA04F340EA7E
:105320000300294630BD21FA04F0294630BD94F02F
:10533000000F83F4801306BF81F480110134013D16
:105340004EE77FEA645C18BF7FEA655C29D094EA87
:10535000050F08BF90EA020F05D054EA000C04BF05
:105360001946104630BD91EA030F1EBF00210020F0
:1053700030BD5FEA545C05D14000494128BF41F08F
:10538000004130BD14F580043CBF01F5801130BDF3
:1053900001F0004545F0FE4141F470014FF000007E
:1053A00030BD7FEA645C1ABF194610467FEA655C2F
:1053B0001CBF0B46024650EA013406BF52EA0335D1
:1053C00091EA030F41F4002130BD00BF90F0000FBF
:1053D00004BF0021704730B54FF4806404F13204FB
:1053E0004FF000054FF0000150E700BF90F0000FB4
:1053F00004BF0021704730B54FF4806404F13204DB
:1054000010F0004548BF40424FF000013EE700BFAA
:1054100042004FEAE2014FEA31014FEA02701FBF3A
:1054200012F07F4393F07F4F81F06051704792F00C
:10543000000F14BF93F07F4F704730B54FF4607486
:1054400001F0004521F0004120E700BF50EA0102D1
:1054500008BF704730B54FF000050AE050EA01027E
:1054600008BF704730B511F0004502D5404261EBEE
:1054700041014FF4806404F132045FEA915C3FF42F
:10548000DCAE4FF003025FEADC0C18BF03325FEAC8
:10549000DC0C18BF033202EBDC02C2F1200300FA7D
:1054A00003FC20FA02F001FA03FE40EA0E0021FAA2
:1054B00002F11444C1E600BF70B54FF0FF0C4CF48C
:1054C000E06C1CEA11541DBF1CEA135594EA0C0F42
:1054D00095EA0C0F00F0DEF82C4481EA030621EA7D
:1054E0004C5123EA4C5350EA013518BF52EA0335B8
:1054F00041F4801143F4801338D0A0FB02CE4FF06A
:105500000005E1FB02E506F00042E0FB03E54FF099
:105510000006E1FB03569CF0000F18BF4EF0010E91
:10552000A4F1FF04B6F5007F64F5407404D25FEA8D
:105530004E0E6D4146EB060642EAC62141EA555140
:105540004FEAC52040EA5E504FEACE2EB4F1FD0C82
:1055500088BFBCF5E06F1ED8BEF1004F08BF5FEA00
:10556000500E50F1000041EB045170BD06F00046B2
:1055700046EA010140EA020081EA0301B4EB5C045F
:10558000C2BFD4EB0C0541EA045170BD41F4801157
:105590004FF0000E013C00F3AB8014F1360FDEBF7C
:1055A000002001F0004170BDC4F10004203C35DA58
:1055B0000C341BDC04F11404C4F1200500FA05F3DB
:1055C00020FA04F001FA05F240EA020001F000427C
:1055D00021F0004110EBD37021FA04F642EB0601F2
:1055E0005EEA430E08BF20EAD37070BDC4F10C041C
:1055F000C4F1200500FA04F320FA05F001FA04F2E0
:1056000040EA020001F0004110EBD37041F10001CB
:105610005EEA430E08BF20EAD37070BDC4F12005D6
:1056200000FA05F24EEA020E20FA04F301FA05F23E
:1056300043EA020321FA04F001F0004121FA04F2E6
:1056400020EA020000EBD3705EEA430E08BF20EAB6
:10565000D37070BD94F0000F0FD101F000464000F0
:1056600041EB010111F4801F08BF013CF7D041EA72
:10567000060195F0000F18BF704703F00046520076
:1056800043EB030313F4801F08BF013DF7D043EA47
:105690000603704794EA0C0F0CEA135518BF95EAFD
:1056A0000C0F0CD050EA410618BF52EA4306D1D184
:1056B00081EA030101F000414FF0000070BD50EAA3
:1056C000410606BF1046194652EA430619D094EA2D
:1056D0000C0F02D150EA013613D195EA0C0F05D117
:1056E00052EA03361CBF104619460AD181EA03016B
:1056F00001F0004141F0FE4141F470014FF0000023
:1057000070BD41F0FE4141F4780170BD70B54FF0BD
:10571000FF0C4CF4E06C1CEA11541DBF1CEA13553D
:1057200094EA0C0F95EA0C0F00F0A7F8A4EB05041F
:1057300081EA030E52EA03354FEA013100F0888016
:105740004FEA03334FF0805545EA131343EA1263DF
:105750004FEA022245EA111545EA10654FEA002694
:105760000EF000419D4208BF964244F1FD0404F54D
:10577000407402D25B084FEA3202B61A65EB0305A9
:105780005B084FEA32024FF480104FF4002CB6EB66
:10579000020E75EB030E22BFB61A754640EA0C00E6
:1057A0005B084FEA3202B6EB020E75EB030E22BF26
:1057B000B61A754640EA5C005B084FEA3202B6EB67
:1057C000020E75EB030E22BFB61A754640EA9C0026
:1057D0005B084FEA3202B6EB020E75EB030E22BFF6
:1057E000B61A754640EADC0055EA060E18D04FEAB4
:1057F000051545EA16754FEA06164FEAC30343EA54
:1058000052734FEAC2025FEA1C1CC0D111F4801F20
:105810000BD141EA00014FF000004FF0004CB6E719
:1058200011F4801F04BF01430020B4F1FD0C88BFB8
:10583000BCF5E06F3FF6AFAEB5EB030C04BFB6EBC3
:10584000020C5FEA500C50F1000041EB045170BDB6
:105850000EF0004E4EEA113114EB5C04C2BFD4EBE3
:105860000C0541EA045170BD41F480114FF0000E67
:10587000013C90E645EA060E8DE60CEA135594EAE3
:105880000C0F08BF95EA0C0F3FF43BAF94EA0C0FE6
:105890000AD150EA01347FF434AF95EA0C0F7FF45B
:1058A00025AF104619462CE795EA0C0F06D152EAAF
:1058B00003353FF4FDAE1046194622E750EA410693
:1058C00018BF52EA43067FF4C5AE50EA41047FF4A4
:1058D0000DAF52EA43057FF4EBAE12E74A0011D256
:1058E00012F5001211D20DD56FF47873B3EB62523A
:1058F0000ED44FEAC12343F0004343EA505323FA46
:1059000002F070474FF00000704750EA013002D1BA
:105910004FF0FF3070474FF00000704708B5074B5D
:10592000044613B10021AFF30080054B1868836A69
:1059300003B19847204600F03DF800BF000000008A
:10594000685A000070B50E4B0E4D0024ED1AAD10D4
:105950001E46AC4204D056F8242090470134F8E7A4
:1059600000F02AF8084D094B0024ED1AAD101E4630
:10597000AC4204D056F8242090470134F8E770BDBB
:1059800070000020700000207400002070000020D3
:1059900010B50023934203D0CC5CC4540133F9E723
:1059A00010BD02440346934202D003F8011BFAE7FC
:1059B00070470000FEE700BFF8B500BFF8BC08BCA8
:1059C0009E467047F8B500BFF8BC08BC9E467047BD
:1059D00049444C4500000000546D7220537663002A
:1059E000546D72510000000001000100050000002C
:1059F0000000000000C201000005000000100000CF
:105A000005000000000000008025000000000000EC
:105A100001000000000000000F0000000101000074
:105A200000000000486B010000000000506F776527
:105A3000724374726C0000004661756C745F48615B
:105A40006E646C65720000005265706F72740000C5
:105A50004379636C65536572766963650000000085
:105A60000809110843000000100000200000000099
:085A7000A0A6FF7F0100000069
:105A7800AAAAAAAAFFFFFFFF0048E80100800000C9
:105A8800000000000000000000000000000000000E
:105A980000000000000000000000000000000000FE
:105AA800645A000000000000000000000000000030
:105AB80000000000000000000000000000000000DE
:105AC80000000000000000000000000000000000CE
